{
  "_format": "hh-sol-artifact-1",
  "contractName": "ChadgerRegistry",
  "sourceName": "contracts/ChadgerRegistry.sol",
  "abi": [
    {
      "anonymous": false,
      "inputs": [
        {
          "indexed": false,
          "internalType": "address",
          "name": "governance",
          "type": "address"
        }
      ],
      "name": "GovernanceChanged",
      "type": "event"
    },
    {
      "anonymous": false,
      "inputs": [
        {
          "indexed": false,
          "internalType": "address",
          "name": "priceFinder",
          "type": "address"
        }
      ],
      "name": "PriceFinderChanged",
      "type": "event"
    },
    {
      "anonymous": false,
      "inputs": [
        {
          "indexed": true,
          "internalType": "address",
          "name": "author",
          "type": "address"
        },
        {
          "indexed": true,
          "internalType": "address",
          "name": "vault",
          "type": "address"
        }
      ],
      "name": "VaultAdded",
      "type": "event"
    },
    {
      "anonymous": false,
      "inputs": [
        {
          "indexed": false,
          "internalType": "address",
          "name": "vaultImplementation",
          "type": "address"
        }
      ],
      "name": "VaultImplementationChanged",
      "type": "event"
    },
    {
      "anonymous": false,
      "inputs": [
        {
          "indexed": true,
          "internalType": "address",
          "name": "vaultAddress",
          "type": "address"
        },
        {
          "indexed": true,
          "internalType": "enum ChadgerRegistry.VaultStatus",
          "name": "status",
          "type": "uint8"
        }
      ],
      "name": "VaultStatusChanged",
      "type": "event"
    },
    {
      "inputs": [],
      "name": "ONE_ETH",
      "outputs": [
        {
          "internalType": "uint256",
          "name": "",
          "type": "uint256"
        }
      ],
      "stateMutability": "view",
      "type": "function"
    },
    {
      "inputs": [],
      "name": "ONE_YEAR",
      "outputs": [
        {
          "internalType": "uint256",
          "name": "",
          "type": "uint256"
        }
      ],
      "stateMutability": "view",
      "type": "function"
    },
    {
      "inputs": [],
      "name": "PERCENT_DENOMITATOR",
      "outputs": [
        {
          "internalType": "uint256",
          "name": "",
          "type": "uint256"
        }
      ],
      "stateMutability": "view",
      "type": "function"
    },
    {
      "inputs": [
        {
          "internalType": "address",
          "name": "_token",
          "type": "address"
        },
        {
          "internalType": "address",
          "name": "_keeper",
          "type": "address"
        },
        {
          "internalType": "address",
          "name": "_guardian",
          "type": "address"
        },
        {
          "internalType": "address",
          "name": "_treasury",
          "type": "address"
        },
        {
          "internalType": "address",
          "name": "_badgerTree",
          "type": "address"
        },
        {
          "internalType": "string",
          "name": "_name",
          "type": "string"
        },
        {
          "internalType": "string",
          "name": "_symbol",
          "type": "string"
        },
        {
          "internalType": "uint256[4]",
          "name": "_feeConfig",
          "type": "uint256[4]"
        },
        {
          "internalType": "string",
          "name": "_metaPointer",
          "type": "string"
        }
      ],
      "name": "addVault",
      "outputs": [],
      "stateMutability": "nonpayable",
      "type": "function"
    },
    {
      "inputs": [
        {
          "internalType": "uint256",
          "name": "_addon",
          "type": "uint256"
        },
        {
          "internalType": "uint256",
          "name": "_total",
          "type": "uint256"
        },
        {
          "internalType": "uint256",
          "name": "_startFrom",
          "type": "uint256"
        }
      ],
      "name": "calculateAPY",
      "outputs": [
        {
          "internalType": "uint256",
          "name": "",
          "type": "uint256"
        }
      ],
      "stateMutability": "view",
      "type": "function"
    },
    {
      "inputs": [
        {
          "internalType": "address",
          "name": "_governance",
          "type": "address"
        }
      ],
      "name": "changeGovernance",
      "outputs": [],
      "stateMutability": "nonpayable",
      "type": "function"
    },
    {
      "inputs": [
        {
          "internalType": "address",
          "name": "_priceFinder",
          "type": "address"
        }
      ],
      "name": "changePriceFinder",
      "outputs": [],
      "stateMutability": "nonpayable",
      "type": "function"
    },
    {
      "inputs": [
        {
          "internalType": "address",
          "name": "_vaultImplementation",
          "type": "address"
        }
      ],
      "name": "changeVaultImplementation",
      "outputs": [],
      "stateMutability": "nonpayable",
      "type": "function"
    },
    {
      "inputs": [
        {
          "internalType": "address",
          "name": "_vaultAddress",
          "type": "address"
        },
        {
          "internalType": "enum ChadgerRegistry.VaultStatus",
          "name": "_vaultStatus",
          "type": "uint8"
        }
      ],
      "name": "changeVaultStatus",
      "outputs": [],
      "stateMutability": "nonpayable",
      "type": "function"
    },
    {
      "inputs": [
        {
          "internalType": "address",
          "name": "_address",
          "type": "address"
        }
      ],
      "name": "getToken",
      "outputs": [
        {
          "components": [
            {
              "internalType": "address",
              "name": "tokenAddress",
              "type": "address"
            },
            {
              "internalType": "string",
              "name": "name",
              "type": "string"
            },
            {
              "internalType": "string",
              "name": "symbol",
              "type": "string"
            }
          ],
          "internalType": "struct ChadgerRegistry.Token",
          "name": "",
          "type": "tuple"
        }
      ],
      "stateMutability": "view",
      "type": "function"
    },
    {
      "inputs": [
        {
          "internalType": "address",
          "name": "_userAddrress",
          "type": "address"
        }
      ],
      "name": "getUserBalance",
      "outputs": [
        {
          "components": [
            {
              "internalType": "address",
              "name": "token",
              "type": "address"
            },
            {
              "internalType": "uint256",
              "name": "amount",
              "type": "uint256"
            },
            {
              "internalType": "uint256",
              "name": "usd",
              "type": "uint256"
            }
          ],
          "internalType": "struct ChadgerRegistry.TokenReport[]",
          "name": "",
          "type": "tuple[]"
        }
      ],
      "stateMutability": "view",
      "type": "function"
    },
    {
      "inputs": [
        {
          "internalType": "address",
          "name": "_vaultAddress",
          "type": "address"
        },
        {
          "internalType": "address",
          "name": "_userAddrress",
          "type": "address"
        }
      ],
      "name": "getUserVaultBalance",
      "outputs": [
        {
          "components": [
            {
              "internalType": "address",
              "name": "token",
              "type": "address"
            },
            {
              "internalType": "uint256",
              "name": "amount",
              "type": "uint256"
            },
            {
              "internalType": "uint256",
              "name": "usd",
              "type": "uint256"
            }
          ],
          "internalType": "struct ChadgerRegistry.TokenReport",
          "name": "report",
          "type": "tuple"
        }
      ],
      "stateMutability": "view",
      "type": "function"
    },
    {
      "inputs": [
        {
          "internalType": "address",
          "name": "_vaultAddress",
          "type": "address"
        }
      ],
      "name": "getVaultAPY",
      "outputs": [
        {
          "components": [
            {
              "components": [
                {
                  "internalType": "address",
                  "name": "tokenAddress",
                  "type": "address"
                },
                {
                  "internalType": "string",
                  "name": "name",
                  "type": "string"
                },
                {
                  "internalType": "string",
                  "name": "symbol",
                  "type": "string"
                }
              ],
              "internalType": "struct ChadgerRegistry.Token",
              "name": "token",
              "type": "tuple"
            },
            {
              "internalType": "uint256",
              "name": "amount",
              "type": "uint256"
            },
            {
              "internalType": "uint256",
              "name": "usd",
              "type": "uint256"
            },
            {
              "internalType": "uint256",
              "name": "apy",
              "type": "uint256"
            }
          ],
          "internalType": "struct ChadgerRegistry.TokenRewardApyReport[]",
          "name": "",
          "type": "tuple[]"
        }
      ],
      "stateMutability": "view",
      "type": "function"
    },
    {
      "inputs": [
        {
          "internalType": "address",
          "name": "_vaultAddress",
          "type": "address"
        },
        {
          "internalType": "address",
          "name": "_userAddrress",
          "type": "address"
        }
      ],
      "name": "getVaultDetails",
      "outputs": [
        {
          "components": [
            {
              "internalType": "address",
              "name": "strategist",
              "type": "address"
            },
            {
              "internalType": "enum ChadgerRegistry.VaultStatus",
              "name": "status",
              "type": "uint8"
            },
            {
              "internalType": "string",
              "name": "metaPointer",
              "type": "string"
            },
            {
              "internalType": "uint256",
              "name": "tvl",
              "type": "uint256"
            },
            {
              "internalType": "address",
              "name": "vaultAddress",
              "type": "address"
            },
            {
              "components": [
                {
                  "internalType": "address",
                  "name": "tokenAddress",
                  "type": "address"
                },
                {
                  "internalType": "string",
                  "name": "name",
                  "type": "string"
                },
                {
                  "internalType": "string",
                  "name": "symbol",
                  "type": "string"
                }
              ],
              "internalType": "struct ChadgerRegistry.Token",
              "name": "token",
              "type": "tuple"
            },
            {
              "internalType": "address",
              "name": "keeper",
              "type": "address"
            },
            {
              "internalType": "address",
              "name": "guardian",
              "type": "address"
            },
            {
              "internalType": "address",
              "name": "treasury",
              "type": "address"
            },
            {
              "internalType": "address",
              "name": "badgerTree",
              "type": "address"
            },
            {
              "internalType": "string",
              "name": "name",
              "type": "string"
            },
            {
              "internalType": "string",
              "name": "symbol",
              "type": "string"
            },
            {
              "internalType": "uint256",
              "name": "performanceFeeGovernance",
              "type": "uint256"
            },
            {
              "internalType": "uint256",
              "name": "performanceFeeStrategist",
              "type": "uint256"
            },
            {
              "internalType": "uint256",
              "name": "withdrawalFee",
              "type": "uint256"
            },
            {
              "internalType": "uint256",
              "name": "managementFee",
              "type": "uint256"
            },
            {
              "internalType": "address",
              "name": "strategy",
              "type": "address"
            },
            {
              "components": [
                {
                  "internalType": "address",
                  "name": "token",
                  "type": "address"
                },
                {
                  "internalType": "uint256",
                  "name": "amount",
                  "type": "uint256"
                },
                {
                  "internalType": "uint256",
                  "name": "usd",
                  "type": "uint256"
                }
              ],
              "internalType": "struct ChadgerRegistry.TokenReport",
              "name": "deposits",
              "type": "tuple"
            },
            {
              "internalType": "uint256",
              "name": "lifeTimeEarned",
              "type": "uint256"
            },
            {
              "internalType": "uint256",
              "name": "lastHarvestedAt",
              "type": "uint256"
            },
            {
              "internalType": "uint256",
              "name": "lastHarvestAmount",
              "type": "uint256"
            },
            {
              "components": [
                {
                  "components": [
                    {
                      "internalType": "address",
                      "name": "tokenAddress",
                      "type": "address"
                    },
                    {
                      "internalType": "string",
                      "name": "name",
                      "type": "string"
                    },
                    {
                      "internalType": "string",
                      "name": "symbol",
                      "type": "string"
                    }
                  ],
                  "internalType": "struct ChadgerRegistry.Token",
                  "name": "token",
                  "type": "tuple"
                },
                {
                  "internalType": "uint256",
                  "name": "amount",
                  "type": "uint256"
                },
                {
                  "internalType": "uint256",
                  "name": "usd",
                  "type": "uint256"
                },
                {
                  "internalType": "uint256",
                  "name": "apy",
                  "type": "uint256"
                }
              ],
              "internalType": "struct ChadgerRegistry.TokenRewardApyReport[]",
              "name": "apyReports",
              "type": "tuple[]"
            }
          ],
          "internalType": "struct ChadgerRegistry.VaultDetails",
          "name": "vaultDetails",
          "type": "tuple"
        }
      ],
      "stateMutability": "view",
      "type": "function"
    },
    {
      "inputs": [
        {
          "internalType": "address",
          "name": "_vaultAddress",
          "type": "address"
        },
        {
          "internalType": "address",
          "name": "_userAddrress",
          "type": "address"
        }
      ],
      "name": "getVaultSummary",
      "outputs": [
        {
          "components": [
            {
              "internalType": "address",
              "name": "strategist",
              "type": "address"
            },
            {
              "internalType": "enum ChadgerRegistry.VaultStatus",
              "name": "status",
              "type": "uint8"
            },
            {
              "internalType": "address",
              "name": "vaultAddress",
              "type": "address"
            },
            {
              "components": [
                {
                  "internalType": "address",
                  "name": "tokenAddress",
                  "type": "address"
                },
                {
                  "internalType": "string",
                  "name": "name",
                  "type": "string"
                },
                {
                  "internalType": "string",
                  "name": "symbol",
                  "type": "string"
                }
              ],
              "internalType": "struct ChadgerRegistry.Token",
              "name": "token",
              "type": "tuple"
            },
            {
              "internalType": "string",
              "name": "name",
              "type": "string"
            },
            {
              "internalType": "string",
              "name": "symbol",
              "type": "string"
            },
            {
              "internalType": "uint256",
              "name": "tvl",
              "type": "uint256"
            },
            {
              "components": [
                {
                  "components": [
                    {
                      "internalType": "address",
                      "name": "tokenAddress",
                      "type": "address"
                    },
                    {
                      "internalType": "string",
                      "name": "name",
                      "type": "string"
                    },
                    {
                      "internalType": "string",
                      "name": "symbol",
                      "type": "string"
                    }
                  ],
                  "internalType": "struct ChadgerRegistry.Token",
                  "name": "token",
                  "type": "tuple"
                },
                {
                  "internalType": "uint256",
                  "name": "amount",
                  "type": "uint256"
                },
                {
                  "internalType": "uint256",
                  "name": "usd",
                  "type": "uint256"
                },
                {
                  "internalType": "uint256",
                  "name": "apy",
                  "type": "uint256"
                }
              ],
              "internalType": "struct ChadgerRegistry.TokenRewardApyReport[]",
              "name": "apyReports",
              "type": "tuple[]"
            },
            {
              "components": [
                {
                  "internalType": "address",
                  "name": "token",
                  "type": "address"
                },
                {
                  "internalType": "uint256",
                  "name": "amount",
                  "type": "uint256"
                },
                {
                  "internalType": "uint256",
                  "name": "usd",
                  "type": "uint256"
                }
              ],
              "internalType": "struct ChadgerRegistry.TokenReport",
              "name": "deposits",
              "type": "tuple"
            }
          ],
          "internalType": "struct ChadgerRegistry.VaultSummary",
          "name": "vaultSummary",
          "type": "tuple"
        }
      ],
      "stateMutability": "view",
      "type": "function"
    },
    {
      "inputs": [],
      "name": "getVaultsAddresses",
      "outputs": [
        {
          "internalType": "address[]",
          "name": "",
          "type": "address[]"
        }
      ],
      "stateMutability": "view",
      "type": "function"
    },
    {
      "inputs": [
        {
          "internalType": "address",
          "name": "_userAddrress",
          "type": "address"
        }
      ],
      "name": "getVaultsSummary",
      "outputs": [
        {
          "components": [
            {
              "internalType": "address",
              "name": "strategist",
              "type": "address"
            },
            {
              "internalType": "enum ChadgerRegistry.VaultStatus",
              "name": "status",
              "type": "uint8"
            },
            {
              "internalType": "address",
              "name": "vaultAddress",
              "type": "address"
            },
            {
              "components": [
                {
                  "internalType": "address",
                  "name": "tokenAddress",
                  "type": "address"
                },
                {
                  "internalType": "string",
                  "name": "name",
                  "type": "string"
                },
                {
                  "internalType": "string",
                  "name": "symbol",
                  "type": "string"
                }
              ],
              "internalType": "struct ChadgerRegistry.Token",
              "name": "token",
              "type": "tuple"
            },
            {
              "internalType": "string",
              "name": "name",
              "type": "string"
            },
            {
              "internalType": "string",
              "name": "symbol",
              "type": "string"
            },
            {
              "internalType": "uint256",
              "name": "tvl",
              "type": "uint256"
            },
            {
              "components": [
                {
                  "components": [
                    {
                      "internalType": "address",
                      "name": "tokenAddress",
                      "type": "address"
                    },
                    {
                      "internalType": "string",
                      "name": "name",
                      "type": "string"
                    },
                    {
                      "internalType": "string",
                      "name": "symbol",
                      "type": "string"
                    }
                  ],
                  "internalType": "struct ChadgerRegistry.Token",
                  "name": "token",
                  "type": "tuple"
                },
                {
                  "internalType": "uint256",
                  "name": "amount",
                  "type": "uint256"
                },
                {
                  "internalType": "uint256",
                  "name": "usd",
                  "type": "uint256"
                },
                {
                  "internalType": "uint256",
                  "name": "apy",
                  "type": "uint256"
                }
              ],
              "internalType": "struct ChadgerRegistry.TokenRewardApyReport[]",
              "name": "apyReports",
              "type": "tuple[]"
            },
            {
              "components": [
                {
                  "internalType": "address",
                  "name": "token",
                  "type": "address"
                },
                {
                  "internalType": "uint256",
                  "name": "amount",
                  "type": "uint256"
                },
                {
                  "internalType": "uint256",
                  "name": "usd",
                  "type": "uint256"
                }
              ],
              "internalType": "struct ChadgerRegistry.TokenReport",
              "name": "deposits",
              "type": "tuple"
            }
          ],
          "internalType": "struct ChadgerRegistry.VaultSummary[]",
          "name": "",
          "type": "tuple[]"
        }
      ],
      "stateMutability": "view",
      "type": "function"
    },
    {
      "inputs": [],
      "name": "governance",
      "outputs": [
        {
          "internalType": "address",
          "name": "",
          "type": "address"
        }
      ],
      "stateMutability": "view",
      "type": "function"
    },
    {
      "inputs": [
        {
          "internalType": "address",
          "name": "_vaultImplementation",
          "type": "address"
        },
        {
          "internalType": "address",
          "name": "_governance",
          "type": "address"
        },
        {
          "internalType": "address",
          "name": "_priceFinder",
          "type": "address"
        }
      ],
      "name": "initialize",
      "outputs": [],
      "stateMutability": "nonpayable",
      "type": "function"
    },
    {
      "inputs": [],
      "name": "priceFinder",
      "outputs": [
        {
          "internalType": "address",
          "name": "",
          "type": "address"
        }
      ],
      "stateMutability": "view",
      "type": "function"
    },
    {
      "inputs": [
        {
          "internalType": "address",
          "name": "",
          "type": "address"
        }
      ],
      "name": "registeries",
      "outputs": [
        {
          "internalType": "contract IVault",
          "name": "vault",
          "type": "address"
        },
        {
          "internalType": "address",
          "name": "strategist",
          "type": "address"
        },
        {
          "internalType": "enum ChadgerRegistry.VaultStatus",
          "name": "status",
          "type": "uint8"
        },
        {
          "internalType": "string",
          "name": "metaPointer",
          "type": "string"
        },
        {
          "internalType": "uint256",
          "name": "registredAt",
          "type": "uint256"
        }
      ],
      "stateMutability": "view",
      "type": "function"
    },
    {
      "inputs": [],
      "name": "vaultImplementation",
      "outputs": [
        {
          "internalType": "address",
          "name": "",
          "type": "address"
        }
      ],
      "stateMutability": "view",
      "type": "function"
    }
  ],
  "bytecode": "0x608060405234801561001057600080fd5b5061327c806100206000396000f3fe608060405234801561001057600080fd5b50600436106101425760003560e01c806399572d6f116100b8578063cf08db921161007c578063cf08db92146102c4578063d3c1fd98146102d9578063d81d3bac146102ec578063e4c0c7181461030c578063ea3a4c601461031f578063f7302e791461032757610142565b806399572d6f1461026e578063a6df253814610281578063ab9a886414610289578063bba48a90146102a9578063c0c53b8b146102b157610142565b8063477348921161010a57806347734892146101de57806352a84cc6146101fe57806359770438146102135780635aa6e6751461023357806389e5f0e51461023b578063979b77231461024e57610142565b806316d3bfbb146101475780631a2e1cd21461016557806323c39130146101855780632bb766d71461019a57806345548003146101be575b600080fd5b61014f61033a565b60405161015c91906131a4565b60405180910390f35b610178610173366004612742565b610342565b60405161015c9190612fdb565b61018d610c2b565b60405161015c9190612c33565b6101ad6101a836600461270a565b610c3a565b60405161015c959493929190612e0a565b6101d16101cc36600461270a565b610d04565b60405161015c9190612daa565b6101f16101ec36600461270a565b610db4565b60405161015c9190612d55565b61021161020c3660046127c4565b610e85565b005b61022661022136600461270a565b61105b565b60405161015c9190612fc8565b61018d6111d2565b61021161024936600461270a565b6111e1565b61026161025c366004612742565b611268565b60405161015c9190612fba565b61021161027c36600461270a565b61156a565b61014f6115df565b61029c61029736600461270a565b6115e5565b60405161015c9190612d97565b61018d611a43565b6102116102bf36600461277a565b611a58565b6102cc611b2f565b60405161015c9190612d08565b6102116102e73660046128b3565b611bd0565b6102ff6102fa366004612742565b611ca6565b60405161015c9190613191565b61014f61031a366004612a1e565b6121a4565b61014f6121ed565b61021161033536600461270a565b6121f9565b6301e187e081565b61034a6123e9565b8261035660038261226e565b61037b5760405162461bcd60e51b815260040161037290612f91565b60405180910390fd5b6103836124aa565b61038d8585611ca6565b905060008590508160200151846020019060028111156103a957fe5b908160028111156103b657fe5b9052506001600160a01b0386166000908152600560209081526040918290206002908101805484516001821615610100026000190190911692909204601f81018490048402830184019094528382529092909183018282801561045a5780601f1061042f5761010080835404028352916020019161045a565b820191906000526020600020905b81548152906001019060200180831161043d57829003601f168201915b50505050508460400181905250806001600160a01b031663a8c62e766040518163ffffffff1660e01b815260040160206040518083038186803b1580156104a057600080fd5b505afa1580156104b4573d6000803e3d6000fd5b505050506040513d601f19601f820116820180604052508101906104d89190612726565b6001600160a01b0390811661020086015260c083015160608087019190915261010084015161022087015283015160a086015260e08301516102a086015260408051630ff2534360e11b8152905191831691631fe4a68691600480820192602092909190829003018186803b15801561055057600080fd5b505afa158015610564573d6000803e3d6000fd5b505050506040513d601f19601f820116820180604052508101906105889190612726565b6001600160a01b0390811685526040805163aced166160e01b815290519183169163aced166191600480820192602092909190829003018186803b1580156105cf57600080fd5b505afa1580156105e3573d6000803e3d6000fd5b505050506040513d601f19601f820116820180604052508101906106079190612726565b8460c001906001600160a01b031690816001600160a01b031681525050806001600160a01b031663452a93206040518163ffffffff1660e01b815260040160206040518083038186803b15801561065d57600080fd5b505afa158015610671573d6000803e3d6000fd5b505050506040513d601f19601f820116820180604052508101906106959190612726565b8460e001906001600160a01b031690816001600160a01b031681525050806001600160a01b03166361d027b36040518163ffffffff1660e01b815260040160206040518083038186803b1580156106eb57600080fd5b505afa1580156106ff573d6000803e3d6000fd5b505050506040513d601f19601f820116820180604052508101906107239190612726565b8461010001906001600160a01b031690816001600160a01b031681525050806001600160a01b031663894836956040518163ffffffff1660e01b815260040160206040518083038186803b15801561077a57600080fd5b505afa15801561078e573d6000803e3d6000fd5b505050506040513d601f19601f820116820180604052508101906107b29190612726565b6001600160a01b039081166101208601528681166080860152604080516306fdde0360e01b81529051918316916306fdde0391600480820192600092909190829003018186803b15801561080557600080fd5b505afa158015610819573d6000803e3d6000fd5b505050506040513d6000823e601f3d908101601f191682016040526108419190810190612993565b846101400181905250806001600160a01b03166395d89b416040518163ffffffff1660e01b815260040160006040518083038186803b15801561088357600080fd5b505afa158015610897573d6000803e3d6000fd5b505050506040513d6000823e601f3d908101601f191682016040526108bf9190810190612993565b846101600181905250806001600160a01b03166315b18ddd6040518163ffffffff1660e01b815260040160206040518083038186803b15801561090157600080fd5b505afa158015610915573d6000803e3d6000fd5b505050506040513d601f19601f820116820180604052508101906109399190612a06565b84610180018181525050806001600160a01b031663504a16476040518163ffffffff1660e01b815260040160206040518083038186803b15801561097c57600080fd5b505afa158015610990573d6000803e3d6000fd5b505050506040513d601f19601f820116820180604052508101906109b49190612a06565b846101a0018181525050806001600160a01b0316638bc7e8c46040518163ffffffff1660e01b815260040160206040518083038186803b1580156109f757600080fd5b505afa158015610a0b573d6000803e3d6000fd5b505050506040513d601f19601f82011682018060405250810190610a2f9190612a06565b846101c0018181525050806001600160a01b031663a6f7f5d66040518163ffffffff1660e01b815260040160206040518083038186803b158015610a7257600080fd5b505afa158015610a86573d6000803e3d6000fd5b505050506040513d601f19601f82011682018060405250810190610aaa9190612a06565b846101e0018181525050806001600160a01b031663f9f44f4e6040518163ffffffff1660e01b815260040160206040518083038186803b158015610aed57600080fd5b505afa158015610b01573d6000803e3d6000fd5b505050506040513d601f19601f82011682018060405250810190610b259190612a06565b84610240018181525050806001600160a01b031663ecb9da776040518163ffffffff1660e01b815260040160206040518083038186803b158015610b6857600080fd5b505afa158015610b7c573d6000803e3d6000fd5b505050506040513d601f19601f82011682018060405250810190610ba09190612a06565b84610260018181525050806001600160a01b0316637dbe79206040518163ffffffff1660e01b815260040160206040518083038186803b158015610be357600080fd5b505afa158015610bf7573d6000803e3d6000fd5b505050506040513d601f19601f82011682018060405250810190610c1b9190612a06565b6102808501525091949350505050565b6002546001600160a01b031681565b60056020908152600091825260409182902080546001808301546002808501805488516101009582161595909502600019011691909104601f81018790048702840187019097528683526001600160a01b039384169693821695600160a01b90920460ff1694939091830182828015610cf45780601f10610cc957610100808354040283529160200191610cf4565b820191906000526020600020905b815481529060010190602001808311610cd757829003601f168201915b5050505050908060030154905085565b606080610d11600361228c565b67ffffffffffffffff81118015610d2757600080fd5b50604051908082528060200260200182016040528015610d6157816020015b610d4e6124aa565b815260200190600190039081610d465790505b50905060005b610d71600361228c565b811015610dab57610d8c610d86600383612297565b85611ca6565b828281518110610d9857fe5b6020908102919091010152600101610d67565b5090505b919050565b6002546060906001600160a01b0316610ddf5760405162461bcd60e51b815260040161037290612e97565b6060610deb600361228c565b67ffffffffffffffff81118015610e0157600080fd5b50604051908082528060200260200182016040528015610e3b57816020015b610e28612502565b815260200190600190039081610e205790505b50905060005b610e4b600361228c565b811015610dab57610e66610e60600383612297565b85611268565b828281518110610e7257fe5b6020908102919091010152600101610e41565b6000546201000090046001600160a01b0316610eb35760405162461bcd60e51b815260040161037290612ebf565b60008054610ecf906201000090046001600160a01b03166122a3565b60405163f7fec18160e01b81529091506001600160a01b0382169063f7fec18190610f10908d9033908e908e908e9084908f908f908f908f90600401612c47565b600060405180830381600087803b158015610f2a57600080fd5b505af1158015610f3e573d6000803e3d6000fd5b50505050610f5681600361231290919063ffffffff16565b506040805160a0810182526001600160a01b0383168152336020820152908101600081526020808201859052426040928301526001600160a01b03808516600090815260058352839020845181549083166001600160a01b0319918216178255928501516001820180549190931693169290921780825592840151919260ff60a01b1916600160a01b836002811115610feb57fe5b02179055506060820151805161100b91600284019160209091019061252c565b50608091909101516003909101556040516001600160a01b0382169033907f2f0697414292d16e25e419060ebbb3a3318648280380829ca42af307b155393b90600090a350505050505050505050565b6110636125aa565b6001600160a01b0382166110bb57604051806060016040528060006001600160a01b03168152602001604051806020016040528060008152508152602001604051806020016040528060008152508152509050610daf565b60008290506040518060600160405280846001600160a01b03168152602001826001600160a01b03166306fdde036040518163ffffffff1660e01b815260040160006040518083038186803b15801561111357600080fd5b505afa158015611127573d6000803e3d6000fd5b505050506040513d6000823e601f3d908101601f1916820160405261114f9190810190612993565b8152602001826001600160a01b03166395d89b416040518163ffffffff1660e01b815260040160006040518083038186803b15801561118d57600080fd5b505afa1580156111a1573d6000803e3d6000fd5b505050506040513d6000823e601f3d908101601f191682016040526111c99190810190612993565b90529392505050565b6001546001600160a01b031681565b6001546001600160a01b0316331461120b5760405162461bcd60e51b815260040161037290612eea565b6000805462010000600160b01b031916620100006001600160a01b038416021790556040517f48158d2f0abde90b13ae9358d35fefc13aaea2dfa5ca474989909a5da83c50e79061125d908390612c33565b60405180910390a150565b611270612502565b8261127c60038261226e565b6112985760405162461bcd60e51b815260040161037290612f91565b6002546001600160a01b03166112c05760405162461bcd60e51b815260040161037290612e97565b6040516370a0823160e01b815284906000906001600160a01b038316906370a08231906112f1908890600401612c33565b60206040518083038186803b15801561130957600080fd5b505afa15801561131d573d6000803e3d6000fd5b505050506040513d601f19601f820116820180604052508101906113419190612a06565b90506000826001600160a01b03166377c7b8fc6040518163ffffffff1660e01b815260040160206040518083038186803b15801561137e57600080fd5b505afa158015611392573d6000803e3d6000fd5b505050506040513d601f19601f820116820180604052508101906113b69190612a06565b90506000670de0b6b3a76400008383020490506040518060600160405280856001600160a01b031663fc0c546a6040518163ffffffff1660e01b815260040160206040518083038186803b15801561140d57600080fd5b505afa158015611421573d6000803e3d6000fd5b505050506040513d601f19601f820116820180604052508101906114459190612726565b6001600160a01b03168152602001828152602001600260009054906101000a90046001600160a01b03166001600160a01b03166351455934876001600160a01b031663fc0c546a6040518163ffffffff1660e01b815260040160206040518083038186803b1580156114b657600080fd5b505afa1580156114ca573d6000803e3d6000fd5b505050506040513d601f19601f820116820180604052508101906114ee9190612726565b856040518363ffffffff1660e01b815260040161150c929190612cef565b60206040518083038186803b15801561152457600080fd5b505afa158015611538573d6000803e3d6000fd5b505050506040513d601f19601f8201168201806040525081019061155c9190612a06565b905298975050505050505050565b6001546001600160a01b031633146115945760405162461bcd60e51b815260040161037290612eea565b600180546001600160a01b0319166001600160a01b0383161790556040517fa6a85f15b976d399f39ad43e515e75910bac714bc55eeff6131fb90780d6f7469061125d908390612c33565b61271081565b6060816115f360038261226e565b61160f5760405162461bcd60e51b815260040161037290612f91565b6002546001600160a01b03166116375760405162461bcd60e51b815260040161037290612e97565b60008390506000816001600160a01b031663a8c62e766040518163ffffffff1660e01b815260040160206040518083038186803b15801561167757600080fd5b505afa15801561168b573d6000803e3d6000fd5b505050506040513d601f19601f820116820180604052508101906116af9190612726565b90506060816001600160a01b03166284fc3c6040518163ffffffff1660e01b815260040160006040518083038186803b1580156116eb57600080fd5b505afa1580156116ff573d6000803e3d6000fd5b505050506040513d6000823e601f3d908101601f1916820160405261172791908101906128e3565b90506060815167ffffffffffffffff8111801561174357600080fd5b5060405190808252806020026020018201604052801561177d57816020015b61176a6125d4565b8152602001906001900390816117625790505b50905060005b8251811015611a385760025483516000916001600160a01b0316906351455934908690859081106117b057fe5b6020026020010151600001518685815181106117c857fe5b6020026020010151602001516040518363ffffffff1660e01b81526004016117f1929190612cef565b60206040518083038186803b15801561180957600080fd5b505afa15801561181d573d6000803e3d6000fd5b505050506040513d601f19601f820116820180604052508101906118419190612a06565b9050604051806080016040528061186e86858151811061185d57fe5b60200260200101516000015161105b565b815260200185848151811061187f57fe5b6020026020010151602001518152602001828152602001611a1583896001600160a01b031663b69ef8a86040518163ffffffff1660e01b815260040160206040518083038186803b1580156118d357600080fd5b505afa1580156118e7573d6000803e3d6000fd5b505050506040513d601f19601f8201168201806040525081019061190b9190612a06565b60008b6001600160a01b031663ecb9da776040518163ffffffff1660e01b815260040160206040518083038186803b15801561194657600080fd5b505afa15801561195a573d6000803e3d6000fd5b505050506040513d601f19601f8201168201806040525081019061197e9190612a06565b116119a4576001600160a01b038e1660009081526005602052604090206003015461031a565b8a6001600160a01b031663ecb9da776040518163ffffffff1660e01b815260040160206040518083038186803b1580156119dd57600080fd5b505afa1580156119f1573d6000803e3d6000fd5b505050506040513d601f19601f8201168201806040525081019061031a9190612a06565b815250838381518110611a2457fe5b602090810291909101015250600101611783565b509695505050505050565b6000546201000090046001600160a01b031681565b600054610100900460ff1680611a715750611a71612327565b80611a7f575060005460ff16155b611a9b5760405162461bcd60e51b815260040161037290612f43565b600054610100900460ff16158015611ac6576000805460ff1961ff0019909116610100171660011790555b600080546001600160a01b03808716620100000262010000600160b01b031990921691909117909155600180548583166001600160a01b03199182161790915560028054928516929091169190911790558015611b29576000805461ff00191690555b50505050565b606080611b3c600361228c565b67ffffffffffffffff81118015611b5257600080fd5b50604051908082528060200260200182016040528015611b7c578160200160208202803683370190505b50905060005b611b8c600361228c565b811015611bca57611b9e600382612297565b828281518110611baa57fe5b6001600160a01b0390921660209283029190910190910152600101611b82565b50905090565b6001546001600160a01b03163314611bfa5760405162461bcd60e51b815260040161037290612eea565b81611c0660038261226e565b611c225760405162461bcd60e51b815260040161037290612f91565b6001600160a01b038316600090815260056020526040902060018101805484919060ff60a01b1916600160a01b836002811115611c5b57fe5b0217905550826002811115611c6c57fe5b6040516001600160a01b038616907ff92e1ef2628cc3dd3ba0c57f85ab0bd84c9a05fa765c1a07c49bee1493d85dd790600090a350505050565b611cae6124aa565b82611cba60038261226e565b611cd65760405162461bcd60e51b815260040161037290612f91565b6000849050806001600160a01b0316631fe4a6866040518163ffffffff1660e01b815260040160206040518083038186803b158015611d1457600080fd5b505afa158015611d28573d6000803e3d6000fd5b505050506040513d601f19601f82011682018060405250810190611d4c9190612726565b6001600160a01b039081168452851660009081526005602090815260409091206001015490840190600160a01b900460ff166002811115611d8957fe5b90816002811115611d9657fe5b815250508483604001906001600160a01b031690816001600160a01b031681525050611e2c816001600160a01b031663fc0c546a6040518163ffffffff1660e01b815260040160206040518083038186803b158015611df457600080fd5b505afa158015611e08573d6000803e3d6000fd5b505050506040513d601f19601f820116820180604052508101906102219190612726565b8360600181905250806001600160a01b03166306fdde036040518163ffffffff1660e01b815260040160006040518083038186803b158015611e6d57600080fd5b505afa158015611e81573d6000803e3d6000fd5b505050506040513d6000823e601f3d908101601f19168201604052611ea99190810190612993565b8360800181905250806001600160a01b03166395d89b416040518163ffffffff1660e01b815260040160006040518083038186803b158015611eea57600080fd5b505afa158015611efe573d6000803e3d6000fd5b505050506040513d6000823e601f3d908101601f19168201604052611f269190810190612993565b60a08401526001600160a01b03841615611f4f57611f448585611268565b610100840152611f73565b60408051606081018252600080825260208201819052918101919091526101008401525b60006001600160a01b0316816001600160a01b031663a8c62e766040518163ffffffff1660e01b815260040160206040518083038186803b158015611fb757600080fd5b505afa158015611fcb573d6000803e3d6000fd5b505050506040513d601f19601f82011682018060405250810190611fef9190612726565b6001600160a01b03161415612005576000612076565b806001600160a01b031663b69ef8a86040518163ffffffff1660e01b815260040160206040518083038186803b15801561203e57600080fd5b505afa158015612052573d6000803e3d6000fd5b505050506040513d601f19601f820116820180604052508101906120769190612a06565b8360c001818152505060006001600160a01b0316816001600160a01b031663a8c62e766040518163ffffffff1660e01b815260040160206040518083038186803b1580156120c357600080fd5b505afa1580156120d7573d6000803e3d6000fd5b505050506040513d601f19601f820116820180604052508101906120fb9190612726565b6001600160a01b0316141561218d57604080516001808252818301909252606091816020015b6121296125d4565b8152602001906001900390816121215790505090506040518060800160405280612153600061105b565b8152602001600081526020016000815260200160008152508160008151811061217857fe5b602090810291909101015260e084015261219c565b612196856115e5565b60e08401525b505092915050565b60008083116121b5575060006121e6565b8142116121c4575060006121e6565b828242036301e187e0816121d457fe5b04612710860202816121e257fe5b0490505b9392505050565b670de0b6b3a764000081565b6001546001600160a01b031633146122235760405162461bcd60e51b815260040161037290612eea565b600280546001600160a01b0319166001600160a01b0383161790556040517fadf13a40d79f15f930d45864c000be196be659057551d7ae8700cc84826214259061125d908390612c33565b6000612283836001600160a01b038416612338565b90505b92915050565b600061228682612350565b60006122838383612354565b6000604051733d602d80600a3d3981f3363d3d373d3d3d363d7360601b81528260601b60148201526e5af43d82803e903d91602b57fd5bf360881b60288201526037816000f09150506001600160a01b038116610daf5760405162461bcd60e51b815260040161037290612f13565b6000612283836001600160a01b038416612399565b6000612332306123e3565b15905090565b60009081526001919091016020526040902054151590565b5490565b815460009082106123775760405162461bcd60e51b815260040161037290612e55565b82600001828154811061238657fe5b9060005260206000200154905092915050565b60006123a58383612338565b6123db57508154600181810184556000848152602080822090930184905584548482528286019093526040902091909155612286565b506000612286565b3b151590565b604080516102c08101909152600080825260208201908152602001606081526020016000815260200160006001600160a01b0316815260200161242a6125aa565b81526000602082018190526040820181905260608083018290526080830182905260a0830181905260c083015260e0820181905261010082018190526101208201819052610140820181905261016082015261018001612488612502565b8152602001600081526020016000815260200160008152602001606081525090565b604080516101208101909152600080825260208201908152600060208201526040016124d46125aa565b8152602001606081526020016060815260200160008152602001606081526020016124fd612502565b905290565b604051806060016040528060006001600160a01b0316815260200160008152602001600081525090565b828054600181600116156101000203166002900490600052602060002090601f016020900481019282601f1061256d57805160ff191683800117855561259a565b8280016001018555821561259a579182015b8281111561259a57825182559160200191906001019061257f565b506125a6929150612602565b5090565b604051806060016040528060006001600160a01b0316815260200160608152602001606081525090565b60405180608001604052806125e76125aa565b81526020016000815260200160008152602001600081525090565b5b808211156125a65760008155600101612603565b803561228681613231565b600082601f830112612632578081fd5b61263c60806131ad565b905080828460808501111561265057600080fd5b60005b6004811015612672578135835260209283019290910190600101612653565b50505092915050565b600082601f83011261268b578081fd5b813561269e612699826131d4565b6131ad565b91508082528360208285010111156126b557600080fd5b8060208401602084013760009082016020015292915050565b6000604082840312156126df578081fd5b6126e960406131ad565b905081516126f681613231565b808252506020820151602082015292915050565b60006020828403121561271b578081fd5b81356121e681613231565b600060208284031215612737578081fd5b81516121e681613231565b60008060408385031215612754578081fd5b823561275f81613231565b9150602083013561276f81613231565b809150509250929050565b60008060006060848603121561278e578081fd5b833561279981613231565b925060208401356127a981613231565b915060408401356127b981613231565b809150509250925092565b60008060008060008060008060006101808a8c0312156127e2578485fd5b6127ec8b8b612617565b98506127fb8b60208c01612617565b975061280a8b60408c01612617565b96506128198b60608c01612617565b95506128288b60808c01612617565b945060a08a013567ffffffffffffffff80821115612844578586fd5b6128508d838e0161267b565b955060c08c0135915080821115612865578485fd5b6128718d838e0161267b565b94506128808d60e08e01612622565b93506101608c0135915080821115612896578283fd5b506128a38c828d0161267b565b9150509295985092959850929598565b600080604083850312156128c5578182fd5b82356128d081613231565b915060208301356003811061276f578182fd5b600060208083850312156128f5578182fd5b825167ffffffffffffffff8082111561290c578384fd5b818501915085601f83011261291f578384fd5b81518181111561292d578485fd5b61293a84858302016131ad565b81815284810192508385016040808402860187018a1015612959578788fd5b8795505b838610156129855761296f8a836126ce565b855260019590950194938601939081019061295d565b509098975050505050505050565b6000602082840312156129a4578081fd5b815167ffffffffffffffff8111156129ba578182fd5b8201601f810184136129ca578182fd5b80516129d8612699826131d4565b8181528560208385010111156129ec578384fd5b6129fd8260208301602086016131f8565b95945050505050565b600060208284031215612a17578081fd5b5051919050565b600080600060608486031215612a32578283fd5b505081359360208301359350604090920135919050565b6001600160a01b03169052565b6000815180845260208085018081965082840281019150828601855b85811015612ac6578284038952815160808151818752612a9482880182612b2e565b83890151888a015260408085015190890152606093840151939097019290925250509784019790840190600101612a72565b5091979650505050505050565b612adc81613224565b9052565b60008151808452612af88160208601602086016131f8565b601f01601f19169290920160200192915050565b80516001600160a01b0316825260208082015190830152604090810151910152565b600060018060a01b038251168352602082015160606020850152612b556060850182612ae0565b9050604083015184820360408601526129fd8282612ae0565b6000610160612b7e848451612a49565b6020830151612b906020860182612ad3565b506040830151612ba36040860182612a49565b506060830151816060860152612bbb82860182612b2e565b91505060808301518482036080860152612bd58282612ae0565b91505060a083015184820360a0860152612bef8282612ae0565b91505060c083015160c085015260e083015184820360e0860152612c138282612a56565b91505061010080840151612c2982870182612b0c565b5090949350505050565b6001600160a01b0391909116815260200190565b60006101a060018060a01b03808e1684526020818e1681860152818d166040860152818c166060860152818b166080860152818a1660a086015281891660c08601528260e0860152612c9b83860189612ae0565b9250848303610100860152612cb08388612ae0565b93506101208501925085915060005b6004811015612cdc57825184529281019291810191600101612cbf565b505050509b9a5050505050505050505050565b6001600160a01b03929092168252602082015260400190565b6020808252825182820181905260009190848201906040850190845b81811015612d495783516001600160a01b031683529284019291840191600101612d24565b50909695505050505050565b6020808252825182820181905260009190848201906040850190845b81811015612d4957612d84838551612b0c565b9284019260609290920191600101612d71565b6000602082526122836020830184612a56565b6000602080830181845280855180835260408601915060408482028701019250838701855b82811015612dfd57603f19888603018452612deb858351612b6e565b94509285019290850190600101612dcf565b5092979650505050505050565b6001600160a01b038681168252851660208201526000612e2985613224565b84604083015260a06060830152612e4360a0830185612ae0565b90508260808301529695505050505050565b60208082526022908201527f456e756d657261626c655365743a20696e646578206f7574206f6620626f756e604082015261647360f01b606082015260800190565b6020808252600e908201526d373790383934b1b2a334b73232b960911b604082015260600190565b60208082526011908201527037379034b6b83632b6b2b73a30ba34b7b760791b604082015260600190565b6020808252600f908201526e6f6e6c7920676f7665726e616e636560881b604082015260600190565b602080825260169082015275115490cc4c4d8dce8818dc99585d194819985a5b195960521b604082015260600190565b6020808252602e908201527f496e697469616c697a61626c653a20636f6e747261637420697320616c72656160408201526d191e481a5b9a5d1a585b1a5e995960921b606082015260800190565b6020808252600f908201526e6e6f207661756c742065786973747360881b604082015260600190565b606081016122868284612b0c565b6000602082526122836020830184612b2e565b600060208252612fef602083018451612a49565b60208301516130016040840182612ad3565b50604083015161030080606085015261301e610320850183612ae0565b915060608501516080850152608085015161303c60a0860182612a49565b5060a0850151601f19808685030160c08701526130598483612b2e565b935060c0870151915061306f60e0870183612a49565b60e0870151915061010061308581880184612a49565b870151915061012061309987820184612a49565b87015191506101406130ad87820184612a49565b808801519250506101608187860301818801526130ca8584612ae0565b9450808801519250506101808187860301818801526130e98584612ae0565b908801516101a0888101919091528801516101c0808901919091528801516101e08089019190915288015161020080890191909152880151909450915061022061313581880184612a49565b870151915061024061314987820184612b0c565b8701516102a0878101919091526102608801516102c08801526102808801516102e08801528701518685039091018387015290506131878382612a56565b9695505050505050565b6000602082526122836020830184612b6e565b90815260200190565b60405181810167ffffffffffffffff811182821017156131cc57600080fd5b604052919050565b600067ffffffffffffffff8211156131ea578081fd5b50601f01601f191660200190565b60005b838110156132135781810151838201526020016131fb565b83811115611b295750506000910152565b6003811061322e57fe5b50565b6001600160a01b038116811461322e57600080fdfea264697066735822122035ff48bc32487b737d40e5f1353732905247428c53862645a1e359c9968c8efd64736f6c634300060c0033",
  "linkReferences": {},
  "deployedLinkReferences": {}
}