{
  "_format": "hh-sol-artifact-1",
  "contractName": "ChadgerRegistry",
  "sourceName": "contracts/ChadgerRegistry.sol",
  "abi": [
    {
      "anonymous": false,
      "inputs": [
        {
          "indexed": false,
          "internalType": "address",
          "name": "governance",
          "type": "address"
        }
      ],
      "name": "GovernanceChanged",
      "type": "event"
    },
    {
      "anonymous": false,
      "inputs": [
        {
          "indexed": false,
          "internalType": "address",
          "name": "priceFinder",
          "type": "address"
        }
      ],
      "name": "PriceFinderChanged",
      "type": "event"
    },
    {
      "anonymous": false,
      "inputs": [
        {
          "indexed": true,
          "internalType": "address",
          "name": "author",
          "type": "address"
        },
        {
          "indexed": true,
          "internalType": "address",
          "name": "vault",
          "type": "address"
        }
      ],
      "name": "VaultAdded",
      "type": "event"
    },
    {
      "anonymous": false,
      "inputs": [
        {
          "indexed": false,
          "internalType": "address",
          "name": "vaultImplementation",
          "type": "address"
        }
      ],
      "name": "VaultImplementationChanged",
      "type": "event"
    },
    {
      "anonymous": false,
      "inputs": [
        {
          "indexed": true,
          "internalType": "address",
          "name": "vaultAddress",
          "type": "address"
        },
        {
          "indexed": true,
          "internalType": "enum ChadgerRegistry.VaultStatus",
          "name": "status",
          "type": "uint8"
        }
      ],
      "name": "VaultStatusChanged",
      "type": "event"
    },
    {
      "inputs": [],
      "name": "ONE_ETH",
      "outputs": [
        {
          "internalType": "uint256",
          "name": "",
          "type": "uint256"
        }
      ],
      "stateMutability": "view",
      "type": "function"
    },
    {
      "inputs": [],
      "name": "ONE_YEAR",
      "outputs": [
        {
          "internalType": "uint256",
          "name": "",
          "type": "uint256"
        }
      ],
      "stateMutability": "view",
      "type": "function"
    },
    {
      "inputs": [],
      "name": "PERCENT_DENOMITATOR",
      "outputs": [
        {
          "internalType": "uint256",
          "name": "",
          "type": "uint256"
        }
      ],
      "stateMutability": "view",
      "type": "function"
    },
    {
      "inputs": [
        {
          "internalType": "address",
          "name": "_token",
          "type": "address"
        },
        {
          "internalType": "address",
          "name": "_keeper",
          "type": "address"
        },
        {
          "internalType": "address",
          "name": "_guardian",
          "type": "address"
        },
        {
          "internalType": "address",
          "name": "_treasury",
          "type": "address"
        },
        {
          "internalType": "address",
          "name": "_badgerTree",
          "type": "address"
        },
        {
          "internalType": "string",
          "name": "_name",
          "type": "string"
        },
        {
          "internalType": "string",
          "name": "_symbol",
          "type": "string"
        },
        {
          "internalType": "uint256[4]",
          "name": "_feeConfig",
          "type": "uint256[4]"
        },
        {
          "internalType": "string",
          "name": "_metaPointer",
          "type": "string"
        }
      ],
      "name": "addVault",
      "outputs": [],
      "stateMutability": "nonpayable",
      "type": "function"
    },
    {
      "inputs": [
        {
          "internalType": "uint256",
          "name": "_addon",
          "type": "uint256"
        },
        {
          "internalType": "uint256",
          "name": "_total",
          "type": "uint256"
        },
        {
          "internalType": "uint256",
          "name": "_startFrom",
          "type": "uint256"
        }
      ],
      "name": "calculateAPY",
      "outputs": [
        {
          "internalType": "uint256",
          "name": "",
          "type": "uint256"
        }
      ],
      "stateMutability": "view",
      "type": "function"
    },
    {
      "inputs": [
        {
          "internalType": "address",
          "name": "_governance",
          "type": "address"
        }
      ],
      "name": "changeGovernance",
      "outputs": [],
      "stateMutability": "nonpayable",
      "type": "function"
    },
    {
      "inputs": [
        {
          "internalType": "address",
          "name": "_priceFinder",
          "type": "address"
        }
      ],
      "name": "changePriceFinder",
      "outputs": [],
      "stateMutability": "nonpayable",
      "type": "function"
    },
    {
      "inputs": [
        {
          "internalType": "address",
          "name": "_vaultImplementation",
          "type": "address"
        }
      ],
      "name": "changeVaultImplementation",
      "outputs": [],
      "stateMutability": "nonpayable",
      "type": "function"
    },
    {
      "inputs": [
        {
          "internalType": "address",
          "name": "_vaultAddress",
          "type": "address"
        },
        {
          "internalType": "enum ChadgerRegistry.VaultStatus",
          "name": "_vaultStatus",
          "type": "uint8"
        }
      ],
      "name": "changeVaultStatus",
      "outputs": [],
      "stateMutability": "nonpayable",
      "type": "function"
    },
    {
      "inputs": [
        {
          "internalType": "address",
          "name": "_address",
          "type": "address"
        }
      ],
      "name": "getToken",
      "outputs": [
        {
          "components": [
            {
              "internalType": "address",
              "name": "tokenAddress",
              "type": "address"
            },
            {
              "internalType": "string",
              "name": "name",
              "type": "string"
            },
            {
              "internalType": "string",
              "name": "symbol",
              "type": "string"
            }
          ],
          "internalType": "struct ChadgerRegistry.Token",
          "name": "",
          "type": "tuple"
        }
      ],
      "stateMutability": "view",
      "type": "function"
    },
    {
      "inputs": [
        {
          "internalType": "address",
          "name": "_userAddrress",
          "type": "address"
        }
      ],
      "name": "getUserBalance",
      "outputs": [
        {
          "components": [
            {
              "internalType": "address",
              "name": "token",
              "type": "address"
            },
            {
              "internalType": "uint256",
              "name": "amount",
              "type": "uint256"
            },
            {
              "internalType": "uint256",
              "name": "usd",
              "type": "uint256"
            }
          ],
          "internalType": "struct ChadgerRegistry.TokenReport[]",
          "name": "",
          "type": "tuple[]"
        }
      ],
      "stateMutability": "view",
      "type": "function"
    },
    {
      "inputs": [
        {
          "internalType": "address",
          "name": "_vaultAddress",
          "type": "address"
        },
        {
          "internalType": "address",
          "name": "_userAddrress",
          "type": "address"
        }
      ],
      "name": "getUserVaultBalance",
      "outputs": [
        {
          "components": [
            {
              "internalType": "address",
              "name": "token",
              "type": "address"
            },
            {
              "internalType": "uint256",
              "name": "amount",
              "type": "uint256"
            },
            {
              "internalType": "uint256",
              "name": "usd",
              "type": "uint256"
            }
          ],
          "internalType": "struct ChadgerRegistry.TokenReport",
          "name": "report",
          "type": "tuple"
        }
      ],
      "stateMutability": "view",
      "type": "function"
    },
    {
      "inputs": [
        {
          "internalType": "address",
          "name": "_vaultAddress",
          "type": "address"
        }
      ],
      "name": "getVaultAPY",
      "outputs": [
        {
          "components": [
            {
              "internalType": "address",
              "name": "token",
              "type": "address"
            },
            {
              "internalType": "uint256",
              "name": "amount",
              "type": "uint256"
            },
            {
              "internalType": "uint256",
              "name": "usd",
              "type": "uint256"
            },
            {
              "internalType": "uint256",
              "name": "apy",
              "type": "uint256"
            }
          ],
          "internalType": "struct ChadgerRegistry.TokenRewardApyReport[]",
          "name": "",
          "type": "tuple[]"
        }
      ],
      "stateMutability": "view",
      "type": "function"
    },
    {
      "inputs": [
        {
          "internalType": "address",
          "name": "_vaultAddress",
          "type": "address"
        }
      ],
      "name": "getVaultDetails",
      "outputs": [
        {
          "components": [
            {
              "internalType": "address",
              "name": "strategist",
              "type": "address"
            },
            {
              "internalType": "enum ChadgerRegistry.VaultStatus",
              "name": "status",
              "type": "uint8"
            },
            {
              "internalType": "string",
              "name": "metaPointer",
              "type": "string"
            },
            {
              "internalType": "uint256",
              "name": "tvl",
              "type": "uint256"
            },
            {
              "internalType": "address",
              "name": "vaultAddress",
              "type": "address"
            },
            {
              "internalType": "address",
              "name": "token",
              "type": "address"
            },
            {
              "internalType": "address",
              "name": "keeper",
              "type": "address"
            },
            {
              "internalType": "address",
              "name": "guardian",
              "type": "address"
            },
            {
              "internalType": "address",
              "name": "treasury",
              "type": "address"
            },
            {
              "internalType": "address",
              "name": "badgerTree",
              "type": "address"
            },
            {
              "internalType": "string",
              "name": "name",
              "type": "string"
            },
            {
              "internalType": "string",
              "name": "symbol",
              "type": "string"
            },
            {
              "internalType": "uint256",
              "name": "performanceFeeGovernance",
              "type": "uint256"
            },
            {
              "internalType": "uint256",
              "name": "performanceFeeStrategist",
              "type": "uint256"
            },
            {
              "internalType": "uint256",
              "name": "withdrawalFee",
              "type": "uint256"
            },
            {
              "internalType": "uint256",
              "name": "managementFee",
              "type": "uint256"
            },
            {
              "internalType": "address",
              "name": "strategy",
              "type": "address"
            }
          ],
          "internalType": "struct ChadgerRegistry.VaultDetails",
          "name": "vaultDetails",
          "type": "tuple"
        }
      ],
      "stateMutability": "view",
      "type": "function"
    },
    {
      "inputs": [
        {
          "internalType": "address",
          "name": "_vaultAddress",
          "type": "address"
        }
      ],
      "name": "getVaultSummary",
      "outputs": [
        {
          "components": [
            {
              "internalType": "address",
              "name": "strategist",
              "type": "address"
            },
            {
              "internalType": "enum ChadgerRegistry.VaultStatus",
              "name": "status",
              "type": "uint8"
            },
            {
              "internalType": "address",
              "name": "vaultAddress",
              "type": "address"
            },
            {
              "components": [
                {
                  "internalType": "address",
                  "name": "tokenAddress",
                  "type": "address"
                },
                {
                  "internalType": "string",
                  "name": "name",
                  "type": "string"
                },
                {
                  "internalType": "string",
                  "name": "symbol",
                  "type": "string"
                }
              ],
              "internalType": "struct ChadgerRegistry.Token",
              "name": "token",
              "type": "tuple"
            },
            {
              "internalType": "string",
              "name": "name",
              "type": "string"
            },
            {
              "internalType": "string",
              "name": "symbol",
              "type": "string"
            },
            {
              "internalType": "uint256",
              "name": "tvl",
              "type": "uint256"
            },
            {
              "components": [
                {
                  "internalType": "address",
                  "name": "token",
                  "type": "address"
                },
                {
                  "internalType": "uint256",
                  "name": "amount",
                  "type": "uint256"
                },
                {
                  "internalType": "uint256",
                  "name": "usd",
                  "type": "uint256"
                },
                {
                  "internalType": "uint256",
                  "name": "apy",
                  "type": "uint256"
                }
              ],
              "internalType": "struct ChadgerRegistry.TokenRewardApyReport[]",
              "name": "apyReports",
              "type": "tuple[]"
            }
          ],
          "internalType": "struct ChadgerRegistry.VaultSummary",
          "name": "vaultSummary",
          "type": "tuple"
        }
      ],
      "stateMutability": "view",
      "type": "function"
    },
    {
      "inputs": [],
      "name": "getVaultsAddresses",
      "outputs": [
        {
          "internalType": "address[]",
          "name": "",
          "type": "address[]"
        }
      ],
      "stateMutability": "view",
      "type": "function"
    },
    {
      "inputs": [],
      "name": "governance",
      "outputs": [
        {
          "internalType": "address",
          "name": "",
          "type": "address"
        }
      ],
      "stateMutability": "view",
      "type": "function"
    },
    {
      "inputs": [
        {
          "internalType": "address",
          "name": "_vaultImplementation",
          "type": "address"
        },
        {
          "internalType": "address",
          "name": "_governance",
          "type": "address"
        },
        {
          "internalType": "address",
          "name": "_priceFinder",
          "type": "address"
        }
      ],
      "name": "initialize",
      "outputs": [],
      "stateMutability": "nonpayable",
      "type": "function"
    },
    {
      "inputs": [],
      "name": "priceFinder",
      "outputs": [
        {
          "internalType": "address",
          "name": "",
          "type": "address"
        }
      ],
      "stateMutability": "view",
      "type": "function"
    },
    {
      "inputs": [
        {
          "internalType": "address",
          "name": "",
          "type": "address"
        }
      ],
      "name": "registeries",
      "outputs": [
        {
          "internalType": "contract IVault",
          "name": "vault",
          "type": "address"
        },
        {
          "internalType": "address",
          "name": "strategist",
          "type": "address"
        },
        {
          "internalType": "enum ChadgerRegistry.VaultStatus",
          "name": "status",
          "type": "uint8"
        },
        {
          "internalType": "string",
          "name": "metaPointer",
          "type": "string"
        },
        {
          "internalType": "uint256",
          "name": "registredAt",
          "type": "uint256"
        }
      ],
      "stateMutability": "view",
      "type": "function"
    },
    {
      "inputs": [],
      "name": "vaultImplementation",
      "outputs": [
        {
          "internalType": "address",
          "name": "",
          "type": "address"
        }
      ],
      "stateMutability": "view",
      "type": "function"
    }
  ],
  "bytecode": "0x608060405234801561001057600080fd5b50612fa5806100206000396000f3fe608060405234801561001057600080fd5b50600436106101375760003560e01c8063979b7723116100b8578063c0c53b8b1161007c578063c0c53b8b146102a6578063cf08db92146102b9578063d3c1fd98146102ce578063e4c0c718146102e1578063ea3a4c60146102f4578063f7302e79146102fc57610137565b8063979b77231461024357806399572d6f14610263578063a6df253814610276578063ab9a88641461027e578063bba48a901461029e57610137565b806352a84cc6116100ff57806352a84cc6146101d357806359770438146101e85780635aa6e6751461020857806367a44ca31461021057806389e5f0e51461023057610137565b806316d3bfbb1461013c57806323c391301461015a5780632bb766d71461016f57806334640dea1461019357806347734892146101b3575b600080fd5b61014461030f565b6040516101519190612ead565b60405180910390f35b610162610317565b604051610151919061294b565b61018261017d366004612513565b610326565b604051610151959493929190612ac2565b6101a66101a1366004612513565b6103f0565b6040516101519190612deb565b6101c66101c1366004612513565b6108b2565b6040516101519190612a6d565b6101e66101e13660046125cd565b61098c565b005b6101fb6101f6366004612513565b610b62565b6040516101519190612c80565b610162610c81565b61022361021e366004612513565b610c90565b6040516101519190612c93565b6101e661023e366004612513565b6114ed565b61025661025136600461254b565b611574565b6040516101519190612c72565b6101e6610271366004612513565b611876565b6101446118eb565b61029161028c366004612513565b6118f1565b6040516101519190612aaf565b610162611d50565b6101e66102b4366004612583565b611d65565b6102c1611e3c565b6040516101519190612a20565b6101e66102dc3660046126bc565b611edd565b6101446102ef366004612815565b611fb3565b610144611ffc565b6101e661030a366004612513565b612008565b6301e187e081565b6002546001600160a01b031681565b60056020908152600091825260409182902080546001808301546002808501805488516101009582161595909502600019011691909104601f81018790048702840187019097528683526001600160a01b039384169693821695600160a01b90920460ff16949390918301828280156103e05780601f106103b5576101008083540402835291602001916103e0565b820191906000526020600020905b8154815290600101906020018083116103c357829003601f168201915b5050505050908060030154905085565b6103f86121f8565b8161040460038261207d565b6104295760405162461bcd60e51b815260040161042090612c49565b60405180910390fd5b6000839050806001600160a01b0316631fe4a6866040518163ffffffff1660e01b815260040160206040518083038186803b15801561046757600080fd5b505afa15801561047b573d6000803e3d6000fd5b505050506040513d601f19601f8201168201806040525081019061049f919061252f565b6001600160a01b039081168452841660009081526005602090815260409091206001015490840190600160a01b900460ff1660028111156104dc57fe5b908160028111156104e957fe5b815250508383604001906001600160a01b031690816001600160a01b03168152505061057f816001600160a01b031663fc0c546a6040518163ffffffff1660e01b815260040160206040518083038186803b15801561054757600080fd5b505afa15801561055b573d6000803e3d6000fd5b505050506040513d601f19601f820116820180604052508101906101f6919061252f565b8360600181905250806001600160a01b03166306fdde036040518163ffffffff1660e01b815260040160006040518083038186803b1580156105c057600080fd5b505afa1580156105d4573d6000803e3d6000fd5b505050506040513d6000823e601f3d908101601f191682016040526105fc919081019061278a565b8360800181905250806001600160a01b03166395d89b416040518163ffffffff1660e01b815260040160006040518083038186803b15801561063d57600080fd5b505afa158015610651573d6000803e3d6000fd5b505050506040513d6000823e601f3d908101601f19168201604052610679919081019061278a565b8360a0018190525060006001600160a01b0316816001600160a01b031663a8c62e766040518163ffffffff1660e01b815260040160206040518083038186803b1580156106c557600080fd5b505afa1580156106d9573d6000803e3d6000fd5b505050506040513d601f19601f820116820180604052508101906106fd919061252f565b6001600160a01b03161415610713576000610784565b806001600160a01b031663b69ef8a86040518163ffffffff1660e01b815260040160206040518083038186803b15801561074c57600080fd5b505afa158015610760573d6000803e3d6000fd5b505050506040513d601f19601f8201168201806040525081019061078491906127fd565b8360c001818152505060006001600160a01b0316816001600160a01b031663a8c62e766040518163ffffffff1660e01b815260040160206040518083038186803b1580156107d157600080fd5b505afa1580156107e5573d6000803e3d6000fd5b505050506040513d601f19601f82011682018060405250810190610809919061252f565b6001600160a01b0316141561089c57604080516001808252818301909252606091816020015b610837612244565b81526020019060019003908161082f579050509050604051806080016040528060006001600160a01b03168152602001600081526020016000815260200160008152508160008151811061088757fe5b602090810291909101015260e08401526108ab565b6108a5846118f1565b60e08401525b5050919050565b6002546060906001600160a01b03166108dd5760405162461bcd60e51b815260040161042090612b4f565b60606108e9600361209b565b67ffffffffffffffff811180156108ff57600080fd5b5060405190808252806020026020018201604052801561093957816020015b610926612275565b81526020019060019003908161091e5790505b50905060005b610949600361209b565b8110156109835761096461095e6003836120a6565b85611574565b82828151811061097057fe5b602090810291909101015260010161093f565b5090505b919050565b6000546201000090046001600160a01b03166109ba5760405162461bcd60e51b815260040161042090612b77565b600080546109d6906201000090046001600160a01b03166120b2565b60405163f7fec18160e01b81529091506001600160a01b0382169063f7fec18190610a17908d9033908e908e908e9084908f908f908f908f9060040161295f565b600060405180830381600087803b158015610a3157600080fd5b505af1158015610a45573d6000803e3d6000fd5b50505050610a5d81600361212190919063ffffffff16565b506040805160a0810182526001600160a01b0383168152336020820152908101600081526020808201859052426040928301526001600160a01b03808516600090815260058352839020845181549083166001600160a01b0319918216178255928501516001820180549190931693169290921780825592840151919260ff60a01b1916600160a01b836002811115610af257fe5b021790555060608201518051610b1291600284019160209091019061229f565b50608091909101516003909101556040516001600160a01b0382169033907f2f0697414292d16e25e419060ebbb3a3318648280380829ca42af307b155393b90600090a350505050505050505050565b610b6a61231d565b60008290506040518060600160405280846001600160a01b03168152602001826001600160a01b03166306fdde036040518163ffffffff1660e01b815260040160006040518083038186803b158015610bc257600080fd5b505afa158015610bd6573d6000803e3d6000fd5b505050506040513d6000823e601f3d908101601f19168201604052610bfe919081019061278a565b8152602001826001600160a01b03166395d89b416040518163ffffffff1660e01b815260040160006040518083038186803b158015610c3c57600080fd5b505afa158015610c50573d6000803e3d6000fd5b505050506040513d6000823e601f3d908101601f19168201604052610c78919081019061278a565b90529392505050565b6001546001600160a01b031681565b610c98612347565b81610ca460038261207d565b610cc05760405162461bcd60e51b815260040161042090612c49565b6001600160a01b0383166000908152600560209081526040909120600101548491840190600160a01b900460ff166002811115610cf957fe5b90816002811115610d0657fe5b9052506001600160a01b0384166000908152600560209081526040918290206002908101805484516001821615610100026000190190911692909204601f810184900484028301840190945283825290929091830182828015610daa5780601f10610d7f57610100808354040283529160200191610daa565b820191906000526020600020905b815481529060010190602001808311610d8d57829003601f168201915b50505050508360400181905250806001600160a01b031663a8c62e766040518163ffffffff1660e01b815260040160206040518083038186803b158015610df057600080fd5b505afa158015610e04573d6000803e3d6000fd5b505050506040513d601f19601f82011682018060405250810190610e28919061252f565b6001600160a01b03166102008401819052610e44576000610eb5565b806001600160a01b031663b69ef8a86040518163ffffffff1660e01b815260040160206040518083038186803b158015610e7d57600080fd5b505afa158015610e91573d6000803e3d6000fd5b505050506040513d601f19601f82011682018060405250810190610eb591906127fd565b836060018181525050806001600160a01b0316631fe4a6866040518163ffffffff1660e01b815260040160206040518083038186803b158015610ef757600080fd5b505afa158015610f0b573d6000803e3d6000fd5b505050506040513d601f19601f82011682018060405250810190610f2f919061252f565b6001600160a01b0390811684526040805163aced166160e01b815290519183169163aced166191600480820192602092909190829003018186803b158015610f7657600080fd5b505afa158015610f8a573d6000803e3d6000fd5b505050506040513d601f19601f82011682018060405250810190610fae919061252f565b8360c001906001600160a01b031690816001600160a01b031681525050806001600160a01b031663452a93206040518163ffffffff1660e01b815260040160206040518083038186803b15801561100457600080fd5b505afa158015611018573d6000803e3d6000fd5b505050506040513d601f19601f8201168201806040525081019061103c919061252f565b8360e001906001600160a01b031690816001600160a01b031681525050806001600160a01b03166361d027b36040518163ffffffff1660e01b815260040160206040518083038186803b15801561109257600080fd5b505afa1580156110a6573d6000803e3d6000fd5b505050506040513d601f19601f820116820180604052508101906110ca919061252f565b8361010001906001600160a01b031690816001600160a01b031681525050806001600160a01b031663894836956040518163ffffffff1660e01b815260040160206040518083038186803b15801561112157600080fd5b505afa158015611135573d6000803e3d6000fd5b505050506040513d601f19601f82011682018060405250810190611159919061252f565b6001600160a01b03908116610120850152848116608085015260408051637e062a3560e11b815290519183169163fc0c546a91600480820192602092909190829003018186803b1580156111ac57600080fd5b505afa1580156111c0573d6000803e3d6000fd5b505050506040513d601f19601f820116820180604052508101906111e4919061252f565b8360a001906001600160a01b031690816001600160a01b031681525050806001600160a01b03166306fdde036040518163ffffffff1660e01b815260040160006040518083038186803b15801561123a57600080fd5b505afa15801561124e573d6000803e3d6000fd5b505050506040513d6000823e601f3d908101601f19168201604052611276919081019061278a565b836101400181905250806001600160a01b03166395d89b416040518163ffffffff1660e01b815260040160006040518083038186803b1580156112b857600080fd5b505afa1580156112cc573d6000803e3d6000fd5b505050506040513d6000823e601f3d908101601f191682016040526112f4919081019061278a565b836101600181905250806001600160a01b03166315b18ddd6040518163ffffffff1660e01b815260040160206040518083038186803b15801561133657600080fd5b505afa15801561134a573d6000803e3d6000fd5b505050506040513d601f19601f8201168201806040525081019061136e91906127fd565b83610180018181525050806001600160a01b031663504a16476040518163ffffffff1660e01b815260040160206040518083038186803b1580156113b157600080fd5b505afa1580156113c5573d6000803e3d6000fd5b505050506040513d601f19601f820116820180604052508101906113e991906127fd565b836101a0018181525050806001600160a01b0316638bc7e8c46040518163ffffffff1660e01b815260040160206040518083038186803b15801561142c57600080fd5b505afa158015611440573d6000803e3d6000fd5b505050506040513d601f19601f8201168201806040525081019061146491906127fd565b836101c0018181525050806001600160a01b031663a6f7f5d66040518163ffffffff1660e01b815260040160206040518083038186803b1580156114a757600080fd5b505afa1580156114bb573d6000803e3d6000fd5b505050506040513d601f19601f820116820180604052508101906114df91906127fd565b6101e0840152509092915050565b6001546001600160a01b031633146115175760405162461bcd60e51b815260040161042090612ba2565b6000805462010000600160b01b031916620100006001600160a01b038416021790556040517f48158d2f0abde90b13ae9358d35fefc13aaea2dfa5ca474989909a5da83c50e79061156990839061294b565b60405180910390a150565b61157c612275565b8261158860038261207d565b6115a45760405162461bcd60e51b815260040161042090612c49565b6002546001600160a01b03166115cc5760405162461bcd60e51b815260040161042090612b4f565b6040516370a0823160e01b815284906000906001600160a01b038316906370a08231906115fd90889060040161294b565b60206040518083038186803b15801561161557600080fd5b505afa158015611629573d6000803e3d6000fd5b505050506040513d601f19601f8201168201806040525081019061164d91906127fd565b90506000826001600160a01b03166377c7b8fc6040518163ffffffff1660e01b815260040160206040518083038186803b15801561168a57600080fd5b505afa15801561169e573d6000803e3d6000fd5b505050506040513d601f19601f820116820180604052508101906116c291906127fd565b90506000670de0b6b3a76400008383020490506040518060600160405280856001600160a01b031663fc0c546a6040518163ffffffff1660e01b815260040160206040518083038186803b15801561171957600080fd5b505afa15801561172d573d6000803e3d6000fd5b505050506040513d601f19601f82011682018060405250810190611751919061252f565b6001600160a01b03168152602001828152602001600260009054906101000a90046001600160a01b03166001600160a01b03166351455934876001600160a01b031663fc0c546a6040518163ffffffff1660e01b815260040160206040518083038186803b1580156117c257600080fd5b505afa1580156117d6573d6000803e3d6000fd5b505050506040513d601f19601f820116820180604052508101906117fa919061252f565b856040518363ffffffff1660e01b8152600401611818929190612a07565b60206040518083038186803b15801561183057600080fd5b505afa158015611844573d6000803e3d6000fd5b505050506040513d601f19601f8201168201806040525081019061186891906127fd565b905298975050505050505050565b6001546001600160a01b031633146118a05760405162461bcd60e51b815260040161042090612ba2565b600180546001600160a01b0319166001600160a01b0383161790556040517fa6a85f15b976d399f39ad43e515e75910bac714bc55eeff6131fb90780d6f7469061156990839061294b565b61271081565b6060816118ff60038261207d565b61191b5760405162461bcd60e51b815260040161042090612c49565b6002546001600160a01b03166119435760405162461bcd60e51b815260040161042090612b4f565b60008390506000816001600160a01b031663a8c62e766040518163ffffffff1660e01b815260040160206040518083038186803b15801561198357600080fd5b505afa158015611997573d6000803e3d6000fd5b505050506040513d601f19601f820116820180604052508101906119bb919061252f565b90506060816001600160a01b03166284fc3c6040518163ffffffff1660e01b815260040160006040518083038186803b1580156119f757600080fd5b505afa158015611a0b573d6000803e3d6000fd5b505050506040513d6000823e601f3d908101601f19168201604052611a3391908101906126ec565b90506060815167ffffffffffffffff81118015611a4f57600080fd5b50604051908082528060200260200182016040528015611a8957816020015b611a76612244565b815260200190600190039081611a6e5790505b50905060005b8251811015611d455760025483516000916001600160a01b031690635145593490869085908110611abc57fe5b602002602001015160000151868581518110611ad457fe5b6020026020010151602001516040518363ffffffff1660e01b8152600401611afd929190612a07565b60206040518083038186803b158015611b1557600080fd5b505afa158015611b29573d6000803e3d6000fd5b505050506040513d601f19601f82011682018060405250810190611b4d91906127fd565b90506040518060800160405280858481518110611b6657fe5b6020026020010151600001516001600160a01b03168152602001858481518110611b8c57fe5b6020026020010151602001518152602001828152602001611d2283896001600160a01b031663b69ef8a86040518163ffffffff1660e01b815260040160206040518083038186803b158015611be057600080fd5b505afa158015611bf4573d6000803e3d6000fd5b505050506040513d601f19601f82011682018060405250810190611c1891906127fd565b60008b6001600160a01b031663ecb9da776040518163ffffffff1660e01b815260040160206040518083038186803b158015611c5357600080fd5b505afa158015611c67573d6000803e3d6000fd5b505050506040513d601f19601f82011682018060405250810190611c8b91906127fd565b11611cb1576001600160a01b038e166000908152600560205260409020600301546102ef565b8a6001600160a01b031663ecb9da776040518163ffffffff1660e01b815260040160206040518083038186803b158015611cea57600080fd5b505afa158015611cfe573d6000803e3d6000fd5b505050506040513d601f19601f820116820180604052508101906102ef91906127fd565b815250838381518110611d3157fe5b602090810291909101015250600101611a8f565b509695505050505050565b6000546201000090046001600160a01b031681565b600054610100900460ff1680611d7e5750611d7e612136565b80611d8c575060005460ff16155b611da85760405162461bcd60e51b815260040161042090612bfb565b600054610100900460ff16158015611dd3576000805460ff1961ff0019909116610100171660011790555b600080546001600160a01b03808716620100000262010000600160b01b031990921691909117909155600180548583166001600160a01b03199182161790915560028054928516929091169190911790558015611e36576000805461ff00191690555b50505050565b606080611e49600361209b565b67ffffffffffffffff81118015611e5f57600080fd5b50604051908082528060200260200182016040528015611e89578160200160208202803683370190505b50905060005b611e99600361209b565b811015611ed757611eab6003826120a6565b828281518110611eb757fe5b6001600160a01b0390921660209283029190910190910152600101611e8f565b50905090565b6001546001600160a01b03163314611f075760405162461bcd60e51b815260040161042090612ba2565b81611f1360038261207d565b611f2f5760405162461bcd60e51b815260040161042090612c49565b6001600160a01b038316600090815260056020526040902060018101805484919060ff60a01b1916600160a01b836002811115611f6857fe5b0217905550826002811115611f7957fe5b6040516001600160a01b038616907ff92e1ef2628cc3dd3ba0c57f85ab0bd84c9a05fa765c1a07c49bee1493d85dd790600090a350505050565b6000808311611fc457506000611ff5565b814211611fd357506000611ff5565b828242036301e187e081611fe357fe5b0461271086020281611ff157fe5b0490505b9392505050565b670de0b6b3a764000081565b6001546001600160a01b031633146120325760405162461bcd60e51b815260040161042090612ba2565b600280546001600160a01b0319166001600160a01b0383161790556040517fadf13a40d79f15f930d45864c000be196be659057551d7ae8700cc84826214259061156990839061294b565b6000612092836001600160a01b038416612147565b90505b92915050565b60006120958261215f565b60006120928383612163565b6000604051733d602d80600a3d3981f3363d3d373d3d3d363d7360601b81528260601b60148201526e5af43d82803e903d91602b57fd5bf360881b60288201526037816000f09150506001600160a01b0381166109875760405162461bcd60e51b815260040161042090612bcb565b6000612092836001600160a01b0384166121a8565b6000612141306121f2565b15905090565b60009081526001919091016020526040902054151590565b5490565b815460009082106121865760405162461bcd60e51b815260040161042090612b0d565b82600001828154811061219557fe5b9060005260206000200154905092915050565b60006121b48383612147565b6121ea57508154600181810184556000848152602080822090930184905584548482528286019093526040902091909155612095565b506000612095565b3b151590565b6040805161010081019091526000808252602082019081526000602082015260400161222261231d565b8152602001606081526020016060815260200160008152602001606081525090565b604051806080016040528060006001600160a01b031681526020016000815260200160008152602001600081525090565b604051806060016040528060006001600160a01b0316815260200160008152602001600081525090565b828054600181600116156101000203166002900490600052602060002090601f016020900481019282601f106122e057805160ff191683800117855561230d565b8280016001018555821561230d579182015b8281111561230d5782518255916020019190600101906122f2565b5061231992915061240b565b5090565b604051806060016040528060006001600160a01b0316815260200160608152602001606081525090565b604080516102208101909152600080825260208201908152602001606081526020016000815260200160006001600160a01b0316815260200160006001600160a01b0316815260200160006001600160a01b0316815260200160006001600160a01b0316815260200160006001600160a01b0316815260200160006001600160a01b0316815260200160608152602001606081526020016000815260200160008152602001600081526020016000815260200160006001600160a01b031681525090565b5b80821115612319576000815560010161240c565b803561209581612f5a565b600082601f83011261243b578081fd5b6124456080612eb6565b905080828460808501111561245957600080fd5b60005b600481101561247b57813583526020928301929091019060010161245c565b50505092915050565b600082601f830112612494578081fd5b81356124a76124a282612efd565b612eb6565b91508082528360208285010111156124be57600080fd5b8060208401602084013760009082016020015292915050565b6000604082840312156124e8578081fd5b6124f26040612eb6565b905081516124ff81612f5a565b808252506020820151602082015292915050565b600060208284031215612524578081fd5b8135611ff581612f5a565b600060208284031215612540578081fd5b8151611ff581612f5a565b6000806040838503121561255d578081fd5b823561256881612f5a565b9150602083013561257881612f5a565b809150509250929050565b600080600060608486031215612597578081fd5b83356125a281612f5a565b925060208401356125b281612f5a565b915060408401356125c281612f5a565b809150509250925092565b60008060008060008060008060006101808a8c0312156125eb578485fd5b6125f58b8b612420565b98506126048b60208c01612420565b97506126138b60408c01612420565b96506126228b60608c01612420565b95506126318b60808c01612420565b945060a08a013567ffffffffffffffff8082111561264d578586fd5b6126598d838e01612484565b955060c08c013591508082111561266e578485fd5b61267a8d838e01612484565b94506126898d60e08e0161242b565b93506101608c013591508082111561269f578283fd5b506126ac8c828d01612484565b9150509295985092959850929598565b600080604083850312156126ce578182fd5b82356126d981612f5a565b9150602083013560038110612578578182fd5b600060208083850312156126fe578182fd5b825167ffffffffffffffff811115612714578283fd5b8301601f81018513612724578283fd5b80516127326124a282612edd565b818152838101908385016040808502860187018a1015612750578788fd5b8795505b8486101561277c576127668a836124d7565b8452600195909501949286019290810190612754565b509098975050505050505050565b60006020828403121561279b578081fd5b815167ffffffffffffffff8111156127b1578182fd5b8201601f810184136127c1578182fd5b80516127cf6124a282612efd565b8181528560208385010111156127e3578384fd5b6127f4826020830160208601612f21565b95945050505050565b60006020828403121561280e578081fd5b5051919050565b600080600060608486031215612829578283fd5b505081359360208301359350604090920135919050565b6001600160a01b03169052565b6000815180845260208085019450808401835b838110156128a557815180516001600160a01b031688528381015184890152604080820151908901526060908101519088015260809096019590820190600101612860565b509495945050505050565b6128b981612f4d565b9052565b600081518084526128d5816020860160208601612f21565b601f01601f19169290920160200192915050565b80516001600160a01b0316825260208082015190830152604090810151910152565b600060018060a01b03825116835260208201516060602085015261293260608501826128bd565b9050604083015184820360408601526127f482826128bd565b6001600160a01b0391909116815260200190565b60006101a060018060a01b03808e1684526020818e1681860152818d166040860152818c166060860152818b166080860152818a1660a086015281891660c08601528260e08601526129b3838601896128bd565b92508483036101008601526129c883886128bd565b93506101208501925085915060005b60048110156129f4578251845292810192918101916001016129d7565b505050509b9a5050505050505050505050565b6001600160a01b03929092168252602082015260400190565b6020808252825182820181905260009190848201906040850190845b81811015612a615783516001600160a01b031683529284019291840191600101612a3c565b50909695505050505050565b6020808252825182820181905260009190848201906040850190845b81811015612a6157612a9c8385516128e9565b9284019260609290920191600101612a89565b600060208252612092602083018461284d565b6001600160a01b038681168252851660208201526000612ae185612f4d565b84604083015260a06060830152612afb60a08301856128bd565b90508260808301529695505050505050565b60208082526022908201527f456e756d657261626c655365743a20696e646578206f7574206f6620626f756e604082015261647360f01b606082015260800190565b6020808252600e908201526d373790383934b1b2a334b73232b960911b604082015260600190565b60208082526011908201527037379034b6b83632b6b2b73a30ba34b7b760791b604082015260600190565b6020808252600f908201526e6f6e6c7920676f7665726e616e636560881b604082015260600190565b602080825260169082015275115490cc4c4d8dce8818dc99585d194819985a5b195960521b604082015260600190565b6020808252602e908201527f496e697469616c697a61626c653a20636f6e747261637420697320616c72656160408201526d191e481a5b9a5d1a585b1a5e995960921b606082015260800190565b6020808252600f908201526e6e6f207661756c742065786973747360881b604082015260600190565b6060810161209582846128e9565b600060208252612092602083018461290b565b600060208252612ca7602083018451612840565b6020830151612cb960408401826128b0565b506040830151610220806060850152612cd66102408501836128bd565b9150606085015160808501526080850151612cf460a0860182612840565b5060a0850151612d0760c0860182612840565b5060c0850151612d1a60e0860182612840565b5060e0850151610100612d2f81870183612840565b8601519050610120612d4386820183612840565b8601519050610140612d5786820183612840565b80870151915050601f19610160818786030181880152612d7785846128bd565b945080880151925050610180818786030181880152612d9685846128bd565b908801516101a0888101919091528801516101c0808901919091528801516101e080890191909152880151610200808901919091528801519094509150612de1905082860182612840565b5090949350505050565b600060208252612dff602083018451612840565b6020830151612e1160408401826128b0565b506040830151612e246060840182612840565b506060830151610100806080850152612e4161012085018361290b565b91506080850151601f19808685030160a0870152612e5f84836128bd565b935060a08701519150808685030160c0870152612e7c84836128bd565b935060c087015160e087015260e0870151915080868503018387015250612ea3838261284d565b9695505050505050565b90815260200190565b60405181810167ffffffffffffffff81118282101715612ed557600080fd5b604052919050565b600067ffffffffffffffff821115612ef3578081fd5b5060209081020190565b600067ffffffffffffffff821115612f13578081fd5b50601f01601f191660200190565b60005b83811015612f3c578181015183820152602001612f24565b83811115611e365750506000910152565b60038110612f5757fe5b50565b6001600160a01b0381168114612f5757600080fdfea2646970667358221220adb3c94624e25fa2204b55152c2a5c87e249db3c4f0a74a4497d18fa68b94f2264736f6c634300060c0033",
  "linkReferences": {},
  "deployedLinkReferences": {}
}