{
  "_format": "hh-sol-artifact-1",
  "contractName": "ChadgerRegistry",
  "sourceName": "contracts/ChadgerRegistry.sol",
  "abi": [
    {
      "anonymous": false,
      "inputs": [
        {
          "indexed": false,
          "internalType": "address",
          "name": "governance",
          "type": "address"
        }
      ],
      "name": "GovernanceChanged",
      "type": "event"
    },
    {
      "anonymous": false,
      "inputs": [
        {
          "indexed": false,
          "internalType": "address",
          "name": "priceFinder",
          "type": "address"
        }
      ],
      "name": "PriceFinderChanged",
      "type": "event"
    },
    {
      "anonymous": false,
      "inputs": [
        {
          "indexed": true,
          "internalType": "address",
          "name": "author",
          "type": "address"
        },
        {
          "indexed": true,
          "internalType": "address",
          "name": "vault",
          "type": "address"
        }
      ],
      "name": "VaultAdded",
      "type": "event"
    },
    {
      "anonymous": false,
      "inputs": [
        {
          "indexed": false,
          "internalType": "address",
          "name": "vaultImplementation",
          "type": "address"
        }
      ],
      "name": "VaultImplementationChanged",
      "type": "event"
    },
    {
      "anonymous": false,
      "inputs": [
        {
          "indexed": true,
          "internalType": "address",
          "name": "vaultAddress",
          "type": "address"
        },
        {
          "indexed": true,
          "internalType": "enum ChadgerRegistry.VaultStatus",
          "name": "status",
          "type": "uint8"
        }
      ],
      "name": "VaultStatusChanged",
      "type": "event"
    },
    {
      "inputs": [],
      "name": "ONE_ETH",
      "outputs": [
        {
          "internalType": "uint256",
          "name": "",
          "type": "uint256"
        }
      ],
      "stateMutability": "view",
      "type": "function"
    },
    {
      "inputs": [],
      "name": "ONE_YEAR",
      "outputs": [
        {
          "internalType": "uint256",
          "name": "",
          "type": "uint256"
        }
      ],
      "stateMutability": "view",
      "type": "function"
    },
    {
      "inputs": [],
      "name": "PERCENT_DENOMITATOR",
      "outputs": [
        {
          "internalType": "uint256",
          "name": "",
          "type": "uint256"
        }
      ],
      "stateMutability": "view",
      "type": "function"
    },
    {
      "inputs": [
        {
          "internalType": "address",
          "name": "_token",
          "type": "address"
        },
        {
          "internalType": "address",
          "name": "_keeper",
          "type": "address"
        },
        {
          "internalType": "address",
          "name": "_guardian",
          "type": "address"
        },
        {
          "internalType": "address",
          "name": "_treasury",
          "type": "address"
        },
        {
          "internalType": "address",
          "name": "_badgerTree",
          "type": "address"
        },
        {
          "internalType": "string",
          "name": "_name",
          "type": "string"
        },
        {
          "internalType": "string",
          "name": "_symbol",
          "type": "string"
        },
        {
          "internalType": "uint256[4]",
          "name": "_feeConfig",
          "type": "uint256[4]"
        },
        {
          "internalType": "string",
          "name": "_metaPointer",
          "type": "string"
        }
      ],
      "name": "addVault",
      "outputs": [],
      "stateMutability": "nonpayable",
      "type": "function"
    },
    {
      "inputs": [
        {
          "internalType": "uint256",
          "name": "_addon",
          "type": "uint256"
        },
        {
          "internalType": "uint256",
          "name": "_total",
          "type": "uint256"
        },
        {
          "internalType": "uint256",
          "name": "_startFrom",
          "type": "uint256"
        }
      ],
      "name": "calculateAPY",
      "outputs": [
        {
          "internalType": "uint256",
          "name": "",
          "type": "uint256"
        }
      ],
      "stateMutability": "view",
      "type": "function"
    },
    {
      "inputs": [
        {
          "internalType": "address",
          "name": "_governance",
          "type": "address"
        }
      ],
      "name": "changeGovernance",
      "outputs": [],
      "stateMutability": "nonpayable",
      "type": "function"
    },
    {
      "inputs": [
        {
          "internalType": "address",
          "name": "_priceFinder",
          "type": "address"
        }
      ],
      "name": "changePriceFinder",
      "outputs": [],
      "stateMutability": "nonpayable",
      "type": "function"
    },
    {
      "inputs": [
        {
          "internalType": "address",
          "name": "_vaultImplementation",
          "type": "address"
        }
      ],
      "name": "changeVaultImplementation",
      "outputs": [],
      "stateMutability": "nonpayable",
      "type": "function"
    },
    {
      "inputs": [
        {
          "internalType": "address",
          "name": "_vaultAddress",
          "type": "address"
        },
        {
          "internalType": "enum ChadgerRegistry.VaultStatus",
          "name": "_vaultStatus",
          "type": "uint8"
        }
      ],
      "name": "changeVaultStatus",
      "outputs": [],
      "stateMutability": "nonpayable",
      "type": "function"
    },
    {
      "inputs": [
        {
          "internalType": "address",
          "name": "_address",
          "type": "address"
        }
      ],
      "name": "getToken",
      "outputs": [
        {
          "components": [
            {
              "internalType": "address",
              "name": "tokenAddress",
              "type": "address"
            },
            {
              "internalType": "string",
              "name": "name",
              "type": "string"
            },
            {
              "internalType": "string",
              "name": "symbol",
              "type": "string"
            }
          ],
          "internalType": "struct ChadgerRegistry.Token",
          "name": "",
          "type": "tuple"
        }
      ],
      "stateMutability": "view",
      "type": "function"
    },
    {
      "inputs": [
        {
          "internalType": "address",
          "name": "_userAddrress",
          "type": "address"
        }
      ],
      "name": "getUserBalance",
      "outputs": [
        {
          "components": [
            {
              "internalType": "address",
              "name": "token",
              "type": "address"
            },
            {
              "internalType": "uint256",
              "name": "amount",
              "type": "uint256"
            },
            {
              "internalType": "uint256",
              "name": "usd",
              "type": "uint256"
            }
          ],
          "internalType": "struct ChadgerRegistry.TokenReport[]",
          "name": "",
          "type": "tuple[]"
        }
      ],
      "stateMutability": "view",
      "type": "function"
    },
    {
      "inputs": [
        {
          "internalType": "address",
          "name": "_vaultAddress",
          "type": "address"
        },
        {
          "internalType": "address",
          "name": "_userAddrress",
          "type": "address"
        }
      ],
      "name": "getUserVaultBalance",
      "outputs": [
        {
          "components": [
            {
              "internalType": "address",
              "name": "token",
              "type": "address"
            },
            {
              "internalType": "uint256",
              "name": "amount",
              "type": "uint256"
            },
            {
              "internalType": "uint256",
              "name": "usd",
              "type": "uint256"
            }
          ],
          "internalType": "struct ChadgerRegistry.TokenReport",
          "name": "report",
          "type": "tuple"
        }
      ],
      "stateMutability": "view",
      "type": "function"
    },
    {
      "inputs": [
        {
          "internalType": "address",
          "name": "_vaultAddress",
          "type": "address"
        }
      ],
      "name": "getVaultAPY",
      "outputs": [
        {
          "components": [
            {
              "internalType": "address",
              "name": "token",
              "type": "address"
            },
            {
              "internalType": "uint256",
              "name": "amount",
              "type": "uint256"
            },
            {
              "internalType": "uint256",
              "name": "usd",
              "type": "uint256"
            },
            {
              "internalType": "uint256",
              "name": "apy",
              "type": "uint256"
            }
          ],
          "internalType": "struct ChadgerRegistry.TokenRewardApyReport[]",
          "name": "",
          "type": "tuple[]"
        }
      ],
      "stateMutability": "view",
      "type": "function"
    },
    {
      "inputs": [
        {
          "internalType": "address",
          "name": "_vaultAddress",
          "type": "address"
        }
      ],
      "name": "getVaultDetails",
      "outputs": [
        {
          "components": [
            {
              "internalType": "address",
              "name": "strategist",
              "type": "address"
            },
            {
              "internalType": "enum ChadgerRegistry.VaultStatus",
              "name": "status",
              "type": "uint8"
            },
            {
              "internalType": "string",
              "name": "metaPointer",
              "type": "string"
            },
            {
              "internalType": "uint256",
              "name": "tvl",
              "type": "uint256"
            },
            {
              "internalType": "address",
              "name": "vaultAddress",
              "type": "address"
            },
            {
              "internalType": "address",
              "name": "token",
              "type": "address"
            },
            {
              "internalType": "address",
              "name": "keeper",
              "type": "address"
            },
            {
              "internalType": "address",
              "name": "guardian",
              "type": "address"
            },
            {
              "internalType": "address",
              "name": "treasury",
              "type": "address"
            },
            {
              "internalType": "address",
              "name": "badgerTree",
              "type": "address"
            },
            {
              "internalType": "string",
              "name": "name",
              "type": "string"
            },
            {
              "internalType": "string",
              "name": "symbol",
              "type": "string"
            },
            {
              "internalType": "uint256",
              "name": "performanceFeeGovernance",
              "type": "uint256"
            },
            {
              "internalType": "uint256",
              "name": "performanceFeeStrategist",
              "type": "uint256"
            },
            {
              "internalType": "uint256",
              "name": "withdrawalFee",
              "type": "uint256"
            },
            {
              "internalType": "uint256",
              "name": "managementFee",
              "type": "uint256"
            },
            {
              "internalType": "address",
              "name": "strategy",
              "type": "address"
            }
          ],
          "internalType": "struct ChadgerRegistry.VaultDetails",
          "name": "vaultDetails",
          "type": "tuple"
        }
      ],
      "stateMutability": "view",
      "type": "function"
    },
    {
      "inputs": [
        {
          "internalType": "address",
          "name": "_vaultAddress",
          "type": "address"
        },
        {
          "internalType": "address",
          "name": "_userAddrress",
          "type": "address"
        }
      ],
      "name": "getVaultSummary",
      "outputs": [
        {
          "components": [
            {
              "internalType": "address",
              "name": "strategist",
              "type": "address"
            },
            {
              "internalType": "enum ChadgerRegistry.VaultStatus",
              "name": "status",
              "type": "uint8"
            },
            {
              "internalType": "address",
              "name": "vaultAddress",
              "type": "address"
            },
            {
              "components": [
                {
                  "internalType": "address",
                  "name": "tokenAddress",
                  "type": "address"
                },
                {
                  "internalType": "string",
                  "name": "name",
                  "type": "string"
                },
                {
                  "internalType": "string",
                  "name": "symbol",
                  "type": "string"
                }
              ],
              "internalType": "struct ChadgerRegistry.Token",
              "name": "token",
              "type": "tuple"
            },
            {
              "internalType": "string",
              "name": "name",
              "type": "string"
            },
            {
              "internalType": "string",
              "name": "symbol",
              "type": "string"
            },
            {
              "internalType": "uint256",
              "name": "tvl",
              "type": "uint256"
            },
            {
              "components": [
                {
                  "internalType": "address",
                  "name": "token",
                  "type": "address"
                },
                {
                  "internalType": "uint256",
                  "name": "amount",
                  "type": "uint256"
                },
                {
                  "internalType": "uint256",
                  "name": "usd",
                  "type": "uint256"
                },
                {
                  "internalType": "uint256",
                  "name": "apy",
                  "type": "uint256"
                }
              ],
              "internalType": "struct ChadgerRegistry.TokenRewardApyReport[]",
              "name": "apyReports",
              "type": "tuple[]"
            },
            {
              "components": [
                {
                  "internalType": "address",
                  "name": "token",
                  "type": "address"
                },
                {
                  "internalType": "uint256",
                  "name": "amount",
                  "type": "uint256"
                },
                {
                  "internalType": "uint256",
                  "name": "usd",
                  "type": "uint256"
                }
              ],
              "internalType": "struct ChadgerRegistry.TokenReport",
              "name": "deposits",
              "type": "tuple"
            }
          ],
          "internalType": "struct ChadgerRegistry.VaultSummary",
          "name": "vaultSummary",
          "type": "tuple"
        }
      ],
      "stateMutability": "view",
      "type": "function"
    },
    {
      "inputs": [],
      "name": "getVaultsAddresses",
      "outputs": [
        {
          "internalType": "address[]",
          "name": "",
          "type": "address[]"
        }
      ],
      "stateMutability": "view",
      "type": "function"
    },
    {
      "inputs": [
        {
          "internalType": "address",
          "name": "_userAddrress",
          "type": "address"
        }
      ],
      "name": "getVaultsSummary",
      "outputs": [
        {
          "components": [
            {
              "internalType": "address",
              "name": "strategist",
              "type": "address"
            },
            {
              "internalType": "enum ChadgerRegistry.VaultStatus",
              "name": "status",
              "type": "uint8"
            },
            {
              "internalType": "address",
              "name": "vaultAddress",
              "type": "address"
            },
            {
              "components": [
                {
                  "internalType": "address",
                  "name": "tokenAddress",
                  "type": "address"
                },
                {
                  "internalType": "string",
                  "name": "name",
                  "type": "string"
                },
                {
                  "internalType": "string",
                  "name": "symbol",
                  "type": "string"
                }
              ],
              "internalType": "struct ChadgerRegistry.Token",
              "name": "token",
              "type": "tuple"
            },
            {
              "internalType": "string",
              "name": "name",
              "type": "string"
            },
            {
              "internalType": "string",
              "name": "symbol",
              "type": "string"
            },
            {
              "internalType": "uint256",
              "name": "tvl",
              "type": "uint256"
            },
            {
              "components": [
                {
                  "internalType": "address",
                  "name": "token",
                  "type": "address"
                },
                {
                  "internalType": "uint256",
                  "name": "amount",
                  "type": "uint256"
                },
                {
                  "internalType": "uint256",
                  "name": "usd",
                  "type": "uint256"
                },
                {
                  "internalType": "uint256",
                  "name": "apy",
                  "type": "uint256"
                }
              ],
              "internalType": "struct ChadgerRegistry.TokenRewardApyReport[]",
              "name": "apyReports",
              "type": "tuple[]"
            },
            {
              "components": [
                {
                  "internalType": "address",
                  "name": "token",
                  "type": "address"
                },
                {
                  "internalType": "uint256",
                  "name": "amount",
                  "type": "uint256"
                },
                {
                  "internalType": "uint256",
                  "name": "usd",
                  "type": "uint256"
                }
              ],
              "internalType": "struct ChadgerRegistry.TokenReport",
              "name": "deposits",
              "type": "tuple"
            }
          ],
          "internalType": "struct ChadgerRegistry.VaultSummary[]",
          "name": "",
          "type": "tuple[]"
        }
      ],
      "stateMutability": "view",
      "type": "function"
    },
    {
      "inputs": [],
      "name": "governance",
      "outputs": [
        {
          "internalType": "address",
          "name": "",
          "type": "address"
        }
      ],
      "stateMutability": "view",
      "type": "function"
    },
    {
      "inputs": [
        {
          "internalType": "address",
          "name": "_vaultImplementation",
          "type": "address"
        },
        {
          "internalType": "address",
          "name": "_governance",
          "type": "address"
        },
        {
          "internalType": "address",
          "name": "_priceFinder",
          "type": "address"
        }
      ],
      "name": "initialize",
      "outputs": [],
      "stateMutability": "nonpayable",
      "type": "function"
    },
    {
      "inputs": [],
      "name": "priceFinder",
      "outputs": [
        {
          "internalType": "address",
          "name": "",
          "type": "address"
        }
      ],
      "stateMutability": "view",
      "type": "function"
    },
    {
      "inputs": [
        {
          "internalType": "address",
          "name": "",
          "type": "address"
        }
      ],
      "name": "registeries",
      "outputs": [
        {
          "internalType": "contract IVault",
          "name": "vault",
          "type": "address"
        },
        {
          "internalType": "address",
          "name": "strategist",
          "type": "address"
        },
        {
          "internalType": "enum ChadgerRegistry.VaultStatus",
          "name": "status",
          "type": "uint8"
        },
        {
          "internalType": "string",
          "name": "metaPointer",
          "type": "string"
        },
        {
          "internalType": "uint256",
          "name": "registredAt",
          "type": "uint256"
        }
      ],
      "stateMutability": "view",
      "type": "function"
    },
    {
      "inputs": [],
      "name": "vaultImplementation",
      "outputs": [
        {
          "internalType": "address",
          "name": "",
          "type": "address"
        }
      ],
      "stateMutability": "view",
      "type": "function"
    }
  ],
  "bytecode": "0x608060405234801561001057600080fd5b5061311c806100206000396000f3fe608060405234801561001057600080fd5b50600436106101425760003560e01c806399572d6f116100b8578063cf08db921161007c578063cf08db92146102c4578063d3c1fd98146102d9578063d81d3bac146102ec578063e4c0c7181461030c578063ea3a4c601461031f578063f7302e791461032757610142565b806399572d6f1461026e578063a6df253814610281578063ab9a886414610289578063bba48a90146102a9578063c0c53b8b146102b157610142565b806352a84cc61161010a57806352a84cc6146101de57806359770438146101f35780635aa6e6751461021357806367a44ca31461021b57806389e5f0e51461023b578063979b77231461024e57610142565b806316d3bfbb1461014757806323c39130146101655780632bb766d71461017a578063455480031461019e57806347734892146101be575b600080fd5b61014f61033a565b60405161015c919061304e565b60405180910390f35b61016d610342565b60405161015c9190612b44565b61018d610188366004612634565b610351565b60405161015c959493929190612d1b565b6101b16101ac366004612634565b61041b565b60405161015c9190612cbb565b6101d16101cc366004612634565b6104cb565b60405161015c9190612c66565b6101f16101ec3660046126ee565b6105a5565b005b610206610201366004612634565b61077b565b60405161015c9190612eda565b61016d61089a565b61022e610229366004612634565b6108a9565b60405161015c9190612eed565b6101f1610249366004612634565b611106565b61026161025c36600461266c565b61118d565b60405161015c9190612ecc565b6101f161027c366004612634565b61148f565b61014f611504565b61029c610297366004612634565b61150a565b60405161015c9190612ca8565b61016d611969565b6101f16102bf3660046126a4565b61197e565b6102cc611a55565b60405161015c9190612c19565b6101f16102e73660046127dd565b611af6565b6102ff6102fa36600461266c565b611bcc565b60405161015c919061303b565b61014f61031a366004612948565b6120cb565b61014f612114565b6101f1610335366004612634565b612120565b6301e187e081565b6002546001600160a01b031681565b60056020908152600091825260409182902080546001808301546002808501805488516101009582161595909502600019011691909104601f81018790048702840187019097528683526001600160a01b039384169693821695600160a01b90920460ff169493909183018282801561040b5780601f106103e05761010080835404028352916020019161040b565b820191906000526020600020905b8154815290600101906020018083116103ee57829003601f168201915b5050505050908060030154905085565b6060806104286003612195565b67ffffffffffffffff8111801561043e57600080fd5b5060405190808252806020026020018201604052801561047857816020015b61046561230d565b81526020019060019003908161045d5790505b50905060005b6104886003612195565b8110156104c2576104a361049d6003836121a6565b85611bcc565b8282815181106104af57fe5b602090810291909101015260010161047e565b5090505b919050565b6002546060906001600160a01b03166104ff5760405162461bcd60e51b81526004016104f690612da9565b60405180910390fd5b606061050b6003612195565b67ffffffffffffffff8111801561052157600080fd5b5060405190808252806020026020018201604052801561055b57816020015b610548612365565b8152602001906001900390816105405790505b50905060005b61056b6003612195565b8110156104c2576105866105806003836121a6565b8561118d565b82828151811061059257fe5b6020908102919091010152600101610561565b6000546201000090046001600160a01b03166105d35760405162461bcd60e51b81526004016104f690612dd1565b600080546105ef906201000090046001600160a01b03166121b2565b60405163f7fec18160e01b81529091506001600160a01b0382169063f7fec18190610630908d9033908e908e908e9084908f908f908f908f90600401612b58565b600060405180830381600087803b15801561064a57600080fd5b505af115801561065e573d6000803e3d6000fd5b5050505061067681600361222190919063ffffffff16565b506040805160a0810182526001600160a01b0383168152336020820152908101600081526020808201859052426040928301526001600160a01b03808516600090815260058352839020845181549083166001600160a01b0319918216178255928501516001820180549190931693169290921780825592840151919260ff60a01b1916600160a01b83600281111561070b57fe5b02179055506060820151805161072b91600284019160209091019061238f565b50608091909101516003909101556040516001600160a01b0382169033907f2f0697414292d16e25e419060ebbb3a3318648280380829ca42af307b155393b90600090a350505050505050505050565b61078361240d565b60008290506040518060600160405280846001600160a01b03168152602001826001600160a01b03166306fdde036040518163ffffffff1660e01b815260040160006040518083038186803b1580156107db57600080fd5b505afa1580156107ef573d6000803e3d6000fd5b505050506040513d6000823e601f3d908101601f1916820160405261081791908101906128bd565b8152602001826001600160a01b03166395d89b416040518163ffffffff1660e01b815260040160006040518083038186803b15801561085557600080fd5b505afa158015610869573d6000803e3d6000fd5b505050506040513d6000823e601f3d908101601f1916820160405261089191908101906128bd565b90529392505050565b6001546001600160a01b031681565b6108b1612437565b816108bd600382612236565b6108d95760405162461bcd60e51b81526004016104f690612ea3565b6001600160a01b0383166000908152600560209081526040909120600101548491840190600160a01b900460ff16600281111561091257fe5b9081600281111561091f57fe5b9052506001600160a01b0384166000908152600560209081526040918290206002908101805484516001821615610100026000190190911692909204601f8101849004840283018401909452838252909290918301828280156109c35780601f10610998576101008083540402835291602001916109c3565b820191906000526020600020905b8154815290600101906020018083116109a657829003601f168201915b50505050508360400181905250806001600160a01b031663a8c62e766040518163ffffffff1660e01b815260040160206040518083038186803b158015610a0957600080fd5b505afa158015610a1d573d6000803e3d6000fd5b505050506040513d601f19601f82011682018060405250810190610a419190612650565b6001600160a01b03166102008401819052610a5d576000610ace565b806001600160a01b031663b69ef8a86040518163ffffffff1660e01b815260040160206040518083038186803b158015610a9657600080fd5b505afa158015610aaa573d6000803e3d6000fd5b505050506040513d601f19601f82011682018060405250810190610ace9190612930565b836060018181525050806001600160a01b0316631fe4a6866040518163ffffffff1660e01b815260040160206040518083038186803b158015610b1057600080fd5b505afa158015610b24573d6000803e3d6000fd5b505050506040513d601f19601f82011682018060405250810190610b489190612650565b6001600160a01b0390811684526040805163aced166160e01b815290519183169163aced166191600480820192602092909190829003018186803b158015610b8f57600080fd5b505afa158015610ba3573d6000803e3d6000fd5b505050506040513d601f19601f82011682018060405250810190610bc79190612650565b8360c001906001600160a01b031690816001600160a01b031681525050806001600160a01b031663452a93206040518163ffffffff1660e01b815260040160206040518083038186803b158015610c1d57600080fd5b505afa158015610c31573d6000803e3d6000fd5b505050506040513d601f19601f82011682018060405250810190610c559190612650565b8360e001906001600160a01b031690816001600160a01b031681525050806001600160a01b03166361d027b36040518163ffffffff1660e01b815260040160206040518083038186803b158015610cab57600080fd5b505afa158015610cbf573d6000803e3d6000fd5b505050506040513d601f19601f82011682018060405250810190610ce39190612650565b8361010001906001600160a01b031690816001600160a01b031681525050806001600160a01b031663894836956040518163ffffffff1660e01b815260040160206040518083038186803b158015610d3a57600080fd5b505afa158015610d4e573d6000803e3d6000fd5b505050506040513d601f19601f82011682018060405250810190610d729190612650565b6001600160a01b03908116610120850152848116608085015260408051637e062a3560e11b815290519183169163fc0c546a91600480820192602092909190829003018186803b158015610dc557600080fd5b505afa158015610dd9573d6000803e3d6000fd5b505050506040513d601f19601f82011682018060405250810190610dfd9190612650565b8360a001906001600160a01b031690816001600160a01b031681525050806001600160a01b03166306fdde036040518163ffffffff1660e01b815260040160006040518083038186803b158015610e5357600080fd5b505afa158015610e67573d6000803e3d6000fd5b505050506040513d6000823e601f3d908101601f19168201604052610e8f91908101906128bd565b836101400181905250806001600160a01b03166395d89b416040518163ffffffff1660e01b815260040160006040518083038186803b158015610ed157600080fd5b505afa158015610ee5573d6000803e3d6000fd5b505050506040513d6000823e601f3d908101601f19168201604052610f0d91908101906128bd565b836101600181905250806001600160a01b03166315b18ddd6040518163ffffffff1660e01b815260040160206040518083038186803b158015610f4f57600080fd5b505afa158015610f63573d6000803e3d6000fd5b505050506040513d601f19601f82011682018060405250810190610f879190612930565b83610180018181525050806001600160a01b031663504a16476040518163ffffffff1660e01b815260040160206040518083038186803b158015610fca57600080fd5b505afa158015610fde573d6000803e3d6000fd5b505050506040513d601f19601f820116820180604052508101906110029190612930565b836101a0018181525050806001600160a01b0316638bc7e8c46040518163ffffffff1660e01b815260040160206040518083038186803b15801561104557600080fd5b505afa158015611059573d6000803e3d6000fd5b505050506040513d601f19601f8201168201806040525081019061107d9190612930565b836101c0018181525050806001600160a01b031663a6f7f5d66040518163ffffffff1660e01b815260040160206040518083038186803b1580156110c057600080fd5b505afa1580156110d4573d6000803e3d6000fd5b505050506040513d601f19601f820116820180604052508101906110f89190612930565b6101e0840152509092915050565b6001546001600160a01b031633146111305760405162461bcd60e51b81526004016104f690612dfc565b6000805462010000600160b01b031916620100006001600160a01b038416021790556040517f48158d2f0abde90b13ae9358d35fefc13aaea2dfa5ca474989909a5da83c50e790611182908390612b44565b60405180910390a150565b611195612365565b826111a1600382612236565b6111bd5760405162461bcd60e51b81526004016104f690612ea3565b6002546001600160a01b03166111e55760405162461bcd60e51b81526004016104f690612da9565b6040516370a0823160e01b815284906000906001600160a01b038316906370a0823190611216908890600401612b44565b60206040518083038186803b15801561122e57600080fd5b505afa158015611242573d6000803e3d6000fd5b505050506040513d601f19601f820116820180604052508101906112669190612930565b90506000826001600160a01b03166377c7b8fc6040518163ffffffff1660e01b815260040160206040518083038186803b1580156112a357600080fd5b505afa1580156112b7573d6000803e3d6000fd5b505050506040513d601f19601f820116820180604052508101906112db9190612930565b90506000670de0b6b3a76400008383020490506040518060600160405280856001600160a01b031663fc0c546a6040518163ffffffff1660e01b815260040160206040518083038186803b15801561133257600080fd5b505afa158015611346573d6000803e3d6000fd5b505050506040513d601f19601f8201168201806040525081019061136a9190612650565b6001600160a01b03168152602001828152602001600260009054906101000a90046001600160a01b03166001600160a01b03166351455934876001600160a01b031663fc0c546a6040518163ffffffff1660e01b815260040160206040518083038186803b1580156113db57600080fd5b505afa1580156113ef573d6000803e3d6000fd5b505050506040513d601f19601f820116820180604052508101906114139190612650565b856040518363ffffffff1660e01b8152600401611431929190612c00565b60206040518083038186803b15801561144957600080fd5b505afa15801561145d573d6000803e3d6000fd5b505050506040513d601f19601f820116820180604052508101906114819190612930565b905298975050505050505050565b6001546001600160a01b031633146114b95760405162461bcd60e51b81526004016104f690612dfc565b600180546001600160a01b0319166001600160a01b0383161790556040517fa6a85f15b976d399f39ad43e515e75910bac714bc55eeff6131fb90780d6f74690611182908390612b44565b61271081565b606081611518600382612236565b6115345760405162461bcd60e51b81526004016104f690612ea3565b6002546001600160a01b031661155c5760405162461bcd60e51b81526004016104f690612da9565b60008390506000816001600160a01b031663a8c62e766040518163ffffffff1660e01b815260040160206040518083038186803b15801561159c57600080fd5b505afa1580156115b0573d6000803e3d6000fd5b505050506040513d601f19601f820116820180604052508101906115d49190612650565b90506060816001600160a01b03166284fc3c6040518163ffffffff1660e01b815260040160006040518083038186803b15801561161057600080fd5b505afa158015611624573d6000803e3d6000fd5b505050506040513d6000823e601f3d908101601f1916820160405261164c919081019061280d565b90506060815167ffffffffffffffff8111801561166857600080fd5b506040519080825280602002602001820160405280156116a257816020015b61168f6124fb565b8152602001906001900390816116875790505b50905060005b825181101561195e5760025483516000916001600160a01b0316906351455934908690859081106116d557fe5b6020026020010151600001518685815181106116ed57fe5b6020026020010151602001516040518363ffffffff1660e01b8152600401611716929190612c00565b60206040518083038186803b15801561172e57600080fd5b505afa158015611742573d6000803e3d6000fd5b505050506040513d601f19601f820116820180604052508101906117669190612930565b9050604051806080016040528085848151811061177f57fe5b6020026020010151600001516001600160a01b031681526020018584815181106117a557fe5b602002602001015160200151815260200182815260200161193b83896001600160a01b031663b69ef8a86040518163ffffffff1660e01b815260040160206040518083038186803b1580156117f957600080fd5b505afa15801561180d573d6000803e3d6000fd5b505050506040513d601f19601f820116820180604052508101906118319190612930565b60008b6001600160a01b031663ecb9da776040518163ffffffff1660e01b815260040160206040518083038186803b15801561186c57600080fd5b505afa158015611880573d6000803e3d6000fd5b505050506040513d601f19601f820116820180604052508101906118a49190612930565b116118ca576001600160a01b038e1660009081526005602052604090206003015461031a565b8a6001600160a01b031663ecb9da776040518163ffffffff1660e01b815260040160206040518083038186803b15801561190357600080fd5b505afa158015611917573d6000803e3d6000fd5b505050506040513d601f19601f8201168201806040525081019061031a9190612930565b81525083838151811061194a57fe5b6020908102919091010152506001016116a8565b509695505050505050565b6000546201000090046001600160a01b031681565b600054610100900460ff1680611997575061199761224b565b806119a5575060005460ff16155b6119c15760405162461bcd60e51b81526004016104f690612e55565b600054610100900460ff161580156119ec576000805460ff1961ff0019909116610100171660011790555b600080546001600160a01b03808716620100000262010000600160b01b031990921691909117909155600180548583166001600160a01b03199182161790915560028054928516929091169190911790558015611a4f576000805461ff00191690555b50505050565b606080611a626003612195565b67ffffffffffffffff81118015611a7857600080fd5b50604051908082528060200260200182016040528015611aa2578160200160208202803683370190505b50905060005b611ab26003612195565b811015611af057611ac46003826121a6565b828281518110611ad057fe5b6001600160a01b0390921660209283029190910190910152600101611aa8565b50905090565b6001546001600160a01b03163314611b205760405162461bcd60e51b81526004016104f690612dfc565b81611b2c600382612236565b611b485760405162461bcd60e51b81526004016104f690612ea3565b6001600160a01b038316600090815260056020526040902060018101805484919060ff60a01b1916600160a01b836002811115611b8157fe5b0217905550826002811115611b9257fe5b6040516001600160a01b038616907ff92e1ef2628cc3dd3ba0c57f85ab0bd84c9a05fa765c1a07c49bee1493d85dd790600090a350505050565b611bd461230d565b82611be0600382612236565b611bfc5760405162461bcd60e51b81526004016104f690612ea3565b6000849050806001600160a01b0316631fe4a6866040518163ffffffff1660e01b815260040160206040518083038186803b158015611c3a57600080fd5b505afa158015611c4e573d6000803e3d6000fd5b505050506040513d601f19601f82011682018060405250810190611c729190612650565b6001600160a01b039081168452851660009081526005602090815260409091206001015490840190600160a01b900460ff166002811115611caf57fe5b90816002811115611cbc57fe5b815250508483604001906001600160a01b031690816001600160a01b031681525050611d52816001600160a01b031663fc0c546a6040518163ffffffff1660e01b815260040160206040518083038186803b158015611d1a57600080fd5b505afa158015611d2e573d6000803e3d6000fd5b505050506040513d601f19601f820116820180604052508101906102019190612650565b8360600181905250806001600160a01b03166306fdde036040518163ffffffff1660e01b815260040160006040518083038186803b158015611d9357600080fd5b505afa158015611da7573d6000803e3d6000fd5b505050506040513d6000823e601f3d908101601f19168201604052611dcf91908101906128bd565b8360800181905250806001600160a01b03166395d89b416040518163ffffffff1660e01b815260040160006040518083038186803b158015611e1057600080fd5b505afa158015611e24573d6000803e3d6000fd5b505050506040513d6000823e601f3d908101601f19168201604052611e4c91908101906128bd565b60a08401526001600160a01b03841615611e7557611e6a858561118d565b610100840152611e99565b60408051606081018252600080825260208201819052918101919091526101008401525b60006001600160a01b0316816001600160a01b031663a8c62e766040518163ffffffff1660e01b815260040160206040518083038186803b158015611edd57600080fd5b505afa158015611ef1573d6000803e3d6000fd5b505050506040513d601f19601f82011682018060405250810190611f159190612650565b6001600160a01b03161415611f2b576000611f9c565b806001600160a01b031663b69ef8a86040518163ffffffff1660e01b815260040160206040518083038186803b158015611f6457600080fd5b505afa158015611f78573d6000803e3d6000fd5b505050506040513d601f19601f82011682018060405250810190611f9c9190612930565b8360c001818152505060006001600160a01b0316816001600160a01b031663a8c62e766040518163ffffffff1660e01b815260040160206040518083038186803b158015611fe957600080fd5b505afa158015611ffd573d6000803e3d6000fd5b505050506040513d601f19601f820116820180604052508101906120219190612650565b6001600160a01b031614156120b457604080516001808252818301909252606091816020015b61204f6124fb565b815260200190600190039081612047579050509050604051806080016040528060006001600160a01b03168152602001600081526020016000815260200160008152508160008151811061209f57fe5b602090810291909101015260e08401526120c3565b6120bd8561150a565b60e08401525b505092915050565b60008083116120dc5750600061210d565b8142116120eb5750600061210d565b828242036301e187e0816120fb57fe5b046127108602028161210957fe5b0490505b9392505050565b670de0b6b3a764000081565b6001546001600160a01b0316331461214a5760405162461bcd60e51b81526004016104f690612dfc565b600280546001600160a01b0319166001600160a01b0383161790556040517fadf13a40d79f15f930d45864c000be196be659057551d7ae8700cc848262142590611182908390612b44565b60006121a08261225c565b92915050565b600061210d8383612260565b6000604051733d602d80600a3d3981f3363d3d373d3d3d363d7360601b81528260601b60148201526e5af43d82803e903d91602b57fd5bf360881b60288201526037816000f09150506001600160a01b0381166104c65760405162461bcd60e51b81526004016104f690612e25565b600061210d836001600160a01b0384166122a5565b600061210d836001600160a01b0384166122ef565b600061225630612307565b15905090565b5490565b815460009082106122835760405162461bcd60e51b81526004016104f690612d67565b82600001828154811061229257fe5b9060005260206000200154905092915050565b60006122b183836122ef565b6122e7575081546001818101845560008481526020808220909301849055845484825282860190935260409020919091556121a0565b5060006121a0565b60009081526001919091016020526040902054151590565b3b151590565b6040805161012081019091526000808252602082019081526000602082015260400161233761240d565b815260200160608152602001606081526020016000815260200160608152602001612360612365565b905290565b604051806060016040528060006001600160a01b0316815260200160008152602001600081525090565b828054600181600116156101000203166002900490600052602060002090601f016020900481019282601f106123d057805160ff19168380011785556123fd565b828001600101855582156123fd579182015b828111156123fd5782518255916020019190600101906123e2565b5061240992915061252c565b5090565b604051806060016040528060006001600160a01b0316815260200160608152602001606081525090565b604080516102208101909152600080825260208201908152602001606081526020016000815260200160006001600160a01b0316815260200160006001600160a01b0316815260200160006001600160a01b0316815260200160006001600160a01b0316815260200160006001600160a01b0316815260200160006001600160a01b0316815260200160608152602001606081526020016000815260200160008152602001600081526020016000815260200160006001600160a01b031681525090565b604051806080016040528060006001600160a01b031681526020016000815260200160008152602001600081525090565b5b80821115612409576000815560010161252d565b80356121a0816130ce565b600082601f83011261255c578081fd5b6125666080613057565b905080828460808501111561257a57600080fd5b60005b600481101561259c57813583526020928301929091019060010161257d565b50505092915050565b600082601f8301126125b5578081fd5b81356125c86125c38261307e565b613057565b91508082528360208285010111156125df57600080fd5b8060208401602084013760009082016020015292915050565b600060408284031215612609578081fd5b6126136040613057565b90508151612620816130ce565b808252506020820151602082015292915050565b600060208284031215612645578081fd5b813561210d816130ce565b600060208284031215612661578081fd5b815161210d816130ce565b6000806040838503121561267e578081fd5b8235612689816130ce565b91506020830135612699816130ce565b809150509250929050565b6000806000606084860312156126b8578081fd5b83356126c3816130ce565b925060208401356126d3816130ce565b915060408401356126e3816130ce565b809150509250925092565b60008060008060008060008060006101808a8c03121561270c578485fd5b6127168b8b612541565b98506127258b60208c01612541565b97506127348b60408c01612541565b96506127438b60608c01612541565b95506127528b60808c01612541565b945060a08a013567ffffffffffffffff8082111561276e578586fd5b61277a8d838e016125a5565b955060c08c013591508082111561278f578485fd5b61279b8d838e016125a5565b94506127aa8d60e08e0161254c565b93506101608c01359150808211156127c0578283fd5b506127cd8c828d016125a5565b9150509295985092959850929598565b600080604083850312156127ef578182fd5b82356127fa816130ce565b9150602083013560038110612699578182fd5b6000602080838503121561281f578182fd5b825167ffffffffffffffff80821115612836578384fd5b818501915085601f830112612849578384fd5b815181811115612857578485fd5b6128648485830201613057565b81815284810192508385016040808402860187018a1015612883578788fd5b8795505b838610156128af576128998a836125f8565b8552600195909501949386019390810190612887565b509098975050505050505050565b6000602082840312156128ce578081fd5b815167ffffffffffffffff8111156128e4578182fd5b8201601f810184136128f4578182fd5b80516129026125c38261307e565b818152856020838501011115612916578384fd5b6129278260208301602086016130a2565b95945050505050565b600060208284031215612941578081fd5b5051919050565b60008060006060848603121561295c578283fd5b505081359360208301359350604090920135919050565b6001600160a01b03169052565b6000815180845260208085019450808401835b838110156129d857815180516001600160a01b031688528381015184890152604080820151908901526060908101519088015260809096019590820190600101612993565b509495945050505050565b600381106129ed57fe5b9052565b60008151808452612a098160208601602086016130a2565b601f01601f19169290920160200192915050565b80516001600160a01b0316825260208082015190830152604090810151910152565b600060018060a01b038251168352602082015160606020850152612a6660608501826129f1565b90506040830151848203604086015261292782826129f1565b6000610160612a8f848451612973565b6020830151612aa160208601826129e3565b506040830151612ab46040860182612973565b506060830151816060860152612acc82860182612a3f565b91505060808301518482036080860152612ae682826129f1565b91505060a083015184820360a0860152612b0082826129f1565b91505060c083015160c085015260e083015184820360e0860152612b248282612980565b91505061010080840151612b3a82870182612a1d565b5090949350505050565b6001600160a01b0391909116815260200190565b60006101a060018060a01b03808e1684526020818e1681860152818d166040860152818c166060860152818b166080860152818a1660a086015281891660c08601528260e0860152612bac838601896129f1565b9250848303610100860152612bc183886129f1565b93506101208501925085915060005b6004811015612bed57825184529281019291810191600101612bd0565b505050509b9a5050505050505050505050565b6001600160a01b03929092168252602082015260400190565b6020808252825182820181905260009190848201906040850190845b81811015612c5a5783516001600160a01b031683529284019291840191600101612c35565b50909695505050505050565b6020808252825182820181905260009190848201906040850190845b81811015612c5a57612c95838551612a1d565b9284019260609290920191600101612c82565b60006020825261210d6020830184612980565b6000602080830181845280855180835260408601915060408482028701019250838701855b82811015612d0e57603f19888603018452612cfc858351612a7f565b94509285019290850190600101612ce0565b5092979650505050505050565b6001600160a01b03868116825285166020820152600060038510612d3b57fe5b84604083015260a06060830152612d5560a08301856129f1565b90508260808301529695505050505050565b60208082526022908201527f456e756d657261626c655365743a20696e646578206f7574206f6620626f756e604082015261647360f01b606082015260800190565b6020808252600e908201526d373790383934b1b2a334b73232b960911b604082015260600190565b60208082526011908201527037379034b6b83632b6b2b73a30ba34b7b760791b604082015260600190565b6020808252600f908201526e6f6e6c7920676f7665726e616e636560881b604082015260600190565b602080825260169082015275115490cc4c4d8dce8818dc99585d194819985a5b195960521b604082015260600190565b6020808252602e908201527f496e697469616c697a61626c653a20636f6e747261637420697320616c72656160408201526d191e481a5b9a5d1a585b1a5e995960921b606082015260800190565b6020808252600f908201526e6e6f207661756c742065786973747360881b604082015260600190565b606081016121a08284612a1d565b60006020825261210d6020830184612a3f565b600060208252612f01602083018451612973565b6020830151612f1360408401826129e3565b506040830151610220806060850152612f306102408501836129f1565b9150606085015160808501526080850151612f4e60a0860182612973565b5060a0850151612f6160c0860182612973565b5060c0850151612f7460e0860182612973565b5060e0850151610100612f8981870183612973565b8601519050610120612f9d86820183612973565b8601519050610140612fb186820183612973565b80870151915050601f19610160818786030181880152612fd185846129f1565b945080880151925050610180818786030181880152612ff085846129f1565b908801516101a0888101919091528801516101c0808901919091528801516101e080890191909152880151610200808901919091528801519094509150612b3a905082860182612973565b60006020825261210d6020830184612a7f565b90815260200190565b60405181810167ffffffffffffffff8111828210171561307657600080fd5b604052919050565b600067ffffffffffffffff821115613094578081fd5b50601f01601f191660200190565b60005b838110156130bd5781810151838201526020016130a5565b83811115611a4f5750506000910152565b6001600160a01b03811681146130e357600080fd5b5056fea2646970667358221220019c3f7e507ac77719099640e47d84d85d998188c329acad5a603fb166d01e5964736f6c634300060c0033",
  "linkReferences": {},
  "deployedLinkReferences": {}
}