{
  "_format": "hh-sol-artifact-1",
  "contractName": "ChadgerRegistry",
  "sourceName": "contracts/ChadgerRegistry.sol",
  "abi": [
    {
      "anonymous": false,
      "inputs": [
        {
          "indexed": false,
          "internalType": "address",
          "name": "governance",
          "type": "address"
        }
      ],
      "name": "GovernanceChanged",
      "type": "event"
    },
    {
      "anonymous": false,
      "inputs": [
        {
          "indexed": false,
          "internalType": "address",
          "name": "priceFinder",
          "type": "address"
        }
      ],
      "name": "PriceFinderChanged",
      "type": "event"
    },
    {
      "anonymous": false,
      "inputs": [
        {
          "indexed": true,
          "internalType": "address",
          "name": "author",
          "type": "address"
        },
        {
          "indexed": true,
          "internalType": "address",
          "name": "vault",
          "type": "address"
        }
      ],
      "name": "VaultAdded",
      "type": "event"
    },
    {
      "anonymous": false,
      "inputs": [
        {
          "indexed": false,
          "internalType": "address",
          "name": "vaultImplementation",
          "type": "address"
        }
      ],
      "name": "VaultImplementationChanged",
      "type": "event"
    },
    {
      "anonymous": false,
      "inputs": [
        {
          "indexed": true,
          "internalType": "address",
          "name": "vaultAddress",
          "type": "address"
        },
        {
          "indexed": true,
          "internalType": "enum ChadgerRegistry.VaultStatus",
          "name": "status",
          "type": "uint8"
        }
      ],
      "name": "VaultStatusChanged",
      "type": "event"
    },
    {
      "inputs": [],
      "name": "ONE_ETH",
      "outputs": [
        {
          "internalType": "uint256",
          "name": "",
          "type": "uint256"
        }
      ],
      "stateMutability": "view",
      "type": "function"
    },
    {
      "inputs": [],
      "name": "ONE_YEAR",
      "outputs": [
        {
          "internalType": "uint256",
          "name": "",
          "type": "uint256"
        }
      ],
      "stateMutability": "view",
      "type": "function"
    },
    {
      "inputs": [],
      "name": "PERCENT_DENOMITATOR",
      "outputs": [
        {
          "internalType": "uint256",
          "name": "",
          "type": "uint256"
        }
      ],
      "stateMutability": "view",
      "type": "function"
    },
    {
      "inputs": [
        {
          "internalType": "address",
          "name": "_token",
          "type": "address"
        },
        {
          "internalType": "address",
          "name": "_keeper",
          "type": "address"
        },
        {
          "internalType": "address",
          "name": "_guardian",
          "type": "address"
        },
        {
          "internalType": "address",
          "name": "_treasury",
          "type": "address"
        },
        {
          "internalType": "address",
          "name": "_badgerTree",
          "type": "address"
        },
        {
          "internalType": "string",
          "name": "_name",
          "type": "string"
        },
        {
          "internalType": "string",
          "name": "_symbol",
          "type": "string"
        },
        {
          "internalType": "uint256[4]",
          "name": "_feeConfig",
          "type": "uint256[4]"
        },
        {
          "internalType": "string",
          "name": "_metaPointer",
          "type": "string"
        }
      ],
      "name": "addVault",
      "outputs": [],
      "stateMutability": "nonpayable",
      "type": "function"
    },
    {
      "inputs": [
        {
          "internalType": "uint256",
          "name": "_addon",
          "type": "uint256"
        },
        {
          "internalType": "uint256",
          "name": "_total",
          "type": "uint256"
        },
        {
          "internalType": "uint256",
          "name": "_startFrom",
          "type": "uint256"
        }
      ],
      "name": "calculateAPY",
      "outputs": [
        {
          "internalType": "uint256",
          "name": "",
          "type": "uint256"
        }
      ],
      "stateMutability": "view",
      "type": "function"
    },
    {
      "inputs": [
        {
          "internalType": "address",
          "name": "_governance",
          "type": "address"
        }
      ],
      "name": "changeGovernance",
      "outputs": [],
      "stateMutability": "nonpayable",
      "type": "function"
    },
    {
      "inputs": [
        {
          "internalType": "address",
          "name": "_priceFinder",
          "type": "address"
        }
      ],
      "name": "changePriceFinder",
      "outputs": [],
      "stateMutability": "nonpayable",
      "type": "function"
    },
    {
      "inputs": [
        {
          "internalType": "address",
          "name": "_vaultImplementation",
          "type": "address"
        }
      ],
      "name": "changeVaultImplementation",
      "outputs": [],
      "stateMutability": "nonpayable",
      "type": "function"
    },
    {
      "inputs": [
        {
          "internalType": "address",
          "name": "_vaultAddress",
          "type": "address"
        },
        {
          "internalType": "enum ChadgerRegistry.VaultStatus",
          "name": "_vaultStatus",
          "type": "uint8"
        }
      ],
      "name": "changeVaultStatus",
      "outputs": [],
      "stateMutability": "nonpayable",
      "type": "function"
    },
    {
      "inputs": [],
      "name": "getAllStrategists",
      "outputs": [
        {
          "internalType": "address[]",
          "name": "",
          "type": "address[]"
        }
      ],
      "stateMutability": "view",
      "type": "function"
    },
    {
      "inputs": [
        {
          "internalType": "address",
          "name": "_userAddrress",
          "type": "address"
        }
      ],
      "name": "getAllStrategistsWithVaults",
      "outputs": [
        {
          "components": [
            {
              "internalType": "address",
              "name": "strategist",
              "type": "address"
            },
            {
              "components": [
                {
                  "internalType": "address",
                  "name": "strategist",
                  "type": "address"
                },
                {
                  "internalType": "enum ChadgerRegistry.VaultStatus",
                  "name": "status",
                  "type": "uint8"
                },
                {
                  "internalType": "address",
                  "name": "vaultAddress",
                  "type": "address"
                },
                {
                  "components": [
                    {
                      "internalType": "address",
                      "name": "tokenAddress",
                      "type": "address"
                    },
                    {
                      "internalType": "string",
                      "name": "name",
                      "type": "string"
                    },
                    {
                      "internalType": "string",
                      "name": "symbol",
                      "type": "string"
                    }
                  ],
                  "internalType": "struct ChadgerRegistry.Token",
                  "name": "token",
                  "type": "tuple"
                },
                {
                  "internalType": "string",
                  "name": "name",
                  "type": "string"
                },
                {
                  "internalType": "string",
                  "name": "symbol",
                  "type": "string"
                },
                {
                  "internalType": "uint256",
                  "name": "tvl",
                  "type": "uint256"
                },
                {
                  "components": [
                    {
                      "components": [
                        {
                          "internalType": "address",
                          "name": "tokenAddress",
                          "type": "address"
                        },
                        {
                          "internalType": "string",
                          "name": "name",
                          "type": "string"
                        },
                        {
                          "internalType": "string",
                          "name": "symbol",
                          "type": "string"
                        }
                      ],
                      "internalType": "struct ChadgerRegistry.Token",
                      "name": "token",
                      "type": "tuple"
                    },
                    {
                      "internalType": "uint256",
                      "name": "amount",
                      "type": "uint256"
                    },
                    {
                      "internalType": "uint256",
                      "name": "usd",
                      "type": "uint256"
                    },
                    {
                      "internalType": "uint256",
                      "name": "apy",
                      "type": "uint256"
                    }
                  ],
                  "internalType": "struct ChadgerRegistry.TokenRewardApyReport[]",
                  "name": "apyReports",
                  "type": "tuple[]"
                },
                {
                  "components": [
                    {
                      "internalType": "address",
                      "name": "token",
                      "type": "address"
                    },
                    {
                      "internalType": "uint256",
                      "name": "amount",
                      "type": "uint256"
                    },
                    {
                      "internalType": "uint256",
                      "name": "usd",
                      "type": "uint256"
                    }
                  ],
                  "internalType": "struct ChadgerRegistry.TokenReport",
                  "name": "deposits",
                  "type": "tuple"
                }
              ],
              "internalType": "struct ChadgerRegistry.VaultSummary[]",
              "name": "vaults",
              "type": "tuple[]"
            }
          ],
          "internalType": "struct ChadgerRegistry.StrategistWithVaults[]",
          "name": "",
          "type": "tuple[]"
        }
      ],
      "stateMutability": "view",
      "type": "function"
    },
    {
      "inputs": [
        {
          "internalType": "address",
          "name": "_strategist",
          "type": "address"
        },
        {
          "internalType": "address",
          "name": "_userAddrress",
          "type": "address"
        }
      ],
      "name": "getStrategistVaults",
      "outputs": [
        {
          "components": [
            {
              "internalType": "address",
              "name": "strategist",
              "type": "address"
            },
            {
              "components": [
                {
                  "internalType": "address",
                  "name": "strategist",
                  "type": "address"
                },
                {
                  "internalType": "enum ChadgerRegistry.VaultStatus",
                  "name": "status",
                  "type": "uint8"
                },
                {
                  "internalType": "address",
                  "name": "vaultAddress",
                  "type": "address"
                },
                {
                  "components": [
                    {
                      "internalType": "address",
                      "name": "tokenAddress",
                      "type": "address"
                    },
                    {
                      "internalType": "string",
                      "name": "name",
                      "type": "string"
                    },
                    {
                      "internalType": "string",
                      "name": "symbol",
                      "type": "string"
                    }
                  ],
                  "internalType": "struct ChadgerRegistry.Token",
                  "name": "token",
                  "type": "tuple"
                },
                {
                  "internalType": "string",
                  "name": "name",
                  "type": "string"
                },
                {
                  "internalType": "string",
                  "name": "symbol",
                  "type": "string"
                },
                {
                  "internalType": "uint256",
                  "name": "tvl",
                  "type": "uint256"
                },
                {
                  "components": [
                    {
                      "components": [
                        {
                          "internalType": "address",
                          "name": "tokenAddress",
                          "type": "address"
                        },
                        {
                          "internalType": "string",
                          "name": "name",
                          "type": "string"
                        },
                        {
                          "internalType": "string",
                          "name": "symbol",
                          "type": "string"
                        }
                      ],
                      "internalType": "struct ChadgerRegistry.Token",
                      "name": "token",
                      "type": "tuple"
                    },
                    {
                      "internalType": "uint256",
                      "name": "amount",
                      "type": "uint256"
                    },
                    {
                      "internalType": "uint256",
                      "name": "usd",
                      "type": "uint256"
                    },
                    {
                      "internalType": "uint256",
                      "name": "apy",
                      "type": "uint256"
                    }
                  ],
                  "internalType": "struct ChadgerRegistry.TokenRewardApyReport[]",
                  "name": "apyReports",
                  "type": "tuple[]"
                },
                {
                  "components": [
                    {
                      "internalType": "address",
                      "name": "token",
                      "type": "address"
                    },
                    {
                      "internalType": "uint256",
                      "name": "amount",
                      "type": "uint256"
                    },
                    {
                      "internalType": "uint256",
                      "name": "usd",
                      "type": "uint256"
                    }
                  ],
                  "internalType": "struct ChadgerRegistry.TokenReport",
                  "name": "deposits",
                  "type": "tuple"
                }
              ],
              "internalType": "struct ChadgerRegistry.VaultSummary[]",
              "name": "vaults",
              "type": "tuple[]"
            }
          ],
          "internalType": "struct ChadgerRegistry.StrategistWithVaults",
          "name": "",
          "type": "tuple"
        }
      ],
      "stateMutability": "view",
      "type": "function"
    },
    {
      "inputs": [
        {
          "internalType": "address",
          "name": "_address",
          "type": "address"
        }
      ],
      "name": "getToken",
      "outputs": [
        {
          "components": [
            {
              "internalType": "address",
              "name": "tokenAddress",
              "type": "address"
            },
            {
              "internalType": "string",
              "name": "name",
              "type": "string"
            },
            {
              "internalType": "string",
              "name": "symbol",
              "type": "string"
            }
          ],
          "internalType": "struct ChadgerRegistry.Token",
          "name": "",
          "type": "tuple"
        }
      ],
      "stateMutability": "view",
      "type": "function"
    },
    {
      "inputs": [
        {
          "internalType": "address",
          "name": "_userAddrress",
          "type": "address"
        }
      ],
      "name": "getUserBalance",
      "outputs": [
        {
          "components": [
            {
              "internalType": "address",
              "name": "token",
              "type": "address"
            },
            {
              "internalType": "uint256",
              "name": "amount",
              "type": "uint256"
            },
            {
              "internalType": "uint256",
              "name": "usd",
              "type": "uint256"
            }
          ],
          "internalType": "struct ChadgerRegistry.TokenReport[]",
          "name": "",
          "type": "tuple[]"
        }
      ],
      "stateMutability": "view",
      "type": "function"
    },
    {
      "inputs": [
        {
          "internalType": "address",
          "name": "_vaultAddress",
          "type": "address"
        },
        {
          "internalType": "address",
          "name": "_userAddrress",
          "type": "address"
        }
      ],
      "name": "getUserVaultBalance",
      "outputs": [
        {
          "components": [
            {
              "internalType": "address",
              "name": "token",
              "type": "address"
            },
            {
              "internalType": "uint256",
              "name": "amount",
              "type": "uint256"
            },
            {
              "internalType": "uint256",
              "name": "usd",
              "type": "uint256"
            }
          ],
          "internalType": "struct ChadgerRegistry.TokenReport",
          "name": "report",
          "type": "tuple"
        }
      ],
      "stateMutability": "view",
      "type": "function"
    },
    {
      "inputs": [
        {
          "internalType": "address",
          "name": "_vaultAddress",
          "type": "address"
        }
      ],
      "name": "getVaultAPY",
      "outputs": [
        {
          "components": [
            {
              "components": [
                {
                  "internalType": "address",
                  "name": "tokenAddress",
                  "type": "address"
                },
                {
                  "internalType": "string",
                  "name": "name",
                  "type": "string"
                },
                {
                  "internalType": "string",
                  "name": "symbol",
                  "type": "string"
                }
              ],
              "internalType": "struct ChadgerRegistry.Token",
              "name": "token",
              "type": "tuple"
            },
            {
              "internalType": "uint256",
              "name": "amount",
              "type": "uint256"
            },
            {
              "internalType": "uint256",
              "name": "usd",
              "type": "uint256"
            },
            {
              "internalType": "uint256",
              "name": "apy",
              "type": "uint256"
            }
          ],
          "internalType": "struct ChadgerRegistry.TokenRewardApyReport[]",
          "name": "",
          "type": "tuple[]"
        }
      ],
      "stateMutability": "view",
      "type": "function"
    },
    {
      "inputs": [
        {
          "internalType": "address",
          "name": "_vaultAddress",
          "type": "address"
        },
        {
          "internalType": "address",
          "name": "_userAddrress",
          "type": "address"
        }
      ],
      "name": "getVaultDetails",
      "outputs": [
        {
          "components": [
            {
              "internalType": "address",
              "name": "strategist",
              "type": "address"
            },
            {
              "internalType": "enum ChadgerRegistry.VaultStatus",
              "name": "status",
              "type": "uint8"
            },
            {
              "internalType": "string",
              "name": "metaPointer",
              "type": "string"
            },
            {
              "internalType": "uint256",
              "name": "tvl",
              "type": "uint256"
            },
            {
              "internalType": "address",
              "name": "vaultAddress",
              "type": "address"
            },
            {
              "components": [
                {
                  "internalType": "address",
                  "name": "tokenAddress",
                  "type": "address"
                },
                {
                  "internalType": "string",
                  "name": "name",
                  "type": "string"
                },
                {
                  "internalType": "string",
                  "name": "symbol",
                  "type": "string"
                }
              ],
              "internalType": "struct ChadgerRegistry.Token",
              "name": "token",
              "type": "tuple"
            },
            {
              "internalType": "address",
              "name": "keeper",
              "type": "address"
            },
            {
              "internalType": "address",
              "name": "guardian",
              "type": "address"
            },
            {
              "internalType": "address",
              "name": "treasury",
              "type": "address"
            },
            {
              "internalType": "address",
              "name": "badgerTree",
              "type": "address"
            },
            {
              "internalType": "string",
              "name": "name",
              "type": "string"
            },
            {
              "internalType": "string",
              "name": "symbol",
              "type": "string"
            },
            {
              "internalType": "uint256",
              "name": "performanceFeeGovernance",
              "type": "uint256"
            },
            {
              "internalType": "uint256",
              "name": "performanceFeeStrategist",
              "type": "uint256"
            },
            {
              "internalType": "uint256",
              "name": "withdrawalFee",
              "type": "uint256"
            },
            {
              "internalType": "uint256",
              "name": "managementFee",
              "type": "uint256"
            },
            {
              "internalType": "address",
              "name": "strategy",
              "type": "address"
            },
            {
              "components": [
                {
                  "internalType": "address",
                  "name": "token",
                  "type": "address"
                },
                {
                  "internalType": "uint256",
                  "name": "amount",
                  "type": "uint256"
                },
                {
                  "internalType": "uint256",
                  "name": "usd",
                  "type": "uint256"
                }
              ],
              "internalType": "struct ChadgerRegistry.TokenReport",
              "name": "deposits",
              "type": "tuple"
            },
            {
              "internalType": "uint256",
              "name": "lifeTimeEarned",
              "type": "uint256"
            },
            {
              "internalType": "uint256",
              "name": "lastHarvestedAt",
              "type": "uint256"
            },
            {
              "internalType": "uint256",
              "name": "lastHarvestAmount",
              "type": "uint256"
            },
            {
              "components": [
                {
                  "components": [
                    {
                      "internalType": "address",
                      "name": "tokenAddress",
                      "type": "address"
                    },
                    {
                      "internalType": "string",
                      "name": "name",
                      "type": "string"
                    },
                    {
                      "internalType": "string",
                      "name": "symbol",
                      "type": "string"
                    }
                  ],
                  "internalType": "struct ChadgerRegistry.Token",
                  "name": "token",
                  "type": "tuple"
                },
                {
                  "internalType": "uint256",
                  "name": "amount",
                  "type": "uint256"
                },
                {
                  "internalType": "uint256",
                  "name": "usd",
                  "type": "uint256"
                },
                {
                  "internalType": "uint256",
                  "name": "apy",
                  "type": "uint256"
                }
              ],
              "internalType": "struct ChadgerRegistry.TokenRewardApyReport[]",
              "name": "apyReports",
              "type": "tuple[]"
            }
          ],
          "internalType": "struct ChadgerRegistry.VaultDetails",
          "name": "vaultDetails",
          "type": "tuple"
        }
      ],
      "stateMutability": "view",
      "type": "function"
    },
    {
      "inputs": [
        {
          "internalType": "address",
          "name": "_vaultAddress",
          "type": "address"
        },
        {
          "internalType": "address",
          "name": "_userAddrress",
          "type": "address"
        }
      ],
      "name": "getVaultSummary",
      "outputs": [
        {
          "components": [
            {
              "internalType": "address",
              "name": "strategist",
              "type": "address"
            },
            {
              "internalType": "enum ChadgerRegistry.VaultStatus",
              "name": "status",
              "type": "uint8"
            },
            {
              "internalType": "address",
              "name": "vaultAddress",
              "type": "address"
            },
            {
              "components": [
                {
                  "internalType": "address",
                  "name": "tokenAddress",
                  "type": "address"
                },
                {
                  "internalType": "string",
                  "name": "name",
                  "type": "string"
                },
                {
                  "internalType": "string",
                  "name": "symbol",
                  "type": "string"
                }
              ],
              "internalType": "struct ChadgerRegistry.Token",
              "name": "token",
              "type": "tuple"
            },
            {
              "internalType": "string",
              "name": "name",
              "type": "string"
            },
            {
              "internalType": "string",
              "name": "symbol",
              "type": "string"
            },
            {
              "internalType": "uint256",
              "name": "tvl",
              "type": "uint256"
            },
            {
              "components": [
                {
                  "components": [
                    {
                      "internalType": "address",
                      "name": "tokenAddress",
                      "type": "address"
                    },
                    {
                      "internalType": "string",
                      "name": "name",
                      "type": "string"
                    },
                    {
                      "internalType": "string",
                      "name": "symbol",
                      "type": "string"
                    }
                  ],
                  "internalType": "struct ChadgerRegistry.Token",
                  "name": "token",
                  "type": "tuple"
                },
                {
                  "internalType": "uint256",
                  "name": "amount",
                  "type": "uint256"
                },
                {
                  "internalType": "uint256",
                  "name": "usd",
                  "type": "uint256"
                },
                {
                  "internalType": "uint256",
                  "name": "apy",
                  "type": "uint256"
                }
              ],
              "internalType": "struct ChadgerRegistry.TokenRewardApyReport[]",
              "name": "apyReports",
              "type": "tuple[]"
            },
            {
              "components": [
                {
                  "internalType": "address",
                  "name": "token",
                  "type": "address"
                },
                {
                  "internalType": "uint256",
                  "name": "amount",
                  "type": "uint256"
                },
                {
                  "internalType": "uint256",
                  "name": "usd",
                  "type": "uint256"
                }
              ],
              "internalType": "struct ChadgerRegistry.TokenReport",
              "name": "deposits",
              "type": "tuple"
            }
          ],
          "internalType": "struct ChadgerRegistry.VaultSummary",
          "name": "vaultSummary",
          "type": "tuple"
        }
      ],
      "stateMutability": "view",
      "type": "function"
    },
    {
      "inputs": [],
      "name": "getVaultsAddresses",
      "outputs": [
        {
          "internalType": "address[]",
          "name": "",
          "type": "address[]"
        }
      ],
      "stateMutability": "view",
      "type": "function"
    },
    {
      "inputs": [
        {
          "internalType": "address",
          "name": "_userAddrress",
          "type": "address"
        }
      ],
      "name": "getVaultsSummary",
      "outputs": [
        {
          "components": [
            {
              "internalType": "address",
              "name": "strategist",
              "type": "address"
            },
            {
              "internalType": "enum ChadgerRegistry.VaultStatus",
              "name": "status",
              "type": "uint8"
            },
            {
              "internalType": "address",
              "name": "vaultAddress",
              "type": "address"
            },
            {
              "components": [
                {
                  "internalType": "address",
                  "name": "tokenAddress",
                  "type": "address"
                },
                {
                  "internalType": "string",
                  "name": "name",
                  "type": "string"
                },
                {
                  "internalType": "string",
                  "name": "symbol",
                  "type": "string"
                }
              ],
              "internalType": "struct ChadgerRegistry.Token",
              "name": "token",
              "type": "tuple"
            },
            {
              "internalType": "string",
              "name": "name",
              "type": "string"
            },
            {
              "internalType": "string",
              "name": "symbol",
              "type": "string"
            },
            {
              "internalType": "uint256",
              "name": "tvl",
              "type": "uint256"
            },
            {
              "components": [
                {
                  "components": [
                    {
                      "internalType": "address",
                      "name": "tokenAddress",
                      "type": "address"
                    },
                    {
                      "internalType": "string",
                      "name": "name",
                      "type": "string"
                    },
                    {
                      "internalType": "string",
                      "name": "symbol",
                      "type": "string"
                    }
                  ],
                  "internalType": "struct ChadgerRegistry.Token",
                  "name": "token",
                  "type": "tuple"
                },
                {
                  "internalType": "uint256",
                  "name": "amount",
                  "type": "uint256"
                },
                {
                  "internalType": "uint256",
                  "name": "usd",
                  "type": "uint256"
                },
                {
                  "internalType": "uint256",
                  "name": "apy",
                  "type": "uint256"
                }
              ],
              "internalType": "struct ChadgerRegistry.TokenRewardApyReport[]",
              "name": "apyReports",
              "type": "tuple[]"
            },
            {
              "components": [
                {
                  "internalType": "address",
                  "name": "token",
                  "type": "address"
                },
                {
                  "internalType": "uint256",
                  "name": "amount",
                  "type": "uint256"
                },
                {
                  "internalType": "uint256",
                  "name": "usd",
                  "type": "uint256"
                }
              ],
              "internalType": "struct ChadgerRegistry.TokenReport",
              "name": "deposits",
              "type": "tuple"
            }
          ],
          "internalType": "struct ChadgerRegistry.VaultSummary[]",
          "name": "",
          "type": "tuple[]"
        }
      ],
      "stateMutability": "view",
      "type": "function"
    },
    {
      "inputs": [],
      "name": "governance",
      "outputs": [
        {
          "internalType": "address",
          "name": "",
          "type": "address"
        }
      ],
      "stateMutability": "view",
      "type": "function"
    },
    {
      "inputs": [
        {
          "internalType": "address",
          "name": "_vaultImplementation",
          "type": "address"
        },
        {
          "internalType": "address",
          "name": "_governance",
          "type": "address"
        },
        {
          "internalType": "address",
          "name": "_priceFinder",
          "type": "address"
        }
      ],
      "name": "initialize",
      "outputs": [],
      "stateMutability": "nonpayable",
      "type": "function"
    },
    {
      "inputs": [],
      "name": "priceFinder",
      "outputs": [
        {
          "internalType": "address",
          "name": "",
          "type": "address"
        }
      ],
      "stateMutability": "view",
      "type": "function"
    },
    {
      "inputs": [
        {
          "internalType": "address",
          "name": "",
          "type": "address"
        }
      ],
      "name": "registeries",
      "outputs": [
        {
          "internalType": "contract IVault",
          "name": "vault",
          "type": "address"
        },
        {
          "internalType": "address",
          "name": "strategist",
          "type": "address"
        },
        {
          "internalType": "enum ChadgerRegistry.VaultStatus",
          "name": "status",
          "type": "uint8"
        },
        {
          "internalType": "string",
          "name": "metaPointer",
          "type": "string"
        },
        {
          "internalType": "uint256",
          "name": "registredAt",
          "type": "uint256"
        }
      ],
      "stateMutability": "view",
      "type": "function"
    },
    {
      "inputs": [],
      "name": "vaultImplementation",
      "outputs": [
        {
          "internalType": "address",
          "name": "",
          "type": "address"
        }
      ],
      "stateMutability": "view",
      "type": "function"
    }
  ],
  "bytecode": "0x60806040523480156200001157600080fd5b50618aa280620000226000396000f3fe608060405234801561001057600080fd5b50600436106101735760003560e01c80639946ba6c116100de578063cf08db9211610097578063e4c0c71811610071578063e4c0c7181461048a578063ea3a4c60146104ba578063f7302e79146104d8578063fc42c4db146104f457610173565b8063cf08db9214610420578063d3c1fd981461043e578063d81d3bac1461045a57610173565b80639946ba6c1461035e57806399572d6f1461037c578063a6df253814610398578063ab9a8864146103b6578063bba48a90146103e6578063c0c53b8b1461040457610173565b806352a84cc61161013057806352a84cc61461027857806359770438146102945780635aa6e675146102c457806389e5f0e5146102e2578063931444a6146102fe578063979b77231461032e57610173565b806316d3bfbb146101785780631a2e1cd21461019657806323c39130146101c65780632bb766d7146101e457806345548003146102185780634773489214610248575b600080fd5b610180610524565b60405161018d91906186bc565b60405180910390f35b6101b060048036038101906101ab91906173ed565b61052c565b6040516101bd9190618678565b60405180910390f35b6101ce6119a8565b6040516101db9190618347565b60405180910390f35b6101fe60048036038101906101f9919061739b565b6119ce565b60405161020f9594939291906184df565b60405180910390f35b610232600480360381019061022d919061739b565b611ae9565b60405161023f91906184bd565b60405180910390f35b610262600480360381019061025d919061739b565b611d35565b60405161026f9190618479565b60405180910390f35b610292600480360381019061028d9190617478565b61211b565b005b6102ae60048036038101906102a9919061739b565b612855565b6040516102bb9190618656565b60405180910390f35b6102cc612be4565b6040516102d99190618347565b60405180910390f35b6102fc60048036038101906102f7919061739b565b612c0a565b005b6103186004803603810190610313919061739b565b612ef9565b6040516103259190618457565b60405180910390f35b610348600480360381019061034391906173ed565b613145565b604051610355919061863b565b60405180910390f35b610366613937565b6040516103739190618435565b60405180910390f35b6103966004803603810190610391919061739b565b613b9c565b005b6103a0613e8b565b6040516103ad91906186bc565b60405180910390f35b6103d060048036038101906103cb919061739b565b613e91565b6040516103dd919061849b565b60405180910390f35b6103ee614920565b6040516103fb9190618347565b60405180910390f35b61041e60048036038101906104199190617429565b614946565b005b610428614c28565b6040516104359190618435565b60405180910390f35b61045860048036038101906104539190617586565b614e8d565b005b610474600480360381019061046f91906173ed565b615372565b604051610481919061869a565b60405180910390f35b6104a4600480360381019061049f919061766d565b6162a4565b6040516104b191906186bc565b60405180910390f35b6104c261652c565b6040516104cf91906186bc565b60405180910390f35b6104f260048036038101906104ed919061739b565b616538565b005b61050e600480360381019061050991906173ed565b616827565b60405161051b9190618619565b60405180910390f35b6301e187e081565b610534616df7565b826105617f291e3bf4a94e56df8cef0e35a44f26a3b8783a6a8f2d41bcba25817735767f0f60001b616b5b565b61058d7f6ef7f4d2c07b9487c40719e87b7abd5e759305269eb6e84dfdd52d8c32ac911560001b616b5b565b6105b97f38e52f71e7961bf56303581fc9e1494ad8ae79ffef666632cfb06eca8cb3b88e60001b616b5b565b6105e57fa158b02d6655320a886c4f1f04c25b0da59e237eda4b0fbb1e989440bdecf8bd60001b616b5b565b6105f9816006616b5e90919063ffffffff16565b610638576040517f08c379a000000000000000000000000000000000000000000000000000000000815260040161062f906185f9565b60405180910390fd5b6106647f1c60be8f8a52f7445fa0ddb044bafe58e5c90970b34a30f005c2d696c2c0473360001b616b5b565b6106907f6b608f56256dafe795133faf3c8666fd8bf010bd42a647471e1a96aee53eb16e60001b616b5b565b6106bc7fe0ab94d0fb430bdcaeec2317cd8f1316bdff0421a51acb74be279f2c66fd949160001b616b5b565b6106e87f4fc35af6faf1b4ef26eb93d0777f6057f98579b24859e8f4bee2802930a5cd0060001b616b5b565b6107147fcd51ba32ddd9b2749fc8e4ba9f80131b36c5ec8e4ea8c0350b51286eb03959fa60001b616b5b565b61071c616f4f565b6107268585615372565b90506107547f59867fedd1075d54ce637cc9257740f43d4f25391788704a399186e1f5eaaffd60001b616b5b565b6107807fe6f5d29bfc2748ad00e75ce9f6b023dff1c8cfa9c0d17efd6e2d2c9c1473886f60001b616b5b565b60008590506107b17f9ced43ce766b65b673ddc1c761a7e2844f27e4a701feb0c6a311915958276cc760001b616b5b565b6107dd7f1a7f7b1c09d3fdf009ca8ebb1c3dff7caf24502a6f43ac9784f55ae0706679cd60001b616b5b565b8160200151846020019060028111156107f257fe5b908160028111156107ff57fe5b8152505061082f7fe2f724d3cfeb246c079366c0e2c71d458e2a915ee32545f68e676b92ca29c5fb60001b616b5b565b61085b7f52ed9de6c10f680e7a1bbff425516e132e2706064f1f0e3055b174c873c88af160001b616b5b565b600860008773ffffffffffffffffffffffffffffffffffffffff1673ffffffffffffffffffffffffffffffffffffffff1681526020019081526020016000206002018054600181600116156101000203166002900480601f0160208091040260200160405190810160405280929190818152602001828054600181600116156101000203166002900480156109315780601f1061090657610100808354040283529160200191610931565b820191906000526020600020905b81548152906001019060200180831161091457829003601f168201915b5050505050846040018190525061096a7f5c5543a591e2b2996d1c24bdb1ae138608c60ef97c174e68cdbbff9dabf2a93760001b616b5b565b6109967f238e40f254373d31d73b298b0e436f6dc143ee017e76ec687e4f4c0b7ae7106e60001b616b5b565b8073ffffffffffffffffffffffffffffffffffffffff1663a8c62e766040518163ffffffff1660e01b815260040160206040518083038186803b1580156109dc57600080fd5b505afa1580156109f0573d6000803e3d6000fd5b505050506040513d601f19601f82011682018060405250810190610a1491906173c4565b84610200019073ffffffffffffffffffffffffffffffffffffffff16908173ffffffffffffffffffffffffffffffffffffffff1681525050610a787f796858d1f0aaf614851ebf2ab8a0fecc063c99d87ec2dda8fc47cc2397cfbf9460001b616b5b565b610aa47fa34df34568908e746995c49db0a8d9b487de8b0eb789ae38f4e38e7d0eb4ae8260001b616b5b565b8160c00151846060018181525050610ade7f9df5bfb69a21f4b47597c9a9b447ad9227d304fa58833b3539fc19f5bdcfd2ae60001b616b5b565b610b0a7f59b7a0ce732bb5c478ef90cc571b6f0cd3e8f4f12858099b073130f266afefc060001b616b5b565b816101000151846102200181905250610b457faee4036084f5c9dc041ccb6e96b13a94d012864b13c49382a633463b5be1506560001b616b5b565b610b717f59ed08d238d5e2b04c13d62b913521427146c16eb3c7ed2ca736b02ad22e28e660001b616b5b565b81606001518460a00181905250610baa7f754ca53ccdfcdeac99ec36976baf254ffd33971180f53b8d6e114fa96e336dc160001b616b5b565b610bd67fb82750aed7273fa64a7b7891607fb7dd9944e5a7e7f902ac60ccf3cdc8892cbc60001b616b5b565b8160e00151846102a00181905250610c107f725250282f6cbb52d4dcc4ce32635b25f0b8b31cea9869e57e1d46f33ef72f0e60001b616b5b565b610c3c7fdfe8bb4c62dde44d916cda410537fa18e96e7664812b6e451da91a5a3ee036a960001b616b5b565b8073ffffffffffffffffffffffffffffffffffffffff16631fe4a6866040518163ffffffff1660e01b815260040160206040518083038186803b158015610c8257600080fd5b505afa158015610c96573d6000803e3d6000fd5b505050506040513d601f19601f82011682018060405250810190610cba91906173c4565b846000019073ffffffffffffffffffffffffffffffffffffffff16908173ffffffffffffffffffffffffffffffffffffffff1681525050610d1d7fe08790d9393a44af2e4a09d49a0879879ed2f07696120d55eacaee998dbaab4060001b616b5b565b610d497f57d0e60498a51a10473e89a18de01f27258bf7fb919ae00cf2a04a23679186cc60001b616b5b565b8073ffffffffffffffffffffffffffffffffffffffff1663aced16616040518163ffffffff1660e01b815260040160206040518083038186803b158015610d8f57600080fd5b505afa158015610da3573d6000803e3d6000fd5b505050506040513d601f19601f82011682018060405250810190610dc791906173c4565b8460c0019073ffffffffffffffffffffffffffffffffffffffff16908173ffffffffffffffffffffffffffffffffffffffff1681525050610e2a7fef4f496eb6b4b8d91e03abd17ba7284f515e63f466b92116bab6ffd784cc08be60001b616b5b565b610e567fe255a0fa2ef73690d98ed3a05c6013702af4afe6fec834f4df9beea2f135eba760001b616b5b565b8073ffffffffffffffffffffffffffffffffffffffff1663452a93206040518163ffffffff1660e01b815260040160206040518083038186803b158015610e9c57600080fd5b505afa158015610eb0573d6000803e3d6000fd5b505050506040513d601f19601f82011682018060405250810190610ed491906173c4565b8460e0019073ffffffffffffffffffffffffffffffffffffffff16908173ffffffffffffffffffffffffffffffffffffffff1681525050610f377f9378d3b78e1068f6c663acc5a155b5f104c1ab9734792c94525f1c64d0fd497160001b616b5b565b610f637f528c7604e98799bd918f5a540e3ca55cfd2539ff61fcc9bc7841794e979050d960001b616b5b565b8073ffffffffffffffffffffffffffffffffffffffff166361d027b36040518163ffffffff1660e01b815260040160206040518083038186803b158015610fa957600080fd5b505afa158015610fbd573d6000803e3d6000fd5b505050506040513d601f19601f82011682018060405250810190610fe191906173c4565b84610100019073ffffffffffffffffffffffffffffffffffffffff16908173ffffffffffffffffffffffffffffffffffffffff16815250506110457fdc73de2c23cc720518f24cf52e70c5a8d28b3c192a9defa9613277b02848669c60001b616b5b565b6110717fe903339821cfb2c3eb3862df009e83ea5d235b58c54612c0972b5341cb5a499e60001b616b5b565b8073ffffffffffffffffffffffffffffffffffffffff1663894836956040518163ffffffff1660e01b815260040160206040518083038186803b1580156110b757600080fd5b505afa1580156110cb573d6000803e3d6000fd5b505050506040513d601f19601f820116820180604052508101906110ef91906173c4565b84610120019073ffffffffffffffffffffffffffffffffffffffff16908173ffffffffffffffffffffffffffffffffffffffff16815250506111537fd77aceef8aee10cd434d2d897d1054cd2e9133251f2fdf284a164f6c6d1becd960001b616b5b565b61117f7f2b38a9a0b807bad67c679f94b84fd92f7bbc9ec55a84dfa49122037e587a481860001b616b5b565b85846080019073ffffffffffffffffffffffffffffffffffffffff16908173ffffffffffffffffffffffffffffffffffffffff16815250506111e37f7539743a528162a273124106a2644e6a51704ee0470b5d50c95d3a0634048b4a60001b616b5b565b61120f7f2d3486351b7ba330f3778d667339b93e86d4b6693560794d64f1b7bbcaee8c1a60001b616b5b565b8073ffffffffffffffffffffffffffffffffffffffff166306fdde036040518163ffffffff1660e01b815260040160006040518083038186803b15801561125557600080fd5b505afa158015611269573d6000803e3d6000fd5b505050506040513d6000823e3d601f19601f820116820180604052508101906112929190617603565b8461014001819052506112c77f5e6bdb125879642f6afb04d71a4630b743eb5d78a82003661f613a51456f843c60001b616b5b565b6112f37f7c70bece38f95b85593e690705e11fbdd3e6da111141b238a9de26531157547060001b616b5b565b8073ffffffffffffffffffffffffffffffffffffffff166395d89b416040518163ffffffff1660e01b815260040160006040518083038186803b15801561133957600080fd5b505afa15801561134d573d6000803e3d6000fd5b505050506040513d6000823e3d601f19601f820116820180604052508101906113769190617603565b8461016001819052506113ab7f68fef2de905de6241299e7dac0353664f02d97949bd1087df7ba7f642d9258d460001b616b5b565b6113d77f646a42dcd629448f273535ec0dc98f223069cb7a3699858cb1129749efa5814860001b616b5b565b8073ffffffffffffffffffffffffffffffffffffffff166315b18ddd6040518163ffffffff1660e01b815260040160206040518083038186803b15801561141d57600080fd5b505afa158015611431573d6000803e3d6000fd5b505050506040513d601f19601f820116820180604052508101906114559190617644565b8461018001818152505061148b7f4afd0b9a487a9f7976e209085d84e9db63d67f8b8bca69216d17fbe0f3767ac960001b616b5b565b6114b77fe7aee28c877605a82c7ebdbb46632e64e5f7bebb104756df28f204d6bb4712dd60001b616b5b565b8073ffffffffffffffffffffffffffffffffffffffff1663504a16476040518163ffffffff1660e01b815260040160206040518083038186803b1580156114fd57600080fd5b505afa158015611511573d6000803e3d6000fd5b505050506040513d601f19601f820116820180604052508101906115359190617644565b846101a001818152505061156b7f20ae01245c2d3f7720fc3af06a6f3a78269c5713eb381d112a3f07cfb66baec660001b616b5b565b6115977f3854e89738f12e9d40351d0765556439e205c4895fa60fb80d18fca124b92bd260001b616b5b565b8073ffffffffffffffffffffffffffffffffffffffff16638bc7e8c46040518163ffffffff1660e01b815260040160206040518083038186803b1580156115dd57600080fd5b505afa1580156115f1573d6000803e3d6000fd5b505050506040513d601f19601f820116820180604052508101906116159190617644565b846101c001818152505061164b7f7276c4bcc626ad9f643e329a0a99cfde3a64609459d1cea7daf7ddeb6e4e248a60001b616b5b565b6116777f5c80aa4e49a8ccbb5fd22a06d8e721ceff4dd8737dbe0a2c54bb929f2e8366b960001b616b5b565b8073ffffffffffffffffffffffffffffffffffffffff1663a6f7f5d66040518163ffffffff1660e01b815260040160206040518083038186803b1580156116bd57600080fd5b505afa1580156116d1573d6000803e3d6000fd5b505050506040513d601f19601f820116820180604052508101906116f59190617644565b846101e001818152505061172b7fc258dbe9a3db8024a9e7e893e3b44079569b4da76a6e636ce628b187ba8b282160001b616b5b565b6117577fda22157e3f2885fb4557f2c6b14327298478d9d8bb91130d20a8b886590e3cf960001b616b5b565b8073ffffffffffffffffffffffffffffffffffffffff1663f9f44f4e6040518163ffffffff1660e01b815260040160206040518083038186803b15801561179d57600080fd5b505afa1580156117b1573d6000803e3d6000fd5b505050506040513d601f19601f820116820180604052508101906117d59190617644565b8461024001818152505061180b7f6a0805cbf369abfb4856371f4fcdf54410b90567baf10981513f4eb7735971a860001b616b5b565b6118377f08b0262918dd0aa397b277dde6a5e6b9522cb0ed7753a607ee518f2a63b00d4760001b616b5b565b8073ffffffffffffffffffffffffffffffffffffffff1663ecb9da776040518163ffffffff1660e01b815260040160206040518083038186803b15801561187d57600080fd5b505afa158015611891573d6000803e3d6000fd5b505050506040513d601f19601f820116820180604052508101906118b59190617644565b846102600181815250506118eb7f9316a2b30c92653afcff8905b2428f9bff6ea8a2bb1dc90525f5a2f541a2e9fa60001b616b5b565b6119177f8df4862ab5fae89b6bfa1c258e580d38dd481d847b86bbb8b78b10cf0dcb63af60001b616b5b565b8073ffffffffffffffffffffffffffffffffffffffff16637dbe79206040518163ffffffff1660e01b815260040160206040518083038186803b15801561195d57600080fd5b505afa158015611971573d6000803e3d6000fd5b505050506040513d601f19601f820116820180604052508101906119959190617644565b8461028001818152505050505092915050565b600260009054906101000a900473ffffffffffffffffffffffffffffffffffffffff1681565b60086020528060005260406000206000915090508060000160009054906101000a900473ffffffffffffffffffffffffffffffffffffffff16908060010160009054906101000a900473ffffffffffffffffffffffffffffffffffffffff16908060010160149054906101000a900460ff1690806002018054600181600116156101000203166002900480601f016020809104026020016040519081016040528092919081815260200182805460018160011615610100020316600290048015611ad95780601f10611aae57610100808354040283529160200191611ad9565b820191906000526020600020905b815481529060010190602001808311611abc57829003601f168201915b5050505050908060030154905085565b6060611b177fa250c00a63f4a50fe5cdab944fd1810804886cd2d87cb99c89084ca9fa20c05760001b616b5b565b611b437fb908f4f39d0a7c904cbc6c58b7b5320df5fdfa436d58ca4ab9d74ce95843d8a060001b616b5b565b611b6f7f95081b007badfd3531c542e019b9ef0f126d3b2d84767d56fa8e1ffdaf6ee63760001b616b5b565b6060611b7b6006616b8e565b67ffffffffffffffff81118015611b9157600080fd5b50604051908082528060200260200182016040528015611bcb57816020015b611bb8616f4f565b815260200190600190039081611bb05790505b509050611bfa7f37c28a28d25e5ecb74a74db0724e288e27d94801cdaf1709251b047a669f799660001b616b5b565b611c267fe3bf5b79d28ba782abf0971c5af454c4410c4e05b6e7a2ac06fb0959ba3b016e60001b616b5b565b60005b611c336006616b8e565b811015611cd357611c667fd551b01b1b483a81e67ea7ec7e8e12b271d96f28ce55037f2dbf5fbdb98b4d9d60001b616b5b565b611c927fb408e57b9298d9601c8e3892d7831f9d121593af2d60c5d34b3a7f7e974c21f560001b616b5b565b611caf611ca9826006616ba390919063ffffffff16565b85615372565b828281518110611cbb57fe5b60200260200101819052508080600101915050611c29565b50611d007fdfe4258a0004d4c8eb4cc54e93c81926a71f417c644771fe9c8137e7166ed09060001b616b5b565b611d2c7f07fa228b3a284bd70d2b918c0df7f93cc41d3c9aa71c5b8e4d82f8eee107e8ac60001b616b5b565b80915050919050565b6060611d637f91beaff368f37d9f00505b500580ccf0797f59baec0e40259729af583256b54e60001b616b5b565b611d8f7ff710ab27d8ebe038b0c198f1f33a00617d05df1cf292b284bf4543981cfb4bc460001b616b5b565b611dbb7f4eaf0857dcc962f7303c89fe317175f7409022d619ede527998c9d1beb0593ac60001b616b5b565b611de77f1d8bc1dd82ee59fa584beea35e6dbefcdabdb6774e5c47704251ccc2d57ac02d60001b616b5b565b600073ffffffffffffffffffffffffffffffffffffffff16600260009054906101000a900473ffffffffffffffffffffffffffffffffffffffff1673ffffffffffffffffffffffffffffffffffffffff161415611e79576040517f08c379a0000000000000000000000000000000000000000000000000000000008152600401611e7090618559565b60405180910390fd5b611ea57ff52713702f85fdab46f9c049c323450ea4a45b2bf22414214c6d4d8493d55c0160001b616b5b565b611ed17febc91b7ec75b0a5fd231f8579a9ecac2d7f427c2851b0b0592124c969dc9e01c60001b616b5b565b611efd7f0ccec1ef5a178afd38e8e30a9c7fad33775625db478e0740681bc11cd11208b960001b616b5b565b611f297fd391a30dd21efcae8570aa855e1aa9b0270c051a05ec82ae44560e8f8e1a7b8060001b616b5b565b611f557f59fcf50dda9edeb011bd75e6c040f138a7dd0f05857bb71c55636754354707c060001b616b5b565b6060611f616006616b8e565b67ffffffffffffffff81118015611f7757600080fd5b50604051908082528060200260200182016040528015611fb157816020015b611f9e616fde565b815260200190600190039081611f965790505b509050611fe07f5ada3a8aeb0023a0ae8b9a238c8306160fd9db4856d7600bced9788332ece6a360001b616b5b565b61200c7febd02c11cab2cbffdfce6d519d42eb8344aab62c226b59bbd241bd25d7636d2d60001b616b5b565b60005b6120196006616b8e565b8110156120b95761204c7f3656c265113ac083de1c69b8c2311de41f990e488e9d4706dd10bd43f244646660001b616b5b565b6120787ff6f6d2f1da5bdf3b14bb04c08f7f8d7a04b63bff5b2c5ff98aa0334beec4066260001b616b5b565b61209561208f826006616ba390919063ffffffff16565b85613145565b8282815181106120a157fe5b6020026020010181905250808060010191505061200f565b506120e67f553d38a584bf61079076a021514af7dca78bf456e80dc35cdb1043d62807b20060001b616b5b565b6121127f12f479d54d6437380617cddf3fdfb3d4525cd4c8935536e45038cb553fb950f660001b616b5b565b80915050919050565b6121477f7a4730979e87c1331aa9367d503ca6c7f5f107fd4c055879f656f0a7e989aa7660001b616b5b565b6121737faa6aa199a5ed817c5aad4258459627e53d23a42a996d5992950b0f3fb0040f3260001b616b5b565b61219f7fe00d41aafd01d307f5697e4828b650c2f154e237e8e89ef2b669ba39fac1a2a460001b616b5b565b6121cb7f463219acfb0ec735b587079ccce97be8159ff154c9c31777b5564009868b04c760001b616b5b565b600073ffffffffffffffffffffffffffffffffffffffff16600060029054906101000a900473ffffffffffffffffffffffffffffffffffffffff1673ffffffffffffffffffffffffffffffffffffffff16141561225d576040517f08c379a000000000000000000000000000000000000000000000000000000000815260040161225490618579565b60405180910390fd5b6122887eecd8159353eeb8fdc69a4fd69fc5269f396f0446b2324068f5f601a3920d6760001b616b5b565b6122b47f26aa7f80c268393db9460c66d843fa6417ad07ca03cf9d9cc4ae4cda673d106360001b616b5b565b6122e07fae10d5c995545f760eaf35c258944eba3c911787d0948f918ac7a4ca2d87d78e60001b616b5b565b61230c7f49fabc0d0157a33779bc5167695d2aa6f7c6437ffada1978b0acd4ef10b7fa6b60001b616b5b565b6123387f14f83d5785cec100cd8e9aec820458b79437bb1a9f64665984d00e71436a05c460001b616b5b565b6000612365600060029054906101000a900473ffffffffffffffffffffffffffffffffffffffff16616bbd565b90506123937f31a870cea24123950c3ce9245ea2c0d4b3ae1db327d5b66c7dabc89a7ee8cd2560001b616b5b565b6123bf7febd9ed7b4951259ff6994b3048eb99e45beaa20b0f0fe6752335af2e9c5f43fe60001b616b5b565b8073ffffffffffffffffffffffffffffffffffffffff1663f7fec1818b338c8c8c338d8d8d8d6040518b63ffffffff1660e01b815260040161240a9a99989796959493929190618362565b600060405180830381600087803b15801561242457600080fd5b505af1158015612438573d6000803e3d6000fd5b505050506124687f53965055925679f6344a4d3e836e4ccc85f7ab35bb45683908c25a8eee4aece760001b616b5b565b6124947f4b09c371fe8de96a1ff12878930af3f8c444c2f9366b07af3ecd2769073def1260001b616b5b565b6124a8816006616c9290919063ffffffff16565b506124d57f919b96ecaa6e0a9484aa2204e5f59fbc012827c6418704ee264c59b9a0e1d86060001b616b5b565b6125017f607bd057062fb365852a6e8fdfdd4979c37a18eb29479df6d3b4af01b54b1e6c60001b616b5b565b612515336003616c9290919063ffffffff16565b506125427f7020af9d8d124a04b388c06af77e77941f7ac72e1ade185efb49706a2cc1ae3e60001b616b5b565b61256e7f60658496b77db897b23356d07dc04e9ebc27b03a22199e276bc99a9142f542e260001b616b5b565b6125bf81600560003373ffffffffffffffffffffffffffffffffffffffff1673ffffffffffffffffffffffffffffffffffffffff168152602001908152602001600020616c9290919063ffffffff16565b506125ec7f9de50fa81d95660404df6b9051d2b7167283fa576935743fb1d6732e1184144160001b616b5b565b6126187fa59af3abeccb68221cca3a6ad7a5e16c3dfd7eacc4671af43dcbbd1d43285aeb60001b616b5b565b6040518060a001604052808273ffffffffffffffffffffffffffffffffffffffff1681526020013373ffffffffffffffffffffffffffffffffffffffff1681526020016000600281111561266857fe5b815260200183815260200142815250600860008373ffffffffffffffffffffffffffffffffffffffff1673ffffffffffffffffffffffffffffffffffffffff16815260200190815260200160002060008201518160000160006101000a81548173ffffffffffffffffffffffffffffffffffffffff021916908373ffffffffffffffffffffffffffffffffffffffff16021790555060208201518160010160006101000a81548173ffffffffffffffffffffffffffffffffffffffff021916908373ffffffffffffffffffffffffffffffffffffffff16021790555060408201518160010160146101000a81548160ff0219169083600281111561276857fe5b02179055506060820151816002019080519060200190612789929190617015565b50608082015181600301559050506127c37f88ef8c3e6fefee8f79188a6dee3db3141f711befb6056f3070d0c9e5bea210f460001b616b5b565b6127ef7fe992b1baf80a0cbd1ef92616a56b3b9072d98b6d221226759095d7d7ab8e88e460001b616b5b565b8073ffffffffffffffffffffffffffffffffffffffff163373ffffffffffffffffffffffffffffffffffffffff167f2f0697414292d16e25e419060ebbb3a3318648280380829ca42af307b155393b60405160405180910390a350505050505050505050565b61285d617095565b6128897f6c614597ce85233da811bf0fd5aa79a83a6504149cbd57ba84e85acf7544f8d860001b616b5b565b6128b57fd282fda4621ab4191306fc575148ace8b039c9cb8295470e56b9e494880aed9960001b616b5b565b6128e17f1ab04f1c56e88104638a5c05845525980564cc739f9214ebc00dcc738e01945960001b616b5b565b600073ffffffffffffffffffffffffffffffffffffffff168273ffffffffffffffffffffffffffffffffffffffff1614156129c5576129427f892c2788afed8da37a03ff35e7d32918b88743899cebdc32d537c642505befba60001b616b5b565b61296e7f4d0c31827607e1050e0590e7194830771b968075c0073c7c68f5842c4df93bae60001b616b5b565b6040518060600160405280600073ffffffffffffffffffffffffffffffffffffffff168152602001604051806020016040528060008152508152602001604051806020016040528060008152508152509050612bdf565b6129f17fc5036137f3d9494e09f1f5b2121146445efdc8af5f4c440f03ce029c7417649560001b616b5b565b612a1d7f7477db9047dfa3ae81390274fc7961859a51b9738b3c28471513072341bb463660001b616b5b565b612a497faefaf1bf5cda9babc7c2b1c54409b1d4f1824ea3674d4af1ff06f07b0fbc5a1a60001b616b5b565b6000829050612a7a7f94bdee999d6997523024ec785c0ef938f5a9eaad47fd9fe9664fb374620618b960001b616b5b565b612aa67f6ff656d67d77659f349ada838be18d96f97b5c340111e90a98e3c9a6683ba88d60001b616b5b565b60405180606001604052808473ffffffffffffffffffffffffffffffffffffffff1681526020018273ffffffffffffffffffffffffffffffffffffffff166306fdde036040518163ffffffff1660e01b815260040160006040518083038186803b158015612b1357600080fd5b505afa158015612b27573d6000803e3d6000fd5b505050506040513d6000823e3d601f19601f82011682018060405250810190612b509190617603565b81526020018273ffffffffffffffffffffffffffffffffffffffff166395d89b416040518163ffffffff1660e01b815260040160006040518083038186803b158015612b9b57600080fd5b505afa158015612baf573d6000803e3d6000fd5b505050506040513d6000823e3d601f19601f82011682018060405250810190612bd89190617603565b8152509150505b919050565b600160009054906101000a900473ffffffffffffffffffffffffffffffffffffffff1681565b612c367fb848de8ce2906255398fe0276f8cfd81912d1adf4b359fd7a9bb263900178ca060001b616b5b565b612c627fbb9c00a1fd3cba5f6a3cb8488a79e2bc650d82343067036ae3f357b8c8439a0560001b616b5b565b612c8e7f6a1871fd3a3079119817da3367eaf64a218a695dfd5e30a93fec8c0c0a8e797160001b616b5b565b612cba7f6d9bafa07ed2b675cb71fc8cd86832de54235cf9d0bbd66277e1249da7d3e8aa60001b616b5b565b600160009054906101000a900473ffffffffffffffffffffffffffffffffffffffff1673ffffffffffffffffffffffffffffffffffffffff163373ffffffffffffffffffffffffffffffffffffffff1614612d4a576040517f08c379a0000000000000000000000000000000000000000000000000000000008152600401612d4190618599565b60405180910390fd5b612d767fdfaa13867b66b2e05a8cd1d9df1f5c893d763672d353c65dbfe157a0090e70bd60001b616b5b565b612da27f378de486416f17c17073d8a3f4bab838645b2b3dc2a866aef6202363df22f39c60001b616b5b565b612dce7fb0d02bfa255ba391edee647007119cc22a385ca7c032ded5a5e332d39c5f78a460001b616b5b565b612dfa7f8b9fc999544b73f425c24c3368b5ecc061f33a0a34f8fe838b07df43633c994960001b616b5b565b612e267fabce2d206dfe7ef914c383d5cb8680275b75df791fef9322b4e581aa37edc12860001b616b5b565b80600060026101000a81548173ffffffffffffffffffffffffffffffffffffffff021916908373ffffffffffffffffffffffffffffffffffffffff160217905550612e937f47b5a77da054aaf37b2a7fdae7cdd32b49cd18d33d43671383f9d89d6c06a2d460001b616b5b565b612ebf7f9bd61ec9bbefeb764518e31f2e4a2dba6aee98d2f8aede0d6df7dea1ef3b358960001b616b5b565b7f48158d2f0abde90b13ae9358d35fefc13aaea2dfa5ca474989909a5da83c50e781604051612eee9190618347565b60405180910390a150565b6060612f277f86e0c966676f460f2a83389af8ddaed449bb52f2e2b7ad963031705f44682cc660001b616b5b565b612f537f6cb407e31ef9497284c510b99663e2177e5908a73781be0ee597c5867bacdc7760001b616b5b565b612f7f7f517b4e9a46cdd75ad3d92d2465597131cd51a229886a6a68f573a8f6dcf280e860001b616b5b565b6060612f8b6003616b8e565b67ffffffffffffffff81118015612fa157600080fd5b50604051908082528060200260200182016040528015612fdb57816020015b612fc86170cc565b815260200190600190039081612fc05790505b50905061300a7f8995082bd7b1ec34153a3e2c33fde19ffb1f2bfef63a4a9ad0885c310c79605d60001b616b5b565b6130367fc13609af92e8ce991518c00a5a531b1cea14c73f52d3a73b7ecff7949d2bbde960001b616b5b565b60005b6130436003616b8e565b8110156130e3576130767fb39d51ebc19e5427ee805f8580cd014355377b837425c67348be290159d5730260001b616b5b565b6130a27fb6c5bd36c42e109fa21bf84f697389aa12d90e90d3e2f66e0ddeb24fb8acfd0060001b616b5b565b6130bf6130b9826003616ba390919063ffffffff16565b85616827565b8282815181106130cb57fe5b60200260200101819052508080600101915050613039565b506131107f1c4039e89eac5ace9a884b11576365b2cbfad8884592aa5bffcd4dd450437a2460001b616b5b565b61313c7f2765394ed88bfb284e2b7e4feacf41f971699834ce86973a79d051c1be6a760d60001b616b5b565b80915050919050565b61314d616fde565b8261317a7f291e3bf4a94e56df8cef0e35a44f26a3b8783a6a8f2d41bcba25817735767f0f60001b616b5b565b6131a67f6ef7f4d2c07b9487c40719e87b7abd5e759305269eb6e84dfdd52d8c32ac911560001b616b5b565b6131d27f38e52f71e7961bf56303581fc9e1494ad8ae79ffef666632cfb06eca8cb3b88e60001b616b5b565b6131fe7fa158b02d6655320a886c4f1f04c25b0da59e237eda4b0fbb1e989440bdecf8bd60001b616b5b565b613212816006616b5e90919063ffffffff16565b613251576040517f08c379a0000000000000000000000000000000000000000000000000000000008152600401613248906185f9565b60405180910390fd5b61327d7f1c60be8f8a52f7445fa0ddb044bafe58e5c90970b34a30f005c2d696c2c0473360001b616b5b565b6132a97f6b608f56256dafe795133faf3c8666fd8bf010bd42a647471e1a96aee53eb16e60001b616b5b565b6132d57f91beaff368f37d9f00505b500580ccf0797f59baec0e40259729af583256b54e60001b616b5b565b6133017ff710ab27d8ebe038b0c198f1f33a00617d05df1cf292b284bf4543981cfb4bc460001b616b5b565b61332d7f4eaf0857dcc962f7303c89fe317175f7409022d619ede527998c9d1beb0593ac60001b616b5b565b6133597f1d8bc1dd82ee59fa584beea35e6dbefcdabdb6774e5c47704251ccc2d57ac02d60001b616b5b565b600073ffffffffffffffffffffffffffffffffffffffff16600260009054906101000a900473ffffffffffffffffffffffffffffffffffffffff1673ffffffffffffffffffffffffffffffffffffffff1614156133eb576040517f08c379a00000000000000000000000000000000000000000000000000000000081526004016133e290618559565b60405180910390fd5b6134177ff52713702f85fdab46f9c049c323450ea4a45b2bf22414214c6d4d8493d55c0160001b616b5b565b6134437febc91b7ec75b0a5fd231f8579a9ecac2d7f427c2851b0b0592124c969dc9e01c60001b616b5b565b61346f7fd459ed852e9e5c4ddc2f8b2ec5cdaf26a11a933a4168b85f38ec9adf3aae315d60001b616b5b565b61349b7f716b4d779fd2dc3d77f5cf5db5a97f0464c7a885b3a59c3e6126dd3a173ca95360001b616b5b565b6134c77f52f53af7eebacfcfdcbe1dc9cf8cd409a9cf7b40c647a18ee3f1a5db6516931260001b616b5b565b60008490506134f87fab57d9f4b211f5a6577e11fe732de7e38b71e58f6488739b1a515e804b917b2b60001b616b5b565b6135247f8c3003abfb2e17d00a6cb03afe44a15565bf91c6f117bd73297b191eaefc036260001b616b5b565b60008173ffffffffffffffffffffffffffffffffffffffff166370a08231866040518263ffffffff1660e01b815260040161355f9190618347565b60206040518083038186803b15801561357757600080fd5b505afa15801561358b573d6000803e3d6000fd5b505050506040513d601f19601f820116820180604052508101906135af9190617644565b90506135dd7fa10a640f548add7b57c75c78c9251e65cd155827c4f35c92cadd37bf1a29e7fb60001b616b5b565b6136097f372f513b6784859428628d17e6dd6e8ab8bdec101ca1a94530a4ba5cdf3a977460001b616b5b565b60008273ffffffffffffffffffffffffffffffffffffffff166377c7b8fc6040518163ffffffff1660e01b815260040160206040518083038186803b15801561365157600080fd5b505afa158015613665573d6000803e3d6000fd5b505050506040513d601f19601f820116820180604052508101906136899190617644565b90506136b77f1243b80df5792d24a05c478aef12835271e9d33883404e6fca330ece061b819760001b616b5b565b6136e37f9d5cccf53bd7ae3e97a4780d87fbff06669df2e75b48c9f02e77557fed88373060001b616b5b565b6000670de0b6b3a7640000838302816136f857fe5b0490506137277f3f186be24872400e91255bb47f15cec2f828866ebc7d6c9ed22d5d3bae28553960001b616b5b565b6137537f967bbb500e86549491ca65a8dc68c1105dad74babdb9fdc3dedb0ebd3b8050f760001b616b5b565b60405180606001604052808573ffffffffffffffffffffffffffffffffffffffff1663fc0c546a6040518163ffffffff1660e01b815260040160206040518083038186803b1580156137a457600080fd5b505afa1580156137b8573d6000803e3d6000fd5b505050506040513d601f19601f820116820180604052508101906137dc91906173c4565b73ffffffffffffffffffffffffffffffffffffffff168152602001828152602001600260009054906101000a900473ffffffffffffffffffffffffffffffffffffffff1673ffffffffffffffffffffffffffffffffffffffff1663514559348773ffffffffffffffffffffffffffffffffffffffff1663fc0c546a6040518163ffffffff1660e01b815260040160206040518083038186803b15801561388157600080fd5b505afa158015613895573d6000803e3d6000fd5b505050506040513d601f19601f820116820180604052508101906138b991906173c4565b856040518363ffffffff1660e01b81526004016138d792919061840c565b60206040518083038186803b1580156138ef57600080fd5b505afa158015613903573d6000803e3d6000fd5b505050506040513d601f19601f820116820180604052508101906139279190617644565b8152509550505050505092915050565b60606139657f3f0191158c87061e0de7af49c3c84dc60f2c9033d00eac5d77358ddbc723100a60001b616b5b565b6139917f1d4384557c603a149067ca72788420f5a8c5a3f69f7bc4529c881d966829ec0760001b616b5b565b6139bd7fdf6daa66836cc54f3a35a302fe9caa0603f32e1a637e7e75ab4cb2b7c449865b60001b616b5b565b60606139c96003616b8e565b67ffffffffffffffff811180156139df57600080fd5b50604051908082528060200260200182016040528015613a0e5781602001602082028036833780820191505090505b509050613a3d7f9cb44cca393089cd33227cfea2c2f6086e2a83cfba656f05d6352ec48a81b4e960001b616b5b565b613a697fd6402d033af17ed15a0a5179cccfbaceac18fd94112ee17401bd1d7338664e2b60001b616b5b565b60005b613a766003616b8e565b811015613b3c57613aa97f39f3830dd50b901558a942adccfcb361d4708391c3eb434f1788564b623e22df60001b616b5b565b613ad57f5ac5e2f9a26a7b85bf8b224105224fd73fc00017dd04d3f2b3a329b7478eef9060001b616b5b565b613ae9816003616ba390919063ffffffff16565b828281518110613af557fe5b602002602001019073ffffffffffffffffffffffffffffffffffffffff16908173ffffffffffffffffffffffffffffffffffffffff16815250508080600101915050613a6c565b50613b697f1e83cd53d368b666c60b60248a7d5cbcb95390822f1ea255b610ae70738c2cbe60001b616b5b565b613b957fd16575f0afdebcae6f61002a1be20383bd05428bdde1a475ddeea47375546a3260001b616b5b565b8091505090565b613bc87fb848de8ce2906255398fe0276f8cfd81912d1adf4b359fd7a9bb263900178ca060001b616b5b565b613bf47fbb9c00a1fd3cba5f6a3cb8488a79e2bc650d82343067036ae3f357b8c8439a0560001b616b5b565b613c207f6a1871fd3a3079119817da3367eaf64a218a695dfd5e30a93fec8c0c0a8e797160001b616b5b565b613c4c7f6d9bafa07ed2b675cb71fc8cd86832de54235cf9d0bbd66277e1249da7d3e8aa60001b616b5b565b600160009054906101000a900473ffffffffffffffffffffffffffffffffffffffff1673ffffffffffffffffffffffffffffffffffffffff163373ffffffffffffffffffffffffffffffffffffffff1614613cdc576040517f08c379a0000000000000000000000000000000000000000000000000000000008152600401613cd390618599565b60405180910390fd5b613d087fdfaa13867b66b2e05a8cd1d9df1f5c893d763672d353c65dbfe157a0090e70bd60001b616b5b565b613d347f378de486416f17c17073d8a3f4bab838645b2b3dc2a866aef6202363df22f39c60001b616b5b565b613d607f588999f9821fda6ebfb87d5175cb1f51dd9969ff5e187ebfd4bceae284b07e7960001b616b5b565b613d8c7fa8942dcc0068439c7b6d0edc9183410ad3b043d1abc5f295b65087c5f1f012f360001b616b5b565b613db87f03805d69cf7068a70b94c962fdd181913ee62b3496495ba5e006225bf94ebcba60001b616b5b565b80600160006101000a81548173ffffffffffffffffffffffffffffffffffffffff021916908373ffffffffffffffffffffffffffffffffffffffff160217905550613e257f25ea49d7e601c4cd71486719f90ed2a2977668252282004272f26d6e75db18da60001b616b5b565b613e517fe13cad074f00ea9430cbd7df97b671769baa26d80d8039880c6a84d2e102314860001b616b5b565b7fa6a85f15b976d399f39ad43e515e75910bac714bc55eeff6131fb90780d6f74681604051613e809190618347565b60405180910390a150565b61271081565b606081613ec07f291e3bf4a94e56df8cef0e35a44f26a3b8783a6a8f2d41bcba25817735767f0f60001b616b5b565b613eec7f6ef7f4d2c07b9487c40719e87b7abd5e759305269eb6e84dfdd52d8c32ac911560001b616b5b565b613f187f38e52f71e7961bf56303581fc9e1494ad8ae79ffef666632cfb06eca8cb3b88e60001b616b5b565b613f447fa158b02d6655320a886c4f1f04c25b0da59e237eda4b0fbb1e989440bdecf8bd60001b616b5b565b613f58816006616b5e90919063ffffffff16565b613f97576040517f08c379a0000000000000000000000000000000000000000000000000000000008152600401613f8e906185f9565b60405180910390fd5b613fc37f1c60be8f8a52f7445fa0ddb044bafe58e5c90970b34a30f005c2d696c2c0473360001b616b5b565b613fef7f6b608f56256dafe795133faf3c8666fd8bf010bd42a647471e1a96aee53eb16e60001b616b5b565b61401b7f91beaff368f37d9f00505b500580ccf0797f59baec0e40259729af583256b54e60001b616b5b565b6140477ff710ab27d8ebe038b0c198f1f33a00617d05df1cf292b284bf4543981cfb4bc460001b616b5b565b6140737f4eaf0857dcc962f7303c89fe317175f7409022d619ede527998c9d1beb0593ac60001b616b5b565b61409f7f1d8bc1dd82ee59fa584beea35e6dbefcdabdb6774e5c47704251ccc2d57ac02d60001b616b5b565b600073ffffffffffffffffffffffffffffffffffffffff16600260009054906101000a900473ffffffffffffffffffffffffffffffffffffffff1673ffffffffffffffffffffffffffffffffffffffff161415614131576040517f08c379a000000000000000000000000000000000000000000000000000000000815260040161412890618559565b60405180910390fd5b61415d7ff52713702f85fdab46f9c049c323450ea4a45b2bf22414214c6d4d8493d55c0160001b616b5b565b6141897febc91b7ec75b0a5fd231f8579a9ecac2d7f427c2851b0b0592124c969dc9e01c60001b616b5b565b6141b57f87df39644a916280622fe37c7d3338d9b21b5cda07f4faf8ab3fa979fbdf706460001b616b5b565b6141e17f9f6519ec180dfc3999f6dcb2f8aaa836f9691822c7583aa118e09d475626cb4c60001b616b5b565b61420d7f1b32fe858d1f6470e4ab9798aeaa067cd146c2332d3e033f9dcbcbe68f8dba4660001b616b5b565b600083905061423e7f4d739d00b5931e449b5fd118fef5643af2bedbda91ce036cd5afc4e836fbf2ff60001b616b5b565b61426a7fbef887d64bd60c0898373d07b43d6adbff6688db61c38cefe4aceb0f6ee674ee60001b616b5b565b60008173ffffffffffffffffffffffffffffffffffffffff1663a8c62e766040518163ffffffff1660e01b815260040160206040518083038186803b1580156142b257600080fd5b505afa1580156142c6573d6000803e3d6000fd5b505050506040513d601f19601f820116820180604052508101906142ea91906173c4565b90506143187fbc6ca0b78640ef4ed12a63a3809d1af3e3dc94098377a9d66c1d209fbb9a241960001b616b5b565b6143447f11d45e5af54591bf38888010251da7a9eafc326e049716054f5a913910ddd30d60001b616b5b565b60608173ffffffffffffffffffffffffffffffffffffffff166284fc3c6040518163ffffffff1660e01b815260040160006040518083038186803b15801561438b57600080fd5b505afa15801561439f573d6000803e3d6000fd5b505050506040513d6000823e3d601f19601f820116820180604052508101906143c891906175c2565b90506143f67fb46fb3e92af29cecddf10439c0650c1de871e9a0f251e8fa967bdb767b38475860001b616b5b565b6144227fc45d300de0da4c8598270baf1fb1f4f53ece8f7efb53f7e8734abfc31c7ed6ae60001b616b5b565b6060815167ffffffffffffffff8111801561443c57600080fd5b5060405190808252806020026020018201604052801561447657816020015b6144636170fc565b81526020019060019003908161445b5790505b5090506144a57f5fd2dd069e3e63105ba95a7a5cc66436ec704efdcea6bd5ba346f580186a277760001b616b5b565b6144d17f1b7fcee0b1993c1af4c59c9fd5ae9a95af0be11eccbc5cf8e2b7bf8aa0d307d760001b616b5b565b60005b82518110156148ba576145097f4ae64da189cc0e9abcd1dbbe9e3573b4291afc221f428b3a74840f487cc490f960001b616b5b565b6145357fd9155cbc2a506e2165f53a4e2eb635cb9778be82bec1c51beba5a4525fc04a6860001b616b5b565b6000600260009054906101000a900473ffffffffffffffffffffffffffffffffffffffff1673ffffffffffffffffffffffffffffffffffffffff16635145593485848151811061458157fe5b60200260200101516000015186858151811061459957fe5b6020026020010151602001516040518363ffffffff1660e01b81526004016145c292919061840c565b60206040518083038186803b1580156145da57600080fd5b505afa1580156145ee573d6000803e3d6000fd5b505050506040513d601f19601f820116820180604052508101906146129190617644565b90506146407f151cdf100f6f4e45305ae18180089650b28272021491bc1d5ee750e480496dfc60001b616b5b565b61466c7f4494839db3a128d10361f8426ba9ab4d583fc1cae2cf35963fae9fbd7672976e60001b616b5b565b604051806080016040528061469786858151811061468657fe5b602002602001015160000151612855565b81526020018584815181106146a857fe5b6020026020010151602001518152602001828152602001614892838973ffffffffffffffffffffffffffffffffffffffff1663b69ef8a86040518163ffffffff1660e01b815260040160206040518083038186803b15801561470957600080fd5b505afa15801561471d573d6000803e3d6000fd5b505050506040513d601f19601f820116820180604052508101906147419190617644565b60008b73ffffffffffffffffffffffffffffffffffffffff1663ecb9da776040518163ffffffff1660e01b815260040160206040518083038186803b15801561478957600080fd5b505afa15801561479d573d6000803e3d6000fd5b505050506040513d601f19601f820116820180604052508101906147c19190617644565b1161480e57600860008f73ffffffffffffffffffffffffffffffffffffffff1673ffffffffffffffffffffffffffffffffffffffff1681526020019081526020016000206003015461488d565b8a73ffffffffffffffffffffffffffffffffffffffff1663ecb9da776040518163ffffffff1660e01b815260040160206040518083038186803b15801561485457600080fd5b505afa158015614868573d6000803e3d6000fd5b505050506040513d601f19601f8201168201806040525081019061488c9190617644565b5b6162a4565b8152508383815181106148a157fe5b60200260200101819052505080806001019150506144d4565b506148e77f77de0cf4fc641d2381c9917857e9afa4c8b6f77691d7a8cd663babc5dac3271060001b616b5b565b6149137f41447123f55e47ec004fe3954a3316f2ee061489c1f42345f5f91ee998a74b6e60001b616b5b565b8095505050505050919050565b600060029054906101000a900473ffffffffffffffffffffffffffffffffffffffff1681565b600060019054906101000a900460ff16806149655750614964616cc2565b5b8061497b575060008054906101000a900460ff16155b6149ba576040517f08c379a00000000000000000000000000000000000000000000000000000000081526004016149b1906185d9565b60405180910390fd5b60008060019054906101000a900460ff161590508015614a0a576001600060016101000a81548160ff02191690831515021790555060016000806101000a81548160ff0219169083151502179055505b614a367f1e9473382bf8bc7d73597b062f8be6410f17d11d8a1aad9bbf781c5f4ece908560001b616b5b565b614a627f611b522c72a2b9d259f7bf79d1bdff667ca41dbc6e079947c3474aef1d308c2d60001b616b5b565b614a8e7ff62c1040691f665d09045256e65cd2556b5bd8fba9cef875c30cdbf3f13959ee60001b616b5b565b83600060026101000a81548173ffffffffffffffffffffffffffffffffffffffff021916908373ffffffffffffffffffffffffffffffffffffffff160217905550614afb7f8a5daae6cf1c4e50f1781c36d5028d0c44319b326634c898bdd0a12aef24b12f60001b616b5b565b614b277fac212237f1c733988684310767bdef2732805ae4d1327f725b337c6d9f57db9e60001b616b5b565b82600160006101000a81548173ffffffffffffffffffffffffffffffffffffffff021916908373ffffffffffffffffffffffffffffffffffffffff160217905550614b947f96ea37d9d0b03e6180e4aab1b026833d956b4fd01eb4bf6600bee6a0cb5afaa060001b616b5b565b614bc07f86355cfe64964d51b0a5ab5e778b0b04f76ddb7dc91b5a04c99eddfcd30d672a60001b616b5b565b81600260006101000a81548173ffffffffffffffffffffffffffffffffffffffff021916908373ffffffffffffffffffffffffffffffffffffffff1602179055508015614c225760008060016101000a81548160ff0219169083151502179055505b50505050565b6060614c567f2ca1b6eba36d898adc86afb0fa8f80c7a06d65b3d40a55365115cc3e75b23f7660001b616b5b565b614c827f3f56cc665f5c430ee2baa943f0128199907f58513376ea918ad3425e7bc7f67360001b616b5b565b614cae7f8dde0561e295e9e85b9038acdc38ce4a88155e40b67b91f96a63854f05d147ba60001b616b5b565b6060614cba6006616b8e565b67ffffffffffffffff81118015614cd057600080fd5b50604051908082528060200260200182016040528015614cff5781602001602082028036833780820191505090505b509050614d2e7f9eadd8393b271a64751297584b7c5bb2054369a0f3e22cc32c80a89403b413ab60001b616b5b565b614d5a7f0fa06fab99891d15df32843e0a4a94a64e812ef248d640674cba790f92d8efce60001b616b5b565b60005b614d676006616b8e565b811015614e2d57614d9a7f42e58107953b2ba5334419874a1532236bb6916f357f2043af16c806689e742260001b616b5b565b614dc67fb5737dc2ad541795ba86fa4f37fe259f43571f3bd6b993bf6028ebd274e4ac2960001b616b5b565b614dda816006616ba390919063ffffffff16565b828281518110614de657fe5b602002602001019073ffffffffffffffffffffffffffffffffffffffff16908173ffffffffffffffffffffffffffffffffffffffff16815250508080600101915050614d5d565b50614e5a7fb11eff709b7cf2f6e091c0c5b5ea3ac798b25ad98a44d9e369131689ca5da88260001b616b5b565b614e867f4524c539002e585803a1a79126e18f04aa723679b38622aa22c02848f6da4a2060001b616b5b565b8091505090565b614eb97fb848de8ce2906255398fe0276f8cfd81912d1adf4b359fd7a9bb263900178ca060001b616b5b565b614ee57fbb9c00a1fd3cba5f6a3cb8488a79e2bc650d82343067036ae3f357b8c8439a0560001b616b5b565b614f117f6a1871fd3a3079119817da3367eaf64a218a695dfd5e30a93fec8c0c0a8e797160001b616b5b565b614f3d7f6d9bafa07ed2b675cb71fc8cd86832de54235cf9d0bbd66277e1249da7d3e8aa60001b616b5b565b600160009054906101000a900473ffffffffffffffffffffffffffffffffffffffff1673ffffffffffffffffffffffffffffffffffffffff163373ffffffffffffffffffffffffffffffffffffffff1614614fcd576040517f08c379a0000000000000000000000000000000000000000000000000000000008152600401614fc490618599565b60405180910390fd5b614ff97fdfaa13867b66b2e05a8cd1d9df1f5c893d763672d353c65dbfe157a0090e70bd60001b616b5b565b6150257f378de486416f17c17073d8a3f4bab838645b2b3dc2a866aef6202363df22f39c60001b616b5b565b816150527f291e3bf4a94e56df8cef0e35a44f26a3b8783a6a8f2d41bcba25817735767f0f60001b616b5b565b61507e7f6ef7f4d2c07b9487c40719e87b7abd5e759305269eb6e84dfdd52d8c32ac911560001b616b5b565b6150aa7f38e52f71e7961bf56303581fc9e1494ad8ae79ffef666632cfb06eca8cb3b88e60001b616b5b565b6150d67fa158b02d6655320a886c4f1f04c25b0da59e237eda4b0fbb1e989440bdecf8bd60001b616b5b565b6150ea816006616b5e90919063ffffffff16565b615129576040517f08c379a0000000000000000000000000000000000000000000000000000000008152600401615120906185f9565b60405180910390fd5b6151557f1c60be8f8a52f7445fa0ddb044bafe58e5c90970b34a30f005c2d696c2c0473360001b616b5b565b6151817f6b608f56256dafe795133faf3c8666fd8bf010bd42a647471e1a96aee53eb16e60001b616b5b565b6151ad7fa9ce7dc9abbdea55404045a568853f7e9321c8a00086fab11779b3683f459ab960001b616b5b565b6151d97f3e7881c0b763bacc303fbad59d87f79d3a4b1d979c60942d612c23658ae8889860001b616b5b565b6152057fb6797651f0e0b81e43a2ca3835bc1249de81214dbdd3814bc75ece52ebd7cceb60001b616b5b565b6000600860008573ffffffffffffffffffffffffffffffffffffffff1673ffffffffffffffffffffffffffffffffffffffff16815260200190815260200160002090506152747fe4bc9246aa1afbc110fc66bbb7094d5d1077c3ae80960c0518a47efab2036f0f60001b616b5b565b6152a07f59a1b300610e11b55155b38cf788efd75933839e7ab662fd78fe71c99b05fbd160001b616b5b565b828160010160146101000a81548160ff021916908360028111156152c057fe5b02179055506152f17ff0eb233159f047d8c422911db6183e59e0109f06f133063cbbed434ff73354d660001b616b5b565b61531d7f4c9e3f0cb4eff31f770b04020f71dceea670fa941a3915f72102a9b3ef25c85f60001b616b5b565b82600281111561532957fe5b8473ffffffffffffffffffffffffffffffffffffffff167ff92e1ef2628cc3dd3ba0c57f85ab0bd84c9a05fa765c1a07c49bee1493d85dd760405160405180910390a350505050565b61537a616f4f565b826153a77f291e3bf4a94e56df8cef0e35a44f26a3b8783a6a8f2d41bcba25817735767f0f60001b616b5b565b6153d37f6ef7f4d2c07b9487c40719e87b7abd5e759305269eb6e84dfdd52d8c32ac911560001b616b5b565b6153ff7f38e52f71e7961bf56303581fc9e1494ad8ae79ffef666632cfb06eca8cb3b88e60001b616b5b565b61542b7fa158b02d6655320a886c4f1f04c25b0da59e237eda4b0fbb1e989440bdecf8bd60001b616b5b565b61543f816006616b5e90919063ffffffff16565b61547e576040517f08c379a0000000000000000000000000000000000000000000000000000000008152600401615475906185f9565b60405180910390fd5b6154aa7f1c60be8f8a52f7445fa0ddb044bafe58e5c90970b34a30f005c2d696c2c0473360001b616b5b565b6154d67f6b608f56256dafe795133faf3c8666fd8bf010bd42a647471e1a96aee53eb16e60001b616b5b565b6155027f7186465bdf233d01edfbf74c96f2f2da6bfc99cd34d42f1d676876e6e48feab560001b616b5b565b61552e7f7151cfa9a0957ffd4c42d2bf3407f35f5c22da3102899282b83e64c4b3e8df7b60001b616b5b565b61555a7fc3a15836a0c5eb58455e2896ba0871e1885eb8ccf410b8e29ffa1dd980ac890360001b616b5b565b600084905061558b7f4cdbafd174057bcc61eee188f8955382fa8877837d9f42fbdf735a9b65e2e71c60001b616b5b565b6155b77f162ba90ca358e4a492ccc7ad9c0f488671a7c60c6e14bf70e9cf1c4185f582be60001b616b5b565b8073ffffffffffffffffffffffffffffffffffffffff16631fe4a6866040518163ffffffff1660e01b815260040160206040518083038186803b1580156155fd57600080fd5b505afa158015615611573d6000803e3d6000fd5b505050506040513d601f19601f8201168201806040525081019061563591906173c4565b836000019073ffffffffffffffffffffffffffffffffffffffff16908173ffffffffffffffffffffffffffffffffffffffff16815250506156987f4921e8acbc6939b8d3e00c986f3c6d15c3c9975938b1d4c60ebaa9fd051b0bb460001b616b5b565b6156c47f053d0a8f92d4208e8dc6a85b251a0d075728f77ec623897473dd8029f8eb5c9560001b616b5b565b600860008673ffffffffffffffffffffffffffffffffffffffff1673ffffffffffffffffffffffffffffffffffffffff16815260200190815260200160002060010160149054906101000a900460ff168360200190600281111561572457fe5b9081600281111561573157fe5b815250506157617f5ed2f7b68d7d0ccbc60e46f7f447105857dff3edb4e29d960589dd9ee706d2ee60001b616b5b565b61578d7f1663a7b0112f025eab1715bdd23ab19b9ba32a620858577ca76fb5ecac64d12660001b616b5b565b84836040019073ffffffffffffffffffffffffffffffffffffffff16908173ffffffffffffffffffffffffffffffffffffffff16815250506157f17f174d22c0ec3958a4a2fc9853df4f8f4acdd3bc77b67dabaac9fba82415cb33f960001b616b5b565b61581d7fb64d41f6b1ae5381382437e1c96c03f6ba5fe7c5be401d7a4c3484d6c6c6ea3360001b616b5b565b6158a38173ffffffffffffffffffffffffffffffffffffffff1663fc0c546a6040518163ffffffff1660e01b815260040160206040518083038186803b15801561586657600080fd5b505afa15801561587a573d6000803e3d6000fd5b505050506040513d601f19601f8201168201806040525081019061589e91906173c4565b612855565b83606001819052506158d77f83b4e384dda59ef2fff04b83b2702c9c55b307e8e7e96fd47a13875e9e7a8d3f60001b616b5b565b6159037f0efb4d22417c0995deda6b9e2ceba7a7aa52f9cbb54c131e1f4d8b56d829cd5260001b616b5b565b8073ffffffffffffffffffffffffffffffffffffffff166306fdde036040518163ffffffff1660e01b815260040160006040518083038186803b15801561594957600080fd5b505afa15801561595d573d6000803e3d6000fd5b505050506040513d6000823e3d601f19601f820116820180604052508101906159869190617603565b83608001819052506159ba7f98e41baf1a7c60c25e5e3fe142c037a9f4ee2042dbbad8ae12fab46cfea4ccda60001b616b5b565b6159e67f0430c84f9d12bf08dc6b5786fcfb6312ddd0210293ac9d8d58bbe9a3da2f767360001b616b5b565b8073ffffffffffffffffffffffffffffffffffffffff166395d89b416040518163ffffffff1660e01b815260040160006040518083038186803b158015615a2c57600080fd5b505afa158015615a40573d6000803e3d6000fd5b505050506040513d6000823e3d601f19601f82011682018060405250810190615a699190617603565b8360a00181905250615a9d7f4574208e53d9a596f470a3db775be669fc43237544c9b817a07fc3551e7d73ad60001b616b5b565b615ac97fb1635b3314cd09b4c9f885c7d8da98239fec72311d53c9b79bc24933adb7861260001b616b5b565b600073ffffffffffffffffffffffffffffffffffffffff168473ffffffffffffffffffffffffffffffffffffffff1614615b9957615b297feeadb613e049a0793fa3e635fea9ad854d895c0925da9cd28e6236b7bade166260001b616b5b565b615b557ff8728423f58083d45ca25efd7ae765e63eed3c2481a44955e72d811bc476752160001b616b5b565b615b817fe8599a5b767f2caa88ac5b7cbae93b2a6912494af655c47b7f8853045a2a6c8860001b616b5b565b615b8b8585613145565b836101000181905250615c5b565b615bc57f306c466def1f0ebff5cdb1a0ee874b1121ccbd3836737abd31d9e9fbe342b67160001b616b5b565b615bf17fcd20f7c1c20728cea8b34cbb483755177cade95852ecdf0a02d7e40ebb2f962d60001b616b5b565b615c1d7f9516ed223488d24517d450eb8d6580616f88175163cdb8878e134e1ae669b97360001b616b5b565b6040518060600160405280600073ffffffffffffffffffffffffffffffffffffffff1681526020016000815260200160008152508361010001819052505b615c877fe76dee21c75fe5607f395bed1b5041b6af3b89346b161c183f3a27ec6902a4bd60001b616b5b565b615cb37f04875f96715242d8649b1ced5204da7d3eaf92a56d1cc25d8c12e310a063520460001b616b5b565b600073ffffffffffffffffffffffffffffffffffffffff168173ffffffffffffffffffffffffffffffffffffffff1663a8c62e766040518163ffffffff1660e01b815260040160206040518083038186803b158015615d1157600080fd5b505afa158015615d25573d6000803e3d6000fd5b505050506040513d601f19601f82011682018060405250810190615d4991906173c4565b73ffffffffffffffffffffffffffffffffffffffff161415615d6c576000615f14565b600260009054906101000a900473ffffffffffffffffffffffffffffffffffffffff1673ffffffffffffffffffffffffffffffffffffffff1663514559348273ffffffffffffffffffffffffffffffffffffffff1663fc0c546a6040518163ffffffff1660e01b815260040160206040518083038186803b158015615df057600080fd5b505afa158015615e04573d6000803e3d6000fd5b505050506040513d601f19601f82011682018060405250810190615e2891906173c4565b8373ffffffffffffffffffffffffffffffffffffffff1663b69ef8a86040518163ffffffff1660e01b815260040160206040518083038186803b158015615e6e57600080fd5b505afa158015615e82573d6000803e3d6000fd5b505050506040513d601f19601f82011682018060405250810190615ea69190617644565b6040518363ffffffff1660e01b8152600401615ec392919061840c565b60206040518083038186803b158015615edb57600080fd5b505afa158015615eef573d6000803e3d6000fd5b505050506040513d601f19601f82011682018060405250810190615f139190617644565b5b8360c0018181525050615f497fa4e57f388d9409415b637b2f9d7c2c616174926bf551a4d683b084f46e44eedc60001b616b5b565b615f757f9af93c2cf8e2d925cf958fa5d513371c1d66bcea3e7fe0337612f10557c4138860001b616b5b565b600073ffffffffffffffffffffffffffffffffffffffff168173ffffffffffffffffffffffffffffffffffffffff1663a8c62e766040518163ffffffff1660e01b815260040160206040518083038186803b158015615fd357600080fd5b505afa158015615fe7573d6000803e3d6000fd5b505050506040513d601f19601f8201168201806040525081019061600b91906173c4565b73ffffffffffffffffffffffffffffffffffffffff161415616206576160537fed6ae0bfb7d3a5ff3114e41dba68a9fe201eee19c89dd65725c8d0ea29fcb6b560001b616b5b565b61607f7f08119b92b50fbef16b933f3d4368c15b5dd040d65e9266f1cf4d7c73a4e1a36660001b616b5b565b6160ab7f23af0d94c7e7aea61f13021c4854cc800d72c9fc8113ddec45616eb0ef9611b460001b616b5b565b6060600167ffffffffffffffff811180156160c557600080fd5b506040519080825280602002602001820160405280156160ff57816020015b6160ec6170fc565b8152602001906001900390816160e45790505b50905061612e7fec817f6e901bb9154a5cbaed997063c93f8cac924f61e63474bd78f2c4149b0d60001b616b5b565b61615a7feb5a5a4ea2710b616e10f81c5e3ae750eae3cb28b1f85675da3996d215777b7360001b616b5b565b604051806080016040528061616f6000612855565b8152602001600081526020016000815260200160008152508160008151811061619457fe5b60200260200101819052506161cb7fbdc8085b8876ac98a3c3a9f3c983405447e5781dceb1f75cc24f31588239a50560001b616b5b565b6161f77f66e6600265f32ca99331d13e18564c86dfa4e14ad4eb95b4f04e143ab9883f0c60001b616b5b565b808460e001819052505061629c565b6162327fef1a69d7e10784c7a2b4e95153e9c04c09927eabe49d761329525795d2807a5f60001b616b5b565b61625e7f04472eee42d8bf0e4afea1715b0ccec6f9012105377ab6997f11feb430a01b0460001b616b5b565b61628a7fa0af5fd73b2db94b666e2790673c8d7eba57e6c3325463b727c55c214d212d3960001b616b5b565b61629385613e91565b8360e001819052505b505092915050565b60006162d27f453059a4598d83e8ac22bb9bfbe8af0f25ba32125f378b19a9444d3b43acd98b60001b616b5b565b6162fe7f165756718bd0b0e14d231e42960003966b1d153f12ba41ad10ff951c14a5ad5860001b616b5b565b61632a7fd97404e35f492d5486ff71f7304c4f86a28be3cf043fc946ad1bced4be8458d560001b616b5b565b600083116163935761635e7f141b5352c6c4791cdd1dc0a1f7c8a3f63595e7d544ecae49d88e602b9212bfb760001b616b5b565b61638a7f905ac1ecee13fb3bd1d28fc3ce79ddbe4aa778b930f4ff7043f4d37a50c93bbe60001b616b5b565b60009050616525565b6163bf7fd8e1805a6b8c8c1836a106ec576f992512fbae9384a275c5d06a8e5fcf036e9b60001b616b5b565b6163eb7fc64228b01d02de1fcd7535ddd38e71d3c4c6d6ea31af435c34ffbbd594182c8860001b616b5b565b6164177f01f83d367c933d7387ab0b8c7fbb51e59f5a4697311fb717cea5dbe3b9e1b3e060001b616b5b565b81421161647f5761644a7f205c36ae55ca067c106be0c2ebdb3d5519cad0b0c0e1998d88ec2d7f0577a5be60001b616b5b565b6164767f6d456ff6929ce06fda4106438d340170599c82f59290082dbced073432e3d77d60001b616b5b565b60009050616525565b6164ab7f606265160229a57a154efafde7dcd41313cb566791d44f0cc0665d6fc962d45b60001b616b5b565b6164d77fcf43ce37ec0562fc77764d731711af52f8c918c100d4e0f7be02fb7d0d4e34f560001b616b5b565b6165037f66d1cf353e1fdac71d7f43ec32530351a13300f6e972aca843b0b003dc0556f760001b616b5b565b828242036301e187e08161651357fe5b046127108602028161652157fe5b0490505b9392505050565b670de0b6b3a764000081565b6165647fb848de8ce2906255398fe0276f8cfd81912d1adf4b359fd7a9bb263900178ca060001b616b5b565b6165907fbb9c00a1fd3cba5f6a3cb8488a79e2bc650d82343067036ae3f357b8c8439a0560001b616b5b565b6165bc7f6a1871fd3a3079119817da3367eaf64a218a695dfd5e30a93fec8c0c0a8e797160001b616b5b565b6165e87f6d9bafa07ed2b675cb71fc8cd86832de54235cf9d0bbd66277e1249da7d3e8aa60001b616b5b565b600160009054906101000a900473ffffffffffffffffffffffffffffffffffffffff1673ffffffffffffffffffffffffffffffffffffffff163373ffffffffffffffffffffffffffffffffffffffff1614616678576040517f08c379a000000000000000000000000000000000000000000000000000000000815260040161666f90618599565b60405180910390fd5b6166a47fdfaa13867b66b2e05a8cd1d9df1f5c893d763672d353c65dbfe157a0090e70bd60001b616b5b565b6166d07f378de486416f17c17073d8a3f4bab838645b2b3dc2a866aef6202363df22f39c60001b616b5b565b6166fc7f8cfdba1851561d41361c460f4d6b83a7dfed71bef687e6946624bd3ba915efe860001b616b5b565b6167287f590b95f86dabfd06b2544ac0675d0d5ab512cf4fb7ae01e75d861eb6483c10a960001b616b5b565b6167547f88aaf13eaac4a96f6fb04519a74253d65f5bf64047f3f614d28eb7e7d68bb58360001b616b5b565b80600260006101000a81548173ffffffffffffffffffffffffffffffffffffffff021916908373ffffffffffffffffffffffffffffffffffffffff1602179055506167c17fa229b65599ab2f090c52c9f5afeebc94d65a28ce381dbfa94ffa4e939dd630e160001b616b5b565b6167ed7fdca1a5f15ef138e7762338f56fbb316a0f29d741c37d88eafdc544a11a9dc05c60001b616b5b565b7fadf13a40d79f15f930d45864c000be196be659057551d7ae8700cc84826214258160405161681c9190618347565b60405180910390a150565b61682f6170cc565b61685b7f6010d5b6d4e70a51bb8b6c6c76e4b5f23a89d080d7da9e9f29d764386c66ebcb60001b616b5b565b6168877f417c0f262dd9de4069d680c93c0fad7ddd44cffb5e07ea4faa6f7104dc21d6f060001b616b5b565b6168b37f2de1be9f297cd03983237c9e94694c228ddae1d004aaff2498b7efd1e3d1a74260001b616b5b565b60606168fc600560008673ffffffffffffffffffffffffffffffffffffffff1673ffffffffffffffffffffffffffffffffffffffff168152602001908152602001600020616b8e565b67ffffffffffffffff8111801561691257600080fd5b5060405190808252806020026020018201604052801561694c57816020015b616939616f4f565b8152602001906001900390816169315790505b50905061697b7f106abc55c6df949fb18f485bc563d3fa86e1850ac55702ff1371de33be8d2e9d60001b616b5b565b6169a77ffe861ca89b55f4299148996ad4a332ff8319f3374c54ebecfc9a3a93267c6e3860001b616b5b565b60005b6169f1600560008773ffffffffffffffffffffffffffffffffffffffff1673ffffffffffffffffffffffffffffffffffffffff168152602001908152602001600020616b8e565b811015616ace57616a247fac3ec393ef2894b08321abd4349ef5f71e021afb9a0bfe8d1ea14382924251bf60001b616b5b565b616a507fc6a53da0775f1bc6fc19abc4958b093d5c3fbe6683f4e3a8dbf4ee129d7dbb1f60001b616b5b565b616aaa616aa482600560008973ffffffffffffffffffffffffffffffffffffffff1673ffffffffffffffffffffffffffffffffffffffff168152602001908152602001600020616ba390919063ffffffff16565b85615372565b828281518110616ab657fe5b602002602001018190525080806001019150506169aa565b50616afb7f1ef0552a2a7d9842eac667a8c3c2b874b1a61b893f4a7ef66113b9bf3d17815b60001b616b5b565b616b277f5847625e51c7ea44541b4790fed47b360ca7ddee338d5543286bdbc834b7bab760001b616b5b565b60405180604001604052808573ffffffffffffffffffffffffffffffffffffffff1681526020018281525091505092915050565b50565b6000616b86836000018373ffffffffffffffffffffffffffffffffffffffff1660001b616cd3565b905092915050565b6000616b9c82600001616cf6565b9050919050565b6000616bb28360000183616d07565b60001c905092915050565b60006040517f3d602d80600a3d3981f3363d3d373d3d3d363d7300000000000000000000000081528260601b60148201527f5af43d82803e903d91602b57fd5bf3000000000000000000000000000000000060288201526037816000f0915050600073ffffffffffffffffffffffffffffffffffffffff168173ffffffffffffffffffffffffffffffffffffffff161415616c8d576040517f08c379a0000000000000000000000000000000000000000000000000000000008152600401616c84906185b9565b60405180910390fd5b919050565b6000616cba836000018373ffffffffffffffffffffffffffffffffffffffff1660001b616d74565b905092915050565b6000616ccd30616de4565b15905090565b600080836001016000848152602001908152602001600020541415905092915050565b600081600001805490509050919050565b600081836000018054905011616d52576040517f08c379a0000000000000000000000000000000000000000000000000000000008152600401616d4990618539565b60405180910390fd5b826000018281548110616d6157fe5b9060005260206000200154905092915050565b6000616d808383616cd3565b616dd9578260000182908060018154018082558091505060019003906000526020600020016000909190919091505582600001805490508360010160008481526020019081526020016000208190555060019050616dde565b600090505b92915050565b600080823b905060008111915050919050565b604051806102c00160405280600073ffffffffffffffffffffffffffffffffffffffff16815260200160006002811115616e2d57fe5b81526020016060815260200160008152602001600073ffffffffffffffffffffffffffffffffffffffff168152602001616e65617095565b8152602001600073ffffffffffffffffffffffffffffffffffffffff168152602001600073ffffffffffffffffffffffffffffffffffffffff168152602001600073ffffffffffffffffffffffffffffffffffffffff168152602001600073ffffffffffffffffffffffffffffffffffffffff168152602001606081526020016060815260200160008152602001600081526020016000815260200160008152602001600073ffffffffffffffffffffffffffffffffffffffff168152602001616f2d616fde565b8152602001600081526020016000815260200160008152602001606081525090565b604051806101200160405280600073ffffffffffffffffffffffffffffffffffffffff16815260200160006002811115616f8557fe5b8152602001600073ffffffffffffffffffffffffffffffffffffffff168152602001616faf617095565b815260200160608152602001606081526020016000815260200160608152602001616fd8616fde565b81525090565b6040518060600160405280600073ffffffffffffffffffffffffffffffffffffffff16815260200160008152602001600081525090565b828054600181600116156101000203166002900490600052602060002090601f016020900481019282601f1061705657805160ff1916838001178555617084565b82800160010185558215617084579182015b82811115617083578251825591602001919060010190617068565b5b509050617091919061712a565b5090565b6040518060600160405280600073ffffffffffffffffffffffffffffffffffffffff16815260200160608152602001606081525090565b6040518060400160405280600073ffffffffffffffffffffffffffffffffffffffff168152602001606081525090565b604051806080016040528061710f617095565b81526020016000815260200160008152602001600081525090565b5b8082111561714357600081600090555060010161712b565b5090565b60008135905061715681618a2e565b92915050565b60008151905061716b81618a2e565b92915050565b600082601f83011261718257600080fd5b815161719561719082618704565b6186d7565b915081818352602084019350602081019050838560408402820111156171ba57600080fd5b60005b838110156171ea57816171d08882617325565b8452602084019350604083019250506001810190506171bd565b5050505092915050565b600082601f83011261720557600080fd5b60046172186172138261872c565b6186d7565b9150818385602084028201111561722e57600080fd5b60005b8381101561725e57816172448882617371565b845260208401935060208301925050600181019050617231565b5050505092915050565b60008135905061727781618a45565b92915050565b600082601f83011261728e57600080fd5b81356172a161729c8261874e565b6186d7565b915080825260208301602083018583830111156172bd57600080fd5b6172c88382846189ce565b50505092915050565b600082601f8301126172e257600080fd5b81516172f56172f08261874e565b6186d7565b9150808252602083016020830185838301111561731157600080fd5b61731c8382846189dd565b50505092915050565b60006040828403121561733757600080fd5b61734160406186d7565b905060006173518482850161715c565b600083015250602061736584828501617386565b60208301525092915050565b60008135905061738081618a55565b92915050565b60008151905061739581618a55565b92915050565b6000602082840312156173ad57600080fd5b60006173bb84828501617147565b91505092915050565b6000602082840312156173d657600080fd5b60006173e48482850161715c565b91505092915050565b6000806040838503121561740057600080fd5b600061740e85828601617147565b925050602061741f85828601617147565b9150509250929050565b60008060006060848603121561743e57600080fd5b600061744c86828701617147565b935050602061745d86828701617147565b925050604061746e86828701617147565b9150509250925092565b60008060008060008060008060006101808a8c03121561749757600080fd5b60006174a58c828d01617147565b99505060206174b68c828d01617147565b98505060406174c78c828d01617147565b97505060606174d88c828d01617147565b96505060806174e98c828d01617147565b95505060a08a013567ffffffffffffffff81111561750657600080fd5b6175128c828d0161727d565b94505060c08a013567ffffffffffffffff81111561752f57600080fd5b61753b8c828d0161727d565b93505060e061754c8c828d016171f4565b9250506101608a013567ffffffffffffffff81111561756a57600080fd5b6175768c828d0161727d565b9150509295985092959850929598565b6000806040838503121561759957600080fd5b60006175a785828601617147565b92505060206175b885828601617268565b9150509250929050565b6000602082840312156175d457600080fd5b600082015167ffffffffffffffff8111156175ee57600080fd5b6175fa84828501617171565b91505092915050565b60006020828403121561761557600080fd5b600082015167ffffffffffffffff81111561762f57600080fd5b61763b848285016172d1565b91505092915050565b60006020828403121561765657600080fd5b600061766484828501617386565b91505092915050565b60008060006060848603121561768257600080fd5b600061769086828701617371565b93505060206176a186828701617371565b92505060406176b286828701617371565b9150509250925092565b60006176c8838361774f565b60208301905092915050565b60006176e08383617d74565b905092915050565b60006176f48383617dee565b60608301905092915050565b600061770c8383617e72565b905092915050565b60006177208383618175565b905092915050565b60006177348383618329565b60208301905092915050565b61774981618962565b82525050565b61775881618913565b82525050565b61776781618913565b82525050565b6000617778826187d4565b617782818561886f565b935061778d8361877a565b8060005b838110156177be5781516177a588826176bc565b97506177b083618821565b925050600181019050617791565b5085935050505092915050565b60006177d6826187df565b6177e08185618880565b9350836020820285016177f28561878a565b8060005b8581101561782e578484038952815161780f85826176d4565b945061781a8361882e565b925060208a019950506001810190506177f6565b50829750879550505050505092915050565b600061784b826187ea565b6178558185618891565b93506178608361879a565b8060005b8381101561789157815161787888826176e8565b97506178838361883b565b925050600181019050617864565b5085935050505092915050565b60006178a9826187f5565b6178b381856188a2565b9350836020820285016178c5856187aa565b8060005b8581101561790157848403895281516178e28582617700565b94506178ed83618848565b925060208a019950506001810190506178c9565b50829750879550505050505092915050565b600061791e826187f5565b61792881856188b3565b93508360208202850161793a856187aa565b8060005b8581101561797657848403895281516179578582617700565b945061796283618848565b925060208a0199505060018101905061793e565b50829750879550505050505092915050565b600061799382618800565b61799d81856188c4565b9350836020820285016179af856187ba565b8060005b858110156179eb57848403895281516179cc8582617714565b94506179d783618855565b925060208a019950506001810190506179b3565b50829750879550505050505092915050565b6000617a0882618800565b617a1281856188d5565b935083602082028501617a24856187ba565b8060005b85811015617a605784840389528151617a418582617714565b9450617a4c83618855565b925060208a01995050600181019050617a28565b50829750879550505050505092915050565b617a7b8161880b565b617a8581846188e6565b9250617a90826187ca565b8060005b83811015617ac1578151617aa88782617728565b9650617ab383618862565b925050600181019050617a94565b505050505050565b617ad281618974565b82525050565b617ae181618998565b82525050565b617af081618998565b82525050565b6000617b0182618816565b617b0b81856188f1565b9350617b1b8185602086016189dd565b617b2481618a10565b840191505092915050565b6000617b3a82618816565b617b448185618902565b9350617b548185602086016189dd565b617b5d81618a10565b840191505092915050565b6000617b75602283618902565b91507f456e756d657261626c655365743a20696e646578206f7574206f6620626f756e60008301527f64730000000000000000000000000000000000000000000000000000000000006020830152604082019050919050565b6000617bdb600e83618902565b91507f6e6f20707269636546696e6465720000000000000000000000000000000000006000830152602082019050919050565b6000617c1b601183618902565b91507f6e6f20696d706c656d656e746174696f6e0000000000000000000000000000006000830152602082019050919050565b6000617c5b600f83618902565b91507f6f6e6c7920676f7665726e616e636500000000000000000000000000000000006000830152602082019050919050565b6000617c9b601683618902565b91507f455243313136373a20637265617465206661696c6564000000000000000000006000830152602082019050919050565b6000617cdb602e83618902565b91507f496e697469616c697a61626c653a20636f6e747261637420697320616c72656160008301527f647920696e697469616c697a65640000000000000000000000000000000000006020830152604082019050919050565b6000617d41600f83618902565b91507f6e6f207661756c742065786973747300000000000000000000000000000000006000830152602082019050919050565b6000604083016000830151617d8c600086018261774f565b5060208301518482036020860152617da48282617988565b9150508091505092915050565b6000604083016000830151617dc9600086018261774f565b5060208301518482036020860152617de18282617988565b9150508091505092915050565b606082016000820151617e04600085018261774f565b506020820151617e176020850182618329565b506040820151617e2a6040850182618329565b50505050565b606082016000820151617e46600085018261774f565b506020820151617e596020850182618329565b506040820151617e6c6040850182618329565b50505050565b60006080830160008301518482036000860152617e8f8282617ed5565b9150506020830151617ea46020860182618329565b506040830151617eb76040860182618329565b506060830151617eca6060860182618329565b508091505092915050565b6000606083016000830151617eed600086018261774f565b5060208301518482036020860152617f058282617af6565b91505060408301518482036040860152617f1f8282617af6565b9150508091505092915050565b6000606083016000830151617f44600086018261774f565b5060208301518482036020860152617f5c8282617af6565b91505060408301518482036040860152617f768282617af6565b9150508091505092915050565b600061030083016000830151617f9c600086018261774f565b506020830151617faf6020860182617ad8565b5060408301518482036040860152617fc78282617af6565b9150506060830151617fdc6060860182618329565b506080830151617fef608086018261774f565b5060a083015184820360a08601526180078282617ed5565b91505060c083015161801c60c086018261774f565b5060e083015161802f60e086018261774f565b5061010083015161804461010086018261774f565b5061012083015161805961012086018261774f565b506101408301518482036101408601526180738282617af6565b91505061016083015184820361016086015261808f8282617af6565b9150506101808301516180a6610180860182618329565b506101a08301516180bb6101a0860182618329565b506101c08301516180d06101c0860182618329565b506101e08301516180e56101e0860182618329565b506102008301516180fa61020086018261774f565b5061022083015161810f610220860182617dee565b50610240830151618124610280860182618329565b506102608301516181396102a0860182618329565b5061028083015161814e6102c0860182618329565b506102a08301518482036102e0860152618168828261789e565b9150508091505092915050565b60006101608301600083015161818e600086018261774f565b5060208301516181a16020860182617ad8565b5060408301516181b4604086018261774f565b50606083015184820360608601526181cc8282617ed5565b915050608083015184820360808601526181e68282617af6565b91505060a083015184820360a08601526182008282617af6565b91505060c083015161821560c0860182618329565b5060e083015184820360e086015261822d828261789e565b915050610100830151618244610100860182617dee565b508091505092915050565b600061016083016000830151618268600086018261774f565b50602083015161827b6020860182617ad8565b50604083015161828e604086018261774f565b50606083015184820360608601526182a68282617ed5565b915050608083015184820360808601526182c08282617af6565b91505060a083015184820360a08601526182da8282617af6565b91505060c08301516182ef60c0860182618329565b5060e083015184820360e0860152618307828261789e565b91505061010083015161831e610100860182617dee565b508091505092915050565b61833281618958565b82525050565b61834181618958565b82525050565b600060208201905061835c600083018461775e565b92915050565b60006101a082019050618378600083018d61775e565b618385602083018c617740565b618392604083018b61775e565b61839f606083018a61775e565b6183ac608083018961775e565b6183b960a0830188617740565b6183c660c083018761775e565b81810360e08301526183d88186617b2f565b90508181036101008301526183ed8185617b2f565b90506183fd610120830184617a72565b9b9a5050505050505050505050565b6000604082019050618421600083018561775e565b61842e6020830184618338565b9392505050565b6000602082019050818103600083015261844f818461776d565b905092915050565b6000602082019050818103600083015261847181846177cb565b905092915050565b600060208201905081810360008301526184938184617840565b905092915050565b600060208201905081810360008301526184b58184617913565b905092915050565b600060208201905081810360008301526184d781846179fd565b905092915050565b600060a0820190506184f46000830188617ac9565b618501602083018761775e565b61850e6040830186617ae7565b81810360608301526185208185617b2f565b905061852f6080830184618338565b9695505050505050565b6000602082019050818103600083015261855281617b68565b9050919050565b6000602082019050818103600083015261857281617bce565b9050919050565b6000602082019050818103600083015261859281617c0e565b9050919050565b600060208201905081810360008301526185b281617c4e565b9050919050565b600060208201905081810360008301526185d281617c8e565b9050919050565b600060208201905081810360008301526185f281617cce565b9050919050565b6000602082019050818103600083015261861281617d34565b9050919050565b600060208201905081810360008301526186338184617db1565b905092915050565b60006060820190506186506000830184617e30565b92915050565b600060208201905081810360008301526186708184617f2c565b905092915050565b600060208201905081810360008301526186928184617f83565b905092915050565b600060208201905081810360008301526186b4818461824f565b905092915050565b60006020820190506186d16000830184618338565b92915050565b6000604051905081810181811067ffffffffffffffff821117156186fa57600080fd5b8060405250919050565b600067ffffffffffffffff82111561871b57600080fd5b602082029050602081019050919050565b600067ffffffffffffffff82111561874357600080fd5b602082029050919050565b600067ffffffffffffffff82111561876557600080fd5b601f19601f8301169050602081019050919050565b6000819050602082019050919050565b6000819050602082019050919050565b6000819050602082019050919050565b6000819050602082019050919050565b6000819050602082019050919050565b6000819050919050565b600081519050919050565b600081519050919050565b600081519050919050565b600081519050919050565b600081519050919050565b600060049050919050565b600081519050919050565b6000602082019050919050565b6000602082019050919050565b6000602082019050919050565b6000602082019050919050565b6000602082019050919050565b6000602082019050919050565b600082825260208201905092915050565b600082825260208201905092915050565b600082825260208201905092915050565b600082825260208201905092915050565b600082825260208201905092915050565b600082825260208201905092915050565b600082825260208201905092915050565b600081905092915050565b600082825260208201905092915050565b600082825260208201905092915050565b600061891e82618938565b9050919050565b600081905061893382618a21565b919050565b600073ffffffffffffffffffffffffffffffffffffffff82169050919050565b6000819050919050565b600061896d826189aa565b9050919050565b600061897f82618986565b9050919050565b600061899182618938565b9050919050565b60006189a382618925565b9050919050565b60006189b5826189bc565b9050919050565b60006189c782618938565b9050919050565b82818337600083830152505050565b60005b838110156189fb5780820151818401526020810190506189e0565b83811115618a0a576000848401525b50505050565b6000601f19601f8301169050919050565b60038110618a2b57fe5b50565b618a3781618913565b8114618a4257600080fd5b50565b60038110618a5257600080fd5b50565b618a5e81618958565b8114618a6957600080fd5b5056fea26469706673582212202edbf1b303f607e54a4069370b1d0c87a88a7e4b7e8f6f7acb1c657a7e24df8d64736f6c634300060c0033",
  "linkReferences": {},
  "deployedLinkReferences": {}
}