{
  "_format": "hh-sol-artifact-1",
  "contractName": "Vault",
  "sourceName": "contracts/lib/Vault.sol",
  "abi": [
    {
      "anonymous": false,
      "inputs": [
        {
          "indexed": true,
          "internalType": "address",
          "name": "owner",
          "type": "address"
        },
        {
          "indexed": true,
          "internalType": "address",
          "name": "spender",
          "type": "address"
        },
        {
          "indexed": false,
          "internalType": "uint256",
          "name": "value",
          "type": "uint256"
        }
      ],
      "name": "Approval",
      "type": "event"
    },
    {
      "anonymous": false,
      "inputs": [
        {
          "indexed": true,
          "internalType": "address",
          "name": "token",
          "type": "address"
        },
        {
          "indexed": false,
          "internalType": "uint256",
          "name": "amount",
          "type": "uint256"
        },
        {
          "indexed": true,
          "internalType": "uint256",
          "name": "blockNumber",
          "type": "uint256"
        },
        {
          "indexed": false,
          "internalType": "uint256",
          "name": "timestamp",
          "type": "uint256"
        }
      ],
      "name": "Harvested",
      "type": "event"
    },
    {
      "anonymous": false,
      "inputs": [
        {
          "indexed": true,
          "internalType": "address",
          "name": "pausedBy",
          "type": "address"
        }
      ],
      "name": "PauseDeposits",
      "type": "event"
    },
    {
      "anonymous": false,
      "inputs": [
        {
          "indexed": false,
          "internalType": "address",
          "name": "account",
          "type": "address"
        }
      ],
      "name": "Paused",
      "type": "event"
    },
    {
      "anonymous": false,
      "inputs": [
        {
          "indexed": true,
          "internalType": "address",
          "name": "newGuardian",
          "type": "address"
        }
      ],
      "name": "SetGuardian",
      "type": "event"
    },
    {
      "anonymous": false,
      "inputs": [
        {
          "indexed": true,
          "internalType": "address",
          "name": "newGuestList",
          "type": "address"
        }
      ],
      "name": "SetGuestList",
      "type": "event"
    },
    {
      "anonymous": false,
      "inputs": [
        {
          "indexed": false,
          "internalType": "uint256",
          "name": "newManagementFee",
          "type": "uint256"
        }
      ],
      "name": "SetManagementFee",
      "type": "event"
    },
    {
      "anonymous": false,
      "inputs": [
        {
          "indexed": false,
          "internalType": "uint256",
          "name": "newMaxManagementFee",
          "type": "uint256"
        }
      ],
      "name": "SetMaxManagementFee",
      "type": "event"
    },
    {
      "anonymous": false,
      "inputs": [
        {
          "indexed": false,
          "internalType": "uint256",
          "name": "newMaxPerformanceFee",
          "type": "uint256"
        }
      ],
      "name": "SetMaxPerformanceFee",
      "type": "event"
    },
    {
      "anonymous": false,
      "inputs": [
        {
          "indexed": false,
          "internalType": "uint256",
          "name": "newMaxWithdrawalFee",
          "type": "uint256"
        }
      ],
      "name": "SetMaxWithdrawalFee",
      "type": "event"
    },
    {
      "anonymous": false,
      "inputs": [
        {
          "indexed": false,
          "internalType": "uint256",
          "name": "newPerformanceFeeGovernance",
          "type": "uint256"
        }
      ],
      "name": "SetPerformanceFeeGovernance",
      "type": "event"
    },
    {
      "anonymous": false,
      "inputs": [
        {
          "indexed": false,
          "internalType": "uint256",
          "name": "newPerformanceFeeStrategist",
          "type": "uint256"
        }
      ],
      "name": "SetPerformanceFeeStrategist",
      "type": "event"
    },
    {
      "anonymous": false,
      "inputs": [
        {
          "indexed": true,
          "internalType": "address",
          "name": "newStrategy",
          "type": "address"
        }
      ],
      "name": "SetStrategy",
      "type": "event"
    },
    {
      "anonymous": false,
      "inputs": [
        {
          "indexed": false,
          "internalType": "uint256",
          "name": "newEarnToBps",
          "type": "uint256"
        }
      ],
      "name": "SetToEarnBps",
      "type": "event"
    },
    {
      "anonymous": false,
      "inputs": [
        {
          "indexed": true,
          "internalType": "address",
          "name": "newTreasury",
          "type": "address"
        }
      ],
      "name": "SetTreasury",
      "type": "event"
    },
    {
      "anonymous": false,
      "inputs": [
        {
          "indexed": false,
          "internalType": "uint256",
          "name": "newWithdrawalFee",
          "type": "uint256"
        }
      ],
      "name": "SetWithdrawalFee",
      "type": "event"
    },
    {
      "anonymous": false,
      "inputs": [
        {
          "indexed": true,
          "internalType": "address",
          "name": "from",
          "type": "address"
        },
        {
          "indexed": true,
          "internalType": "address",
          "name": "to",
          "type": "address"
        },
        {
          "indexed": false,
          "internalType": "uint256",
          "name": "value",
          "type": "uint256"
        }
      ],
      "name": "Transfer",
      "type": "event"
    },
    {
      "anonymous": false,
      "inputs": [
        {
          "indexed": true,
          "internalType": "address",
          "name": "token",
          "type": "address"
        },
        {
          "indexed": false,
          "internalType": "uint256",
          "name": "amount",
          "type": "uint256"
        },
        {
          "indexed": true,
          "internalType": "uint256",
          "name": "blockNumber",
          "type": "uint256"
        },
        {
          "indexed": false,
          "internalType": "uint256",
          "name": "timestamp",
          "type": "uint256"
        }
      ],
      "name": "TreeDistribution",
      "type": "event"
    },
    {
      "anonymous": false,
      "inputs": [
        {
          "indexed": true,
          "internalType": "address",
          "name": "pausedBy",
          "type": "address"
        }
      ],
      "name": "UnpauseDeposits",
      "type": "event"
    },
    {
      "anonymous": false,
      "inputs": [
        {
          "indexed": false,
          "internalType": "address",
          "name": "account",
          "type": "address"
        }
      ],
      "name": "Unpaused",
      "type": "event"
    },
    {
      "inputs": [],
      "name": "MANAGEMENT_FEE_HARD_CAP",
      "outputs": [
        {
          "internalType": "uint256",
          "name": "",
          "type": "uint256"
        }
      ],
      "stateMutability": "view",
      "type": "function"
    },
    {
      "inputs": [],
      "name": "MAX_BPS",
      "outputs": [
        {
          "internalType": "uint256",
          "name": "",
          "type": "uint256"
        }
      ],
      "stateMutability": "view",
      "type": "function"
    },
    {
      "inputs": [],
      "name": "PERFORMANCE_FEE_HARD_CAP",
      "outputs": [
        {
          "internalType": "uint256",
          "name": "",
          "type": "uint256"
        }
      ],
      "stateMutability": "view",
      "type": "function"
    },
    {
      "inputs": [],
      "name": "SECS_PER_YEAR",
      "outputs": [
        {
          "internalType": "uint256",
          "name": "",
          "type": "uint256"
        }
      ],
      "stateMutability": "view",
      "type": "function"
    },
    {
      "inputs": [],
      "name": "WITHDRAWAL_FEE_HARD_CAP",
      "outputs": [
        {
          "internalType": "uint256",
          "name": "",
          "type": "uint256"
        }
      ],
      "stateMutability": "view",
      "type": "function"
    },
    {
      "inputs": [
        {
          "internalType": "address",
          "name": "",
          "type": "address"
        }
      ],
      "name": "additionalTokensEarned",
      "outputs": [
        {
          "internalType": "uint256",
          "name": "",
          "type": "uint256"
        }
      ],
      "stateMutability": "view",
      "type": "function"
    },
    {
      "inputs": [
        {
          "internalType": "address",
          "name": "owner",
          "type": "address"
        },
        {
          "internalType": "address",
          "name": "spender",
          "type": "address"
        }
      ],
      "name": "allowance",
      "outputs": [
        {
          "internalType": "uint256",
          "name": "",
          "type": "uint256"
        }
      ],
      "stateMutability": "view",
      "type": "function"
    },
    {
      "inputs": [
        {
          "internalType": "address",
          "name": "spender",
          "type": "address"
        },
        {
          "internalType": "uint256",
          "name": "amount",
          "type": "uint256"
        }
      ],
      "name": "approve",
      "outputs": [
        {
          "internalType": "bool",
          "name": "",
          "type": "bool"
        }
      ],
      "stateMutability": "nonpayable",
      "type": "function"
    },
    {
      "inputs": [],
      "name": "assetsAtLastHarvest",
      "outputs": [
        {
          "internalType": "uint256",
          "name": "",
          "type": "uint256"
        }
      ],
      "stateMutability": "view",
      "type": "function"
    },
    {
      "inputs": [],
      "name": "available",
      "outputs": [
        {
          "internalType": "uint256",
          "name": "",
          "type": "uint256"
        }
      ],
      "stateMutability": "view",
      "type": "function"
    },
    {
      "inputs": [],
      "name": "badgerTree",
      "outputs": [
        {
          "internalType": "address",
          "name": "",
          "type": "address"
        }
      ],
      "stateMutability": "view",
      "type": "function"
    },
    {
      "inputs": [],
      "name": "balance",
      "outputs": [
        {
          "internalType": "uint256",
          "name": "",
          "type": "uint256"
        }
      ],
      "stateMutability": "view",
      "type": "function"
    },
    {
      "inputs": [
        {
          "internalType": "address",
          "name": "account",
          "type": "address"
        }
      ],
      "name": "balanceOf",
      "outputs": [
        {
          "internalType": "uint256",
          "name": "",
          "type": "uint256"
        }
      ],
      "stateMutability": "view",
      "type": "function"
    },
    {
      "inputs": [],
      "name": "decimals",
      "outputs": [
        {
          "internalType": "uint8",
          "name": "",
          "type": "uint8"
        }
      ],
      "stateMutability": "view",
      "type": "function"
    },
    {
      "inputs": [
        {
          "internalType": "address",
          "name": "spender",
          "type": "address"
        },
        {
          "internalType": "uint256",
          "name": "subtractedValue",
          "type": "uint256"
        }
      ],
      "name": "decreaseAllowance",
      "outputs": [
        {
          "internalType": "bool",
          "name": "",
          "type": "bool"
        }
      ],
      "stateMutability": "nonpayable",
      "type": "function"
    },
    {
      "inputs": [
        {
          "internalType": "uint256",
          "name": "_amount",
          "type": "uint256"
        },
        {
          "internalType": "bytes32[]",
          "name": "proof",
          "type": "bytes32[]"
        }
      ],
      "name": "deposit",
      "outputs": [],
      "stateMutability": "nonpayable",
      "type": "function"
    },
    {
      "inputs": [
        {
          "internalType": "uint256",
          "name": "_amount",
          "type": "uint256"
        }
      ],
      "name": "deposit",
      "outputs": [],
      "stateMutability": "nonpayable",
      "type": "function"
    },
    {
      "inputs": [
        {
          "internalType": "bytes32[]",
          "name": "proof",
          "type": "bytes32[]"
        }
      ],
      "name": "depositAll",
      "outputs": [],
      "stateMutability": "nonpayable",
      "type": "function"
    },
    {
      "inputs": [],
      "name": "depositAll",
      "outputs": [],
      "stateMutability": "nonpayable",
      "type": "function"
    },
    {
      "inputs": [
        {
          "internalType": "address",
          "name": "_recipient",
          "type": "address"
        },
        {
          "internalType": "uint256",
          "name": "_amount",
          "type": "uint256"
        }
      ],
      "name": "depositFor",
      "outputs": [],
      "stateMutability": "nonpayable",
      "type": "function"
    },
    {
      "inputs": [
        {
          "internalType": "address",
          "name": "_recipient",
          "type": "address"
        },
        {
          "internalType": "uint256",
          "name": "_amount",
          "type": "uint256"
        },
        {
          "internalType": "bytes32[]",
          "name": "proof",
          "type": "bytes32[]"
        }
      ],
      "name": "depositFor",
      "outputs": [],
      "stateMutability": "nonpayable",
      "type": "function"
    },
    {
      "inputs": [],
      "name": "earn",
      "outputs": [],
      "stateMutability": "nonpayable",
      "type": "function"
    },
    {
      "inputs": [
        {
          "internalType": "address",
          "name": "_token",
          "type": "address"
        }
      ],
      "name": "emitNonProtectedToken",
      "outputs": [],
      "stateMutability": "nonpayable",
      "type": "function"
    },
    {
      "inputs": [],
      "name": "getPricePerFullShare",
      "outputs": [
        {
          "internalType": "uint256",
          "name": "",
          "type": "uint256"
        }
      ],
      "stateMutability": "view",
      "type": "function"
    },
    {
      "inputs": [],
      "name": "governance",
      "outputs": [
        {
          "internalType": "address",
          "name": "",
          "type": "address"
        }
      ],
      "stateMutability": "view",
      "type": "function"
    },
    {
      "inputs": [],
      "name": "guardian",
      "outputs": [
        {
          "internalType": "address",
          "name": "",
          "type": "address"
        }
      ],
      "stateMutability": "view",
      "type": "function"
    },
    {
      "inputs": [],
      "name": "guestList",
      "outputs": [
        {
          "internalType": "contract BadgerGuestListAPI",
          "name": "",
          "type": "address"
        }
      ],
      "stateMutability": "view",
      "type": "function"
    },
    {
      "inputs": [
        {
          "internalType": "address",
          "name": "spender",
          "type": "address"
        },
        {
          "internalType": "uint256",
          "name": "addedValue",
          "type": "uint256"
        }
      ],
      "name": "increaseAllowance",
      "outputs": [
        {
          "internalType": "bool",
          "name": "",
          "type": "bool"
        }
      ],
      "stateMutability": "nonpayable",
      "type": "function"
    },
    {
      "inputs": [
        {
          "internalType": "address",
          "name": "_token",
          "type": "address"
        },
        {
          "internalType": "address",
          "name": "_governance",
          "type": "address"
        },
        {
          "internalType": "address",
          "name": "_keeper",
          "type": "address"
        },
        {
          "internalType": "address",
          "name": "_guardian",
          "type": "address"
        },
        {
          "internalType": "address",
          "name": "_treasury",
          "type": "address"
        },
        {
          "internalType": "address",
          "name": "_strategist",
          "type": "address"
        },
        {
          "internalType": "address",
          "name": "_badgerTree",
          "type": "address"
        },
        {
          "internalType": "string",
          "name": "_name",
          "type": "string"
        },
        {
          "internalType": "string",
          "name": "_symbol",
          "type": "string"
        },
        {
          "internalType": "uint256[4]",
          "name": "_feeConfig",
          "type": "uint256[4]"
        }
      ],
      "name": "initialize",
      "outputs": [],
      "stateMutability": "nonpayable",
      "type": "function"
    },
    {
      "inputs": [],
      "name": "keeper",
      "outputs": [
        {
          "internalType": "address",
          "name": "",
          "type": "address"
        }
      ],
      "stateMutability": "view",
      "type": "function"
    },
    {
      "inputs": [
        {
          "internalType": "address",
          "name": "",
          "type": "address"
        }
      ],
      "name": "lastAdditionalTokenAmount",
      "outputs": [
        {
          "internalType": "uint256",
          "name": "",
          "type": "uint256"
        }
      ],
      "stateMutability": "view",
      "type": "function"
    },
    {
      "inputs": [],
      "name": "lastHarvestAmount",
      "outputs": [
        {
          "internalType": "uint256",
          "name": "",
          "type": "uint256"
        }
      ],
      "stateMutability": "view",
      "type": "function"
    },
    {
      "inputs": [],
      "name": "lastHarvestedAt",
      "outputs": [
        {
          "internalType": "uint256",
          "name": "",
          "type": "uint256"
        }
      ],
      "stateMutability": "view",
      "type": "function"
    },
    {
      "inputs": [],
      "name": "lifeTimeEarned",
      "outputs": [
        {
          "internalType": "uint256",
          "name": "",
          "type": "uint256"
        }
      ],
      "stateMutability": "view",
      "type": "function"
    },
    {
      "inputs": [],
      "name": "managementFee",
      "outputs": [
        {
          "internalType": "uint256",
          "name": "",
          "type": "uint256"
        }
      ],
      "stateMutability": "view",
      "type": "function"
    },
    {
      "inputs": [],
      "name": "maxManagementFee",
      "outputs": [
        {
          "internalType": "uint256",
          "name": "",
          "type": "uint256"
        }
      ],
      "stateMutability": "view",
      "type": "function"
    },
    {
      "inputs": [],
      "name": "maxPerformanceFee",
      "outputs": [
        {
          "internalType": "uint256",
          "name": "",
          "type": "uint256"
        }
      ],
      "stateMutability": "view",
      "type": "function"
    },
    {
      "inputs": [],
      "name": "maxWithdrawalFee",
      "outputs": [
        {
          "internalType": "uint256",
          "name": "",
          "type": "uint256"
        }
      ],
      "stateMutability": "view",
      "type": "function"
    },
    {
      "inputs": [],
      "name": "name",
      "outputs": [
        {
          "internalType": "string",
          "name": "",
          "type": "string"
        }
      ],
      "stateMutability": "view",
      "type": "function"
    },
    {
      "inputs": [],
      "name": "pause",
      "outputs": [],
      "stateMutability": "nonpayable",
      "type": "function"
    },
    {
      "inputs": [],
      "name": "pauseDeposits",
      "outputs": [],
      "stateMutability": "nonpayable",
      "type": "function"
    },
    {
      "inputs": [],
      "name": "paused",
      "outputs": [
        {
          "internalType": "bool",
          "name": "",
          "type": "bool"
        }
      ],
      "stateMutability": "view",
      "type": "function"
    },
    {
      "inputs": [],
      "name": "pausedDeposit",
      "outputs": [
        {
          "internalType": "bool",
          "name": "",
          "type": "bool"
        }
      ],
      "stateMutability": "view",
      "type": "function"
    },
    {
      "inputs": [],
      "name": "performanceFeeGovernance",
      "outputs": [
        {
          "internalType": "uint256",
          "name": "",
          "type": "uint256"
        }
      ],
      "stateMutability": "view",
      "type": "function"
    },
    {
      "inputs": [],
      "name": "performanceFeeStrategist",
      "outputs": [
        {
          "internalType": "uint256",
          "name": "",
          "type": "uint256"
        }
      ],
      "stateMutability": "view",
      "type": "function"
    },
    {
      "inputs": [
        {
          "internalType": "address",
          "name": "_token",
          "type": "address"
        }
      ],
      "name": "reportAdditionalToken",
      "outputs": [],
      "stateMutability": "nonpayable",
      "type": "function"
    },
    {
      "inputs": [
        {
          "internalType": "uint256",
          "name": "_harvestedAmount",
          "type": "uint256"
        }
      ],
      "name": "reportHarvest",
      "outputs": [],
      "stateMutability": "nonpayable",
      "type": "function"
    },
    {
      "inputs": [
        {
          "internalType": "address",
          "name": "_governance",
          "type": "address"
        }
      ],
      "name": "setGovernance",
      "outputs": [],
      "stateMutability": "nonpayable",
      "type": "function"
    },
    {
      "inputs": [
        {
          "internalType": "address",
          "name": "_guardian",
          "type": "address"
        }
      ],
      "name": "setGuardian",
      "outputs": [],
      "stateMutability": "nonpayable",
      "type": "function"
    },
    {
      "inputs": [
        {
          "internalType": "address",
          "name": "_guestList",
          "type": "address"
        }
      ],
      "name": "setGuestList",
      "outputs": [],
      "stateMutability": "nonpayable",
      "type": "function"
    },
    {
      "inputs": [
        {
          "internalType": "address",
          "name": "_keeper",
          "type": "address"
        }
      ],
      "name": "setKeeper",
      "outputs": [],
      "stateMutability": "nonpayable",
      "type": "function"
    },
    {
      "inputs": [
        {
          "internalType": "uint256",
          "name": "_fees",
          "type": "uint256"
        }
      ],
      "name": "setManagementFee",
      "outputs": [],
      "stateMutability": "nonpayable",
      "type": "function"
    },
    {
      "inputs": [
        {
          "internalType": "uint256",
          "name": "_fees",
          "type": "uint256"
        }
      ],
      "name": "setMaxManagementFee",
      "outputs": [],
      "stateMutability": "nonpayable",
      "type": "function"
    },
    {
      "inputs": [
        {
          "internalType": "uint256",
          "name": "_fees",
          "type": "uint256"
        }
      ],
      "name": "setMaxPerformanceFee",
      "outputs": [],
      "stateMutability": "nonpayable",
      "type": "function"
    },
    {
      "inputs": [
        {
          "internalType": "uint256",
          "name": "_fees",
          "type": "uint256"
        }
      ],
      "name": "setMaxWithdrawalFee",
      "outputs": [],
      "stateMutability": "nonpayable",
      "type": "function"
    },
    {
      "inputs": [
        {
          "internalType": "uint256",
          "name": "_performanceFeeGovernance",
          "type": "uint256"
        }
      ],
      "name": "setPerformanceFeeGovernance",
      "outputs": [],
      "stateMutability": "nonpayable",
      "type": "function"
    },
    {
      "inputs": [
        {
          "internalType": "uint256",
          "name": "_performanceFeeStrategist",
          "type": "uint256"
        }
      ],
      "name": "setPerformanceFeeStrategist",
      "outputs": [],
      "stateMutability": "nonpayable",
      "type": "function"
    },
    {
      "inputs": [
        {
          "internalType": "address",
          "name": "_strategist",
          "type": "address"
        }
      ],
      "name": "setStrategist",
      "outputs": [],
      "stateMutability": "nonpayable",
      "type": "function"
    },
    {
      "inputs": [
        {
          "internalType": "address",
          "name": "_strategy",
          "type": "address"
        }
      ],
      "name": "setStrategy",
      "outputs": [],
      "stateMutability": "nonpayable",
      "type": "function"
    },
    {
      "inputs": [
        {
          "internalType": "uint256",
          "name": "_newToEarnBps",
          "type": "uint256"
        }
      ],
      "name": "setToEarnBps",
      "outputs": [],
      "stateMutability": "nonpayable",
      "type": "function"
    },
    {
      "inputs": [
        {
          "internalType": "address",
          "name": "_treasury",
          "type": "address"
        }
      ],
      "name": "setTreasury",
      "outputs": [],
      "stateMutability": "nonpayable",
      "type": "function"
    },
    {
      "inputs": [
        {
          "internalType": "uint256",
          "name": "_withdrawalFee",
          "type": "uint256"
        }
      ],
      "name": "setWithdrawalFee",
      "outputs": [],
      "stateMutability": "nonpayable",
      "type": "function"
    },
    {
      "inputs": [],
      "name": "strategist",
      "outputs": [
        {
          "internalType": "address",
          "name": "",
          "type": "address"
        }
      ],
      "stateMutability": "view",
      "type": "function"
    },
    {
      "inputs": [],
      "name": "strategy",
      "outputs": [
        {
          "internalType": "address",
          "name": "",
          "type": "address"
        }
      ],
      "stateMutability": "view",
      "type": "function"
    },
    {
      "inputs": [
        {
          "internalType": "address",
          "name": "_token",
          "type": "address"
        }
      ],
      "name": "sweepExtraToken",
      "outputs": [],
      "stateMutability": "nonpayable",
      "type": "function"
    },
    {
      "inputs": [],
      "name": "symbol",
      "outputs": [
        {
          "internalType": "string",
          "name": "",
          "type": "string"
        }
      ],
      "stateMutability": "view",
      "type": "function"
    },
    {
      "inputs": [],
      "name": "toEarnBps",
      "outputs": [
        {
          "internalType": "uint256",
          "name": "",
          "type": "uint256"
        }
      ],
      "stateMutability": "view",
      "type": "function"
    },
    {
      "inputs": [],
      "name": "token",
      "outputs": [
        {
          "internalType": "contract IERC20Upgradeable",
          "name": "",
          "type": "address"
        }
      ],
      "stateMutability": "view",
      "type": "function"
    },
    {
      "inputs": [],
      "name": "totalSupply",
      "outputs": [
        {
          "internalType": "uint256",
          "name": "",
          "type": "uint256"
        }
      ],
      "stateMutability": "view",
      "type": "function"
    },
    {
      "inputs": [
        {
          "internalType": "address",
          "name": "recipient",
          "type": "address"
        },
        {
          "internalType": "uint256",
          "name": "amount",
          "type": "uint256"
        }
      ],
      "name": "transfer",
      "outputs": [
        {
          "internalType": "bool",
          "name": "",
          "type": "bool"
        }
      ],
      "stateMutability": "nonpayable",
      "type": "function"
    },
    {
      "inputs": [
        {
          "internalType": "address",
          "name": "sender",
          "type": "address"
        },
        {
          "internalType": "address",
          "name": "recipient",
          "type": "address"
        },
        {
          "internalType": "uint256",
          "name": "amount",
          "type": "uint256"
        }
      ],
      "name": "transferFrom",
      "outputs": [
        {
          "internalType": "bool",
          "name": "",
          "type": "bool"
        }
      ],
      "stateMutability": "nonpayable",
      "type": "function"
    },
    {
      "inputs": [],
      "name": "treasury",
      "outputs": [
        {
          "internalType": "address",
          "name": "",
          "type": "address"
        }
      ],
      "stateMutability": "view",
      "type": "function"
    },
    {
      "inputs": [],
      "name": "unpause",
      "outputs": [],
      "stateMutability": "nonpayable",
      "type": "function"
    },
    {
      "inputs": [],
      "name": "unpauseDeposits",
      "outputs": [],
      "stateMutability": "nonpayable",
      "type": "function"
    },
    {
      "inputs": [],
      "name": "version",
      "outputs": [
        {
          "internalType": "string",
          "name": "",
          "type": "string"
        }
      ],
      "stateMutability": "pure",
      "type": "function"
    },
    {
      "inputs": [
        {
          "internalType": "uint256",
          "name": "_shares",
          "type": "uint256"
        }
      ],
      "name": "withdraw",
      "outputs": [],
      "stateMutability": "nonpayable",
      "type": "function"
    },
    {
      "inputs": [],
      "name": "withdrawAll",
      "outputs": [],
      "stateMutability": "nonpayable",
      "type": "function"
    },
    {
      "inputs": [],
      "name": "withdrawToVault",
      "outputs": [],
      "stateMutability": "nonpayable",
      "type": "function"
    },
    {
      "inputs": [],
      "name": "withdrawalFee",
      "outputs": [
        {
          "internalType": "uint256",
          "name": "",
          "type": "uint256"
        }
      ],
      "stateMutability": "view",
      "type": "function"
    }
  ],
  "bytecode": "0x608060405234801561001057600080fd5b50614f94806100206000396000f3fe608060405234801561001057600080fd5b50600436106104755760003560e01c80638457213a11610257578063c7b9d53011610146578063ec1c0a99116100c3578063f9f44f4e11610087578063f9f44f4e14610e67578063fbdfdb4414610e6f578063fc0c546a14610e77578063fd967f4714610e7f578063fe56e23214610e8757610475565b8063ec1c0a9914610c7d578063ecb9da7714610c85578063f0f4426014610c8d578063f55462f414610cb3578063f7fec18114610cd057610475565b8063dd62ed3e1161010a578063dd62ed3e14610c1a578063de5f626814610c48578063e06bacb714610c50578063e782786c14610c58578063eb4442e214610c6057610475565b8063c7b9d53014610afc578063d389800f14610b22578063d6c2cadd14610b2a578063dab7b06e14610be0578063dc7da29914610bfd57610475565b8063a6f7f5d6116101d4578063aced166111610198578063aced166114610a08578063b69ef8a814610a10578063b6b55f2514610a18578063bad91bdb14610a35578063c783ee9114610ad657610475565b8063a6f7f5d614610989578063a8c62e7614610991578063a9059cbb14610999578063ab033ea9146109c5578063ac1e5025146109eb57610475565b80638bc7e8c41161021b5780638bc7e8c41461090157806395d89b4114610909578063a0fd55e414610911578063a234985e14610937578063a457c2d71461095d57610475565b80638457213a146108a657806384f22721146108c3578063853828b6146108cb57806389483695146108d35780638a0dac4a146108db57610475565b80633f4ba83a1161037357806361d027b3116102f0578063748747e6116102b4578063748747e61461086057806377c7b8fc146108865780637ca077231461088e5780637dbe7920146108965780638456cb591461089e57610475565b806361d027b31461080d57806362be3cde1461081557806363d8882a1461083257806364b032751461058157806370a082311461083a57610475565b8063504a164711610337578063504a1647146107e55780635265ed61146107ed57806354fd4d50146107f55780635aa6e675146107fd5780635c975abb1461080557610475565b80633f4ba83a1461079f578063452a9320146107a757806346d55875146107af57806348a0d754146107b75780634c4c909b146107bf57610475565b80631fe4a686116104015780632f4f21e2116103c55780632f4f21e21461065b578063313ce5671461068757806333a100ca146106a557806335ac79c3146106cb578063395093511461077357610475565b80631fe4a686146105b65780632170121b146105da57806323b872dd1461060057806328998af0146106365780632e1a7d4d1461063e57610475565b80630b5b78eb116104485780630b5b78eb1461055b578063130e92841461058157806315b18ddd1461058957806318160ddd146105915780631992a0881461059957610475565b8063021919801461047a57806306fdde0314610484578063095ea7b3146105015780630b31320614610541575b600080fd5b610482610ea4565b005b61048c610eec565b6040805160208082528351818301528351919283929083019185019080838360005b838110156104c65781810151838201526020016104ae565b50505050905090810190601f1680156104f35780820380516001836020036101000a031916815260200191505b509250505060405180910390f35b61052d6004803603604081101561051757600080fd5b506001600160a01b038135169060200135610f83565b604080519115158252519081900360200190f35b610549610fa1565b60408051918252519081900360200190f35b6104826004803603602081101561057157600080fd5b50356001600160a01b0316610fa8565b610549611042565b610549611047565b61054961104e565b610482600480360360208110156105af57600080fd5b5035611054565b6105be6110e7565b604080516001600160a01b039092168252519081900360200190f35b610549600480360360208110156105f057600080fd5b50356001600160a01b03166110f6565b61052d6004803603606081101561061657600080fd5b506001600160a01b03813581169160208101359091169060400135611109565b610549611191565b6104826004803603602081101561065457600080fd5b5035611199565b6104826004803603604081101561067157600080fd5b506001600160a01b0381351690602001356111ed565b61068f611255565b6040805160ff9092168252519081900360200190f35b610482600480360360208110156106bb57600080fd5b50356001600160a01b031661125e565b610482600480360360408110156106e157600080fd5b81359190810190604081016020820135600160201b81111561070257600080fd5b82018360208201111561071457600080fd5b803590602001918460208302840111600160201b8311171561073557600080fd5b919080806020026020016040519081016040528093929190818152602001838360200280828437600092019190915250929550611409945050505050565b61052d6004803603604081101561078957600080fd5b506001600160a01b03813516906020013561145b565b6104826114a9565b6105be6114bb565b6105be6114cb565b6105496114da565b610482600480360360208110156107d557600080fd5b50356001600160a01b0316611575565b610549611826565b61054961182d565b61048c611834565b6105be611851565b61052d611860565b6105be611869565b6104826004803603602081101561082b57600080fd5b5035611879565b61048261195c565b6105496004803603602081101561085057600080fd5b50356001600160a01b031661199e565b6104826004803603602081101561087657600080fd5b50356001600160a01b03166119b9565b6105496119e3565b610549611a25565b610549611a2b565b610482611a32565b610482600480360360208110156108bc57600080fd5b5035611a42565b610482611b10565b610482611b83565b6105be611bdc565b610482600480360360208110156108f157600080fd5b50356001600160a01b0316611bec565b610549611c92565b61048c611c99565b6104826004803603602081101561092757600080fd5b50356001600160a01b0316611cfa565b6104826004803603602081101561094d57600080fd5b50356001600160a01b0316611d6c565b61052d6004803603604081101561097357600080fd5b506001600160a01b038135169060200135611eb8565b610549611f20565b6105be611f27565b61052d600480360360408110156109af57600080fd5b506001600160a01b038135169060200135611f37565b610482600480360360208110156109db57600080fd5b50356001600160a01b0316611f4b565b61048260048036036020811015610a0157600080fd5b5035611f75565b6105be612059565b610549612068565b61048260048036036020811015610a2e57600080fd5b5035612165565b61048260048036036020811015610a4b57600080fd5b810190602081018135600160201b811115610a6557600080fd5b820183602082011115610a7757600080fd5b803590602001918460208302840111600160201b83111715610a9857600080fd5b9190808060200260200160405190810160405280939291908181526020018383602002808284376000920191909152509295506121e5945050505050565b61054960048036036020811015610aec57600080fd5b50356001600160a01b03166122ab565b61048260048036036020811015610b1257600080fd5b50356001600160a01b03166122be565b6104826122e8565b61048260048036036060811015610b4057600080fd5b6001600160a01b0382351691602081013591810190606081016040820135600160201b811115610b6f57600080fd5b820183602082011115610b8157600080fd5b803590602001918460208302840111600160201b83111715610ba257600080fd5b9190808060200260200160405190810160405280939291908181526020018383602002808284376000920191909152509295506123ba945050505050565b61048260048036036020811015610bf657600080fd5b5035612412565b61048260048036036020811015610c1357600080fd5b5035612497565b61054960048036036040811015610c3057600080fd5b506001600160a01b0381358116916020013516612596565b6104826125c1565b61052d612689565b610549612698565b61048260048036036020811015610c7657600080fd5b503561269f565b610549612732565b610549612739565b61048260048036036020811015610ca357600080fd5b50356001600160a01b0316612740565b61048260048036036020811015610cc957600080fd5b5035612822565b61048260048036036101a0811015610ce757600080fd5b6001600160a01b038235811692602081013582169260408201358316926060830135811692608081013582169260a082013583169260c0830135169190810190610100810160e0820135600160201b811115610d4257600080fd5b820183602082011115610d5457600080fd5b803590602001918460018302840111600160201b83111715610d7557600080fd5b91908080601f0160208091040260200160405190810160405280939291908181526020018383808284376000920191909152509295949360208101935035915050600160201b811115610dc757600080fd5b820183602082011115610dd957600080fd5b803590602001918460018302840111600160201b83111715610dfa57600080fd5b91908080601f0160208091040260200160405190810160405280939291908181526020018383808284376000920191909152505060408051608081810190925293969594818101949350915060049083908390808284376000920191909152509194506128f09350505050565b610549613248565b61054961324f565b6105be613256565b610549613265565b61048260048036036020811015610e9d57600080fd5b503561326b565b610eac61334f565b60ff805460ff60a01b1916600160a01b17905560405133907fd7a915337e28a7bf3a13770590fb6701cbeb9d0f25a71e84d106b10a8e6a4ab190600090a2565b60368054604080516020601f6002600019610100600188161502019095169490940493840181900481028201810190925282815260609390929091830182828015610f785780601f10610f4d57610100808354040283529160200191610f78565b820191906000526020600020905b815481529060010190602001808311610f5b57829003601f168201915b505050505090505b90565b6000610f97610f906133b2565b84846133b6565b5060015b92915050565b6101105481565b610fb0611860565b15610ff0576040805162461bcd60e51b81526020600482015260106024820152600080516020614e87833981519152604482015290519081900360640190fd5b610ff86134a2565b60ff80546001600160a01b0319166001600160a01b0383169081179091556040517fcf4ebfb08408f66bc4a7a6945a6842089eeee844a2cc7615e8cf517ce520f3da90600090a250565b60c881565b61010a5481565b60355490565b61105c613516565b60c88111156110ab576040805162461bcd60e51b81526020600482015260166024820152750eed2e8d0c8e4c2eec2d88ccaca40e8dede40d0d2ced60531b604482015290519081900360640190fd5b61010f8190556040805182815290517fa254b26086a7ddac6321f8f7b7ae1301e48e0734fc6ad56fb6a4eb58dbd8c49c9181900360200190a150565b6066546001600160a01b031681565b6101086020526000908152604090205481565b6000611116848484613566565b611186846111226133b2565b61118185604051806060016040528060288152602001614df8602891396001600160a01b038a166000908152603460205260408120906111606133b2565b6001600160a01b0316815260208101919091526040016000205491906136c3565b6133b6565b5060015b9392505050565b6301e1855881565b6111a1611860565b156111e1576040805162461bcd60e51b81526020600482015260106024820152600080516020614e87833981519152604482015290519081900360640190fd5b6111ea8161375a565b50565b6111f5611860565b15611235576040805162461bcd60e51b81526020600482015260106024820152600080516020614e87833981519152604482015290519081900360640190fd5b60408051600081526020810190915261125190839083906139ff565b5050565b60385460ff1690565b611266611860565b156112a6576040805162461bcd60e51b81526020600482015260106024820152600080516020614e87833981519152604482015290519081900360640190fd5b6112ae613516565b6001600160a01b0381166112f5576040805162461bcd60e51b815260206004820152600960248201526804164647265737320360bc1b604482015290519081900360640190fd5b610100546001600160a01b0316156113be5761010060009054906101000a90046001600160a01b03166001600160a01b031663722713f76040518163ffffffff1660e01b815260040160206040518083038186803b15801561135657600080fd5b505afa15801561136a573d6000803e3d6000fd5b505050506040513d602081101561138057600080fd5b5051156113be5760405162461bcd60e51b815260040180806020018281038252602c815260200180614cef602c913960400191505060405180910390fd5b61010080546001600160a01b0319166001600160a01b0383169081179091556040517f3412691e1ea2503d6eec15597247048016213c19646b73d4320a20c790b67ee290600090a250565b611411611860565b15611451576040805162461bcd60e51b81526020600482015260106024820152600080516020614e87833981519152604482015290519081900360640190fd5b6112518282613b37565b6000610f976114686133b2565b8461118185603460006114796133b2565b6001600160a01b03908116825260208083019390935260409182016000908120918c168152925290205490613b42565b6114b1613516565b6114b9613b9c565b565b610101546001600160a01b031681565b60ff546001600160a01b031681565b6101115460fe54604080516370a0823160e01b81523060048201529051600093611570936127109361156a936001600160a01b03909216916370a0823191602480820192602092909190829003018186803b15801561153857600080fd5b505afa15801561154c573d6000803e3d6000fd5b505050506040513d602081101561156257600080fd5b505190613c3c565b90613c95565b905090565b600260cc5414156115bb576040805162461bcd60e51b815260206004820152601f6024820152600080516020614ccf833981519152604482015290519081900360640190fd5b600260cc556115c8613cfc565b60fe546001600160a01b0382811691161415611615576040805162461bcd60e51b8152602060048201526007602482015266139bc81dd85b9d60ca1b604482015290519081900360640190fd5b6000816001600160a01b03166370a08231306040518263ffffffff1660e01b815260040180826001600160a01b0316815260200191505060206040518083038186803b15801561166457600080fd5b505afa158015611678573d6000803e3d6000fd5b505050506040513d602081101561168e57600080fd5b50516001600160a01b038316600090815261010860205260409020549091506116b79082613b42565b6001600160a01b03831660009081526101086020908152604080832093909355610109905290812082905561010a546116f1908390613d4b565b905060006117028361010b54613d4b565b61010254909150611720906001600160a01b03868116911684613d74565b60665461173a906001600160a01b03868116911683613d74565b6000846001600160a01b03166370a08231306040518263ffffffff1660e01b815260040180826001600160a01b0316815260200191505060206040518083038186803b15801561178957600080fd5b505afa15801561179d573d6000803e3d6000fd5b505050506040513d60208110156117b357600080fd5b5051610103549091506117d3906001600160a01b03878116911683613d74565b60408051828152426020820152815143926001600160a01b038916927f17cc18c044bdfa5f365fb0f6140ffbaa76843012681aedb2015580693fa49b94929081900390910190a35050600160cc55505050565b61010b5481565b61010e5481565b604080518082019091526003815262312e3560e81b602082015290565b6065546001600160a01b031681565b609a5460ff1690565b610102546001600160a01b031681565b611881611860565b156118c1576040805162461bcd60e51b81526020600482015260106024820152600080516020614e87833981519152604482015290519081900360640190fd5b6118c96134a2565b612710811115611920576040805162461bcd60e51b815260206004820152601e60248201527f746f4561726e4270732073686f756c64206265203c3d204d41585f4250530000604482015290519081900360640190fd5b6101118190556040805182815290517f5cc7e39e46826190c353c144fe457f6621996ec0f604b3d78e3ac26fd1b4bde29181900360200190a150565b611964613516565b60ff805460ff60a01b1916905560405133907f136ece421d83ae8c5fe0d9b95b96b35315050bfc3cf21cb5751128f683eb59be90600090a2565b6001600160a01b031660009081526033602052604090205490565b6119c1613516565b606780546001600160a01b0319166001600160a01b0392909216919091179055565b60006119ed61104e565b611a005750670de0b6b3a7640000610f80565b611570611a0b61104e565b61156a670de0b6b3a7640000611a1f612068565b90613c3c565b610bb881565b6101065481565b611a3a61334f565b6114b9613dc6565b611a4a611860565b15611a8a576040805162461bcd60e51b81526020600482015260106024820152600080516020614e87833981519152604482015290519081900360640190fd5b611a926134a2565b61010e54811115611ad45760405162461bcd60e51b8152600401808060200182810382526024815260200180614d856024913960400191505060405180910390fd5b61010a8190556040805182815290517f1776ab2b6ca2ecf6879162cd3f7f99594a9d5b67ac64d0d41e63f1e804969ef29181900360200190a150565b611b186134a2565b61010060009054906101000a90046001600160a01b03166001600160a01b03166384f227216040518163ffffffff1660e01b8152600401600060405180830381600087803b158015611b6957600080fd5b505af1158015611b7d573d6000803e3d6000fd5b50505050565b611b8b611860565b15611bcb576040805162461bcd60e51b81526020600482015260106024820152600080516020614e87833981519152604482015290519081900360640190fd5b6114b9611bd73361199e565b61375a565b610103546001600160a01b031681565b611bf4613516565b6001600160a01b038116611c47576040805162461bcd60e51b81526020600482015260156024820152740416464726573732063616e6e6f742062652030783605c1b604482015290519081900360640190fd5b61010180546001600160a01b0319166001600160a01b0383169081179091556040517f31845eceb9cde510c7e8b37f76301c688feb70bc9653aa4c28a3734999840fd890600090a250565b61010c5481565b60378054604080516020601f6002600019610100600188161502019095169490940493840181900481028201810190925282815260609390929091830182828015610f785780601f10610f4d57610100808354040283529160200191610f78565b611d026134a2565b610100546040805163283f557960e21b81526001600160a01b0384811660048301529151919092169163a0fd55e491602480830192600092919082900301818387803b158015611d5157600080fd5b505af1158015611d65573d6000803e3d6000fd5b5050505050565b611d746134a2565b60fe546001600160a01b0382811691161415611dc1576040805162461bcd60e51b8152602060048201526007602482015266139bc81dd85b9d60ca1b604482015290519081900360640190fd5b6101005460408051631bd43be360e01b81526001600160a01b03848116600483015291519190921691631bd43be391602480830192600092919082900301818387803b158015611e1057600080fd5b505af1158015611e24573d6000803e3d6000fd5b5050606554604080516370a0823160e01b815230600482015290516111ea94506001600160a01b039283169350918516916370a0823191602480820192602092909190829003018186803b158015611e7b57600080fd5b505afa158015611e8f573d6000803e3d6000fd5b505050506040513d6020811015611ea557600080fd5b50516001600160a01b0384169190613d74565b6000610f97611ec56133b2565b8461118185604051806060016040528060258152602001614f3a6025913960346000611eef6133b2565b6001600160a01b03908116825260208083019390935260409182016000908120918d168152925290205491906136c3565b61010d5481565b610100546001600160a01b031681565b6000610f97611f446133b2565b8484613566565b611f53613516565b606580546001600160a01b0319166001600160a01b0392909216919091179055565b611f7d611860565b15611fbd576040805162461bcd60e51b81526020600482015260106024820152600080516020614e87833981519152604482015290519081900360640190fd5b611fc56134a2565b61010f5481111561201d576040805162461bcd60e51b815260206004820152601860248201527f457863657373697665207769746864726177616c206665650000000000000000604482015290519081900360640190fd5b61010c8190556040805182815290517f3aa4413905e8f015896ec5880bdde24088ccb19b578f9fcf6800354d5320d4af9181900360200190a150565b6067546001600160a01b031681565b600061157061010060009054906101000a90046001600160a01b03166001600160a01b031663722713f76040518163ffffffff1660e01b815260040160206040518083038186803b1580156120bc57600080fd5b505afa1580156120d0573d6000803e3d6000fd5b505050506040513d60208110156120e657600080fd5b505160fe54604080516370a0823160e01b815230600482015290516001600160a01b03909216916370a0823191602480820192602092909190829003018186803b15801561213357600080fd5b505afa158015612147573d6000803e3d6000fd5b505050506040513d602081101561215d57600080fd5b505190613b42565b61216d611860565b156121ad576040805162461bcd60e51b81526020600482015260106024820152600080516020614e87833981519152604482015290519081900360640190fd5b6111ea816000805b506040519080825280602002602001820160405280156121df578160200160208202803683370190505b50613b37565b6121ed611860565b1561222d576040805162461bcd60e51b81526020600482015260106024820152600080516020614e87833981519152604482015290519081900360640190fd5b60fe54604080516370a0823160e01b815233600482015290516111ea926001600160a01b0316916370a08231916024808301926020929190829003018186803b15801561227957600080fd5b505afa15801561228d573d6000803e3d6000fd5b505050506040513d60208110156122a357600080fd5b505182613b37565b6101096020526000908152604090205481565b6122c6613516565b606680546001600160a01b0319166001600160a01b0392909216919091179055565b60ff8054600160a01b90041615612336576040805162461bcd60e51b815260206004820152600d60248201526c1c185d5cd95911195c1bdcda5d609a1b604482015290519081900360640190fd5b61233e613e44565b60006123486114da565b6101005460fe54919250612369916001600160a01b03908116911683613d74565b61010060009054906101000a90046001600160a01b03166001600160a01b031663d389800f6040518163ffffffff1660e01b8152600401600060405180830381600087803b158015611d5157600080fd5b6123c2611860565b15612402576040805162461bcd60e51b81526020600482015260106024820152600080516020614e87833981519152604482015290519081900360640190fd5b61240d8383836139ff565b505050565b61241a613516565b610bb881111561245b5760405162461bcd60e51b8152600401808060200182810382526021815260200180614e206021913960400191505060405180910390fd5b61010e8190556040805182815290517fd7fabec26d79f18c91fcbf04b6e1650fcd90cd4f7d6c389feeca8339c012f9bb9181900360200190a150565b600260cc5414156124dd576040805162461bcd60e51b815260206004820152601f6024820152600080516020614ccf833981519152604482015290519081900360640190fd5b600260cc556124ea613cfc565b4260006124ff836124f9612068565b90613eaf565b905061250b8383613f0c565b61010683905580156125225761010781905561252e565b8261252e576000610107555b6101045461253c9084613b42565b6101045561010582905560fe5460408051858152426020820152815143936001600160a01b0316927fe48bba143e2a0b557fa6f3234bd6ffc704518cc98c7de6a2385549fae27d1b75928290030190a35050600160cc5550565b6001600160a01b03918216600090815260346020908152604080832093909416825291909152205490565b6125c9611860565b15612609576040805162461bcd60e51b81526020600482015260106024820152600080516020614e87833981519152604482015290519081900360640190fd5b60fe54604080516370a0823160e01b815233600482015290516114b9926001600160a01b0316916370a08231916024808301926020929190829003018186803b15801561265557600080fd5b505afa158015612669573d6000803e3d6000fd5b505050506040513d602081101561267f57600080fd5b50516000806121b5565b60ff8054600160a01b90041681565b6101075481565b6126a7613516565b60c88111156126f6576040805162461bcd60e51b81526020600482015260166024820152750dac2dcc2cecadacadce88ccaca40e8dede40d0d2ced60531b604482015290519081900360640190fd5b6101108190556040805182815290517f4c7b8194b874abd9829fc99a7fd17528dd31a043b15b067e806b9aed5e2febb39181900360200190a150565b61010f5481565b6101055481565b612748611860565b15612788576040805162461bcd60e51b81526020600482015260106024820152600080516020614e87833981519152604482015290519081900360640190fd5b612790613516565b6001600160a01b0381166127d7576040805162461bcd60e51b815260206004820152600960248201526804164647265737320360bc1b604482015290519081900360640190fd5b61010280546001600160a01b0319166001600160a01b0383169081179091556040517fcb7ef3e545f5cdb893f5c568ba710fe08f336375a2d9fd66e161033f8fc09ef390600090a250565b61282a611860565b1561286a576040805162461bcd60e51b81526020600482015260106024820152600080516020614e87833981519152604482015290519081900360640190fd5b6128726134a2565b61010e548111156128b45760405162461bcd60e51b8152600401808060200182810382526024815260200180614f166024913960400191505060405180910390fd5b61010b8190556040805182815290517fa2b496c086c66c1966a950920059fb82fdb25b562982c79b2aa490fde65f647b9181900360200190a150565b600054610100900460ff16806129095750612909613ff9565b80612917575060005460ff16155b6129525760405162461bcd60e51b815260040180806020018281038252602e815260200180614da9602e913960400191505060405180910390fd5b600054610100900460ff1615801561297d576000805460ff1961ff0019909116610100171660011790555b612985611860565b156129c5576040805162461bcd60e51b81526020600482015260106024820152600080516020614e87833981519152604482015290519081900360640190fd5b6001600160a01b038b166129d857600080fd5b6001600160a01b038a166129eb57600080fd5b6001600160a01b0389166129fe57600080fd5b6001600160a01b038816612a1157600080fd5b6001600160a01b038716612a2457600080fd5b6001600160a01b038616612a3757600080fd5b6001600160a01b038516612a4a57600080fd5b8151610bb81015612a8c5760405162461bcd60e51b8152600401808060200182810382526021815260200180614ea76021913960400191505060405180910390fd5b6020820151610bb81015612ad15760405162461bcd60e51b8152600401808060200182810382526021815260200180614e206021913960400191505060405180910390fd5b604082015160c81015612b24576040805162461bcd60e51b81526020600482015260166024820152750eed2e8d0c8e4c2eec2d88ccaca40e8dede40d0d2ced60531b604482015290519081900360640190fd5b606082015160c81015612b77576040805162461bcd60e51b81526020600482015260166024820152750dac2dcc2cecadacadce88ccaca40e8dede40d0d2ced60531b604482015290519081900360640190fd5b60608060008d90507fc5d2460186f7233c927e7db2dcc703c0e500b653ca82273b7bfad8045d85a470876040516020018082805190602001908083835b60208310612bd35780518252601f199092019160209182019101612bb4565b6001836020036101000a0380198251168184511680821785525050505050509050019150506040516020818303038152906040528051906020012014612c1b57869250612e16565b6040518060400160405280600c81526020016b02130b233b2b91029b2ba3a160a51b815250816001600160a01b03166306fdde036040518163ffffffff1660e01b815260040160006040518083038186803b158015612c7957600080fd5b505afa158015612c8d573d6000803e3d6000fd5b505050506040513d6000823e601f3d908101601f191682016040526020811015612cb657600080fd5b8101908080516040519392919084600160201b821115612cd557600080fd5b908301906020820185811115612cea57600080fd5b8251600160201b811182820188101715612d0357600080fd5b82525081516020918201929091019080838360005b83811015612d30578181015183820152602001612d18565b50505050905090810190601f168015612d5d5780820380516001836020036101000a031916815260200191505b506040525050506040516020018083805190602001908083835b60208310612d965780518252601f199092019160209182019101612d77565b51815160209384036101000a600019018019909216911617905285519190930192850191508083835b60208310612dde5780518252601f199092019160209182019101612dbf565b6001836020036101000a0380198251168184511680821785525050505050509050019250505060405160208183030381529060405292505b7fc5d2460186f7233c927e7db2dcc703c0e500b653ca82273b7bfad8045d85a470866040516020018082805190602001908083835b60208310612e6a5780518252601f199092019160209182019101612e4b565b6001836020036101000a0380198251168184511680821785525050505050509050019150506040516020818303038152906040528051906020012014612eb2578591506130a2565b604051806040016040528060018152602001603160f91b815250816001600160a01b03166395d89b416040518163ffffffff1660e01b815260040160006040518083038186803b158015612f0557600080fd5b505afa158015612f19573d6000803e3d6000fd5b505050506040513d6000823e601f3d908101601f191682016040526020811015612f4257600080fd5b8101908080516040519392919084600160201b821115612f6157600080fd5b908301906020820185811115612f7657600080fd5b8251600160201b811182820188101715612f8f57600080fd5b82525081516020918201929091019080838360005b83811015612fbc578181015183820152602001612fa4565b50505050905090810190601f168015612fe95780820380516001836020036101000a031916815260200191505b506040525050506040516020018083805190602001908083835b602083106130225780518252601f199092019160209182019101613003565b51815160209384036101000a600019018019909216911617905285519190930192850191508083835b6020831061306a5780518252601f19909201916020918201910161304b565b6001836020036101000a0380198251168184511680821785525050505050509050019250505060405160208183030381529060405291505b6130ac838361400a565b6130b46140bf565b6130bc614170565b8d60fe60006101000a8154816001600160a01b0302191690836001600160a01b031602179055508c606560006101000a8154816001600160a01b0302191690836001600160a01b031602179055508961010260006101000a8154816001600160a01b0302191690836001600160a01b0316021790555088606660006101000a8154816001600160a01b0302191690836001600160a01b031602179055508b606760006101000a8154816001600160a01b0302191690836001600160a01b031602179055508a61010160006101000a8154816001600160a01b0302191690836001600160a01b031602179055508761010360006101000a8154816001600160a01b0302191690836001600160a01b031602179055504261010581905550846000600481106131e557fe5b6020908102919091015161010a5585015161010b55505050604082015161010c55606082015161010d55610bb861010e5560c861010f8190556101105561251c61011155801561323b576000805461ff00191690555b5050505050505050505050565b6101045481565b6101115481565b60fe546001600160a01b031681565b61271081565b613273611860565b156132b3576040805162461bcd60e51b81526020600482015260106024820152600080516020614e87833981519152604482015290519081900360640190fd5b6132bb6134a2565b61011054811115613313576040805162461bcd60e51b815260206004820152601860248201527f457863657373697665206d616e6167656d656e74206665650000000000000000604482015290519081900360640190fd5b61010d8190556040805182815290517fd87632b1c6ebfa21acbca0e3279b3cf6385a377cb8fda51e5b866baa6e6012ab9181900360200190a150565b610101546001600160a01b031633148061337357506065546001600160a01b031633145b6114b9576040805162461bcd60e51b815260206004820152600b60248201526a6f6e6c795061757365727360a81b604482015290519081900360640190fd5b3390565b6001600160a01b0383166133fb5760405162461bcd60e51b8152600401808060200182810382526024815260200180614ec86024913960400191505060405180910390fd5b6001600160a01b0382166134405760405162461bcd60e51b8152600401808060200182810382526022815260200180614d3d6022913960400191505060405180910390fd5b6001600160a01b03808416600081815260346020908152604080832094871680845294825291829020859055815185815291517f8c5be1e5ebec7d5bd14f71427d1e84f3dd0314c0f7b2291e5b200ac8c7c3b9259281900390910190a3505050565b6066546001600160a01b03163314806134c557506065546001600160a01b031633145b6114b9576040805162461bcd60e51b815260206004820152601a60248201527f6f6e6c79476f7665726e616e63654f7253747261746567697374000000000000604482015290519081900360640190fd5b6065546001600160a01b031633146114b9576040805162461bcd60e51b815260206004820152600e60248201526d6f6e6c79476f7665726e616e636560901b604482015290519081900360640190fd5b6001600160a01b0383166135ab5760405162461bcd60e51b8152600401808060200182810382526025815260200180614e626025913960400191505060405180910390fd5b6001600160a01b0382166135f05760405162461bcd60e51b8152600401808060200182810382526023815260200180614cac6023913960400191505060405180910390fd5b6135fb83838361240d565b61363881604051806060016040528060268152602001614d5f602691396001600160a01b03861660009081526033602052604090205491906136c3565b6001600160a01b0380851660009081526033602052604080822093909355908416815220546136679082613b42565b6001600160a01b0380841660008181526033602090815260409182902094909455805185815290519193928716927fddf252ad1be2c89b69c2b068fc378daa952ba7f163c4a11628f55a4df523b3ef92918290030190a3505050565b600081848411156137525760405162461bcd60e51b81526004018080602001828103825283818151815260200191508051906020019080838360005b838110156137175781810151838201526020016136ff565b50505050905090810190601f1680156137445780820380516001836020036101000a031916815260200191505b509250505060405180910390fd5b505050900390565b600260cc5414156137a0576040805162461bcd60e51b815260206004820152601f6024820152600080516020614ccf833981519152604482015290519081900360640190fd5b600260cc55806137e2576040805162461bcd60e51b8152602060048201526008602482015267302053686172657360c01b604482015290519081900360640190fd5b60006137fb6137ef61104e565b61156a84611a1f612068565b90506138073383614205565b60fe54604080516370a0823160e01b815230600482015290516000926001600160a01b0316916370a08231916024808301926020929190829003018186803b15801561385257600080fd5b505afa158015613866573d6000803e3d6000fd5b505050506040513d602081101561387c57600080fd5b505190508181101561399f5760006138948383613eaf565b6101005460408051632e1a7d4d60e01b81526004810184905290519293506001600160a01b0390911691632e1a7d4d9160248082019260009290919082900301818387803b1580156138e557600080fd5b505af11580156138f9573d6000803e3d6000fd5b505060fe54604080516370a0823160e01b81523060048201529051600094506001600160a01b0390921692506370a08231916024808301926020929190829003018186803b15801561394a57600080fd5b505afa15801561395e573d6000803e3d6000fd5b505050506040513d602081101561397457600080fd5b5051905060006139848285613eaf565b90508281101561399b576139988482613b42565b94505b5050505b60006139ae8361010c54613d4b565b90506139d1336139be8584613eaf565b60fe546001600160a01b03169190613d74565b610102546139f4906001600160a01b0316826139ef816124f9612068565b614301565b5050600160cc555050565b60ff546001600160a01b031615613b2d5760ff54604051631a9ee26f60e01b81526001600160a01b0385811660048301908152602483018690526060604484019081528551606485015285519290941693631a9ee26f93889388938893909290916084909101906020808601910280838360005b83811015613a8b578181015183820152602001613a73565b5050505090500194505050505060206040518083038186803b158015613ab057600080fd5b505afa158015613ac4573d6000803e3d6000fd5b505050506040513d6020811015613ada57600080fd5b5051613b2d576040805162461bcd60e51b815260206004820152601960248201527f47756573744c6973743a204e6f7420417574686f72697a656400000000000000604482015290519081900360640190fd5b61240d8383614339565b6112513383836139ff565b60008282018381101561118a576040805162461bcd60e51b815260206004820152601b60248201527f536166654d6174683a206164646974696f6e206f766572666c6f770000000000604482015290519081900360640190fd5b613ba4611860565b613bec576040805162461bcd60e51b815260206004820152601460248201527314185d5cd8589b194e881b9bdd081c185d5cd95960621b604482015290519081900360640190fd5b609a805460ff191690557f5db9ee0a495bf2e6ff9c91a7834c1ba4fdd244a5e8aa4e537bd38aeae4b073aa613c1f6133b2565b604080516001600160a01b039092168252519081900360200190a1565b600082613c4b57506000610f9b565b82820282848281613c5857fe5b041461118a5760405162461bcd60e51b8152600401808060200182810382526021815260200180614dd76021913960400191505060405180910390fd5b6000808211613ceb576040805162461bcd60e51b815260206004820152601a60248201527f536166654d6174683a206469766973696f6e206279207a65726f000000000000604482015290519081900360640190fd5b818381613cf457fe5b049392505050565b610100546001600160a01b031633146114b9576040805162461bcd60e51b815260206004820152600c60248201526b6f6e6c79537472617465677960a01b604482015290519081900360640190fd5b600081613d5a57506000610f9b565b6000613d6c61271061156a8686613c3c565b949350505050565b604080516001600160a01b038416602482015260448082018490528251808303909101815260649091019091526020810180516001600160e01b031663a9059cbb60e01b17905261240d908490614591565b613dce611860565b15613e0e576040805162461bcd60e51b81526020600482015260106024820152600080516020614e87833981519152604482015290519081900360640190fd5b609a805460ff191660011790557f62e78cea01bee320cd4e420270b5ea74000d11b0c9f74754ebdbfc544b05a258613c1f6133b2565b6067546001600160a01b0316331480613e6757506065546001600160a01b031633145b6114b9576040805162461bcd60e51b81526020600482015260146024820152736f6e6c79417574686f72697a65644163746f727360601b604482015290519081900360640190fd5b600082821115613f06576040805162461bcd60e51b815260206004820152601e60248201527f536166654d6174683a207375627472616374696f6e206f766572666c6f770000604482015290519081900360640190fd5b50900390565b600080613f1884614642565b915091506000613f346101055485613eaf90919063ffffffff16565b905060008061010d5411613f49576000613f74565b613f7461271061156a6301e1855861156a86611a1f613f6a8d6124f9612068565b61010d5490613c3c565b90506000613f828583613b42565b90506000613f96856124f9846124f9612068565b90508115613fb65761010254613fb6906001600160a01b03168383614301565b8415801590613fcf57506066546001600160a01b031615155b15613fef57606654613fef906001600160a01b0316866139ef8486613b42565b5050505050505050565b600061400430614671565b15905090565b600054610100900460ff16806140235750614023613ff9565b80614031575060005460ff16155b61406c5760405162461bcd60e51b815260040180806020018281038252602e815260200180614da9602e913960400191505060405180910390fd5b600054610100900460ff16158015614097576000805460ff1961ff0019909116610100171660011790555b61409f614677565b6140a98383614717565b801561240d576000805461ff0019169055505050565b600054610100900460ff16806140d857506140d8613ff9565b806140e6575060005460ff16155b6141215760405162461bcd60e51b815260040180806020018281038252602e815260200180614da9602e913960400191505060405180910390fd5b600054610100900460ff1615801561414c576000805460ff1961ff0019909116610100171660011790555b614154614677565b61415c6147ef565b80156111ea576000805461ff001916905550565b600054610100900460ff16806141895750614189613ff9565b80614197575060005460ff16155b6141d25760405162461bcd60e51b815260040180806020018281038252602e815260200180614da9602e913960400191505060405180910390fd5b600054610100900460ff161580156141fd576000805460ff1961ff0019909116610100171660011790555b61415c61489a565b6001600160a01b03821661424a5760405162461bcd60e51b8152600401808060200182810382526021815260200180614e416021913960400191505060405180910390fd5b6142568260008361240d565b61429381604051806060016040528060228152602001614d1b602291396001600160a01b03851660009081526033602052604090205491906136c3565b6001600160a01b0383166000908152603360205260409020556035546142b99082613eaf565b6035556040805182815290516000916001600160a01b038516917fddf252ad1be2c89b69c2b068fc378daa952ba7f163c4a11628f55a4df523b3ef9181900360200190a35050565b600061430b61104e565b61431657508161432f565b61432c8261156a61432561104e565b8690613c3c565b90505b611b7d8482614940565b600260cc54141561437f576040805162461bcd60e51b815260206004820152601f6024820152600080516020614ccf833981519152604482015290519081900360640190fd5b600260cc556001600160a01b0382166143cb576040805162461bcd60e51b815260206004820152600960248201526804164647265737320360bc1b604482015290519081900360640190fd5b80614408576040805162461bcd60e51b81526020600482015260086024820152670416d6f756e7420360c41b604482015290519081900360640190fd5b60ff8054600160a01b90041615614456576040805162461bcd60e51b815260206004820152600d60248201526c1c185d5cd95911195c1bdcda5d609a1b604482015290519081900360640190fd5b6000614460612068565b60fe54604080516370a0823160e01b815230600482015290519293506000926001600160a01b03909216916370a0823191602480820192602092909190829003018186803b1580156144b157600080fd5b505afa1580156144c5573d6000803e3d6000fd5b505050506040513d60208110156144db57600080fd5b505160fe549091506144f8906001600160a01b0316333086614a32565b60fe54604080516370a0823160e01b815230600482015290516000926001600160a01b0316916370a08231916024808301926020929190829003018186803b15801561454357600080fd5b505afa158015614557573d6000803e3d6000fd5b505050506040513d602081101561456d57600080fd5b505190506145858561457f8385613eaf565b85614301565b5050600160cc55505050565b60606145e6826040518060400160405280602081526020017f5361666545524332303a206c6f772d6c6576656c2063616c6c206661696c6564815250856001600160a01b0316614a8c9092919063ffffffff16565b80519091501561240d5780806020019051602081101561460557600080fd5b505161240d5760405162461bcd60e51b815260040180806020018281038252602a815260200180614eec602a913960400191505060405180910390fd5b60008060006146548461010a54613d4b565b905060006146658561010b54613d4b565b91935090915050915091565b3b151590565b600054610100900460ff16806146905750614690613ff9565b8061469e575060005460ff16155b6146d95760405162461bcd60e51b815260040180806020018281038252602e815260200180614da9602e913960400191505060405180910390fd5b600054610100900460ff1615801561415c576000805460ff1961ff00199091166101001716600117905580156111ea576000805461ff001916905550565b600054610100900460ff16806147305750614730613ff9565b8061473e575060005460ff16155b6147795760405162461bcd60e51b815260040180806020018281038252602e815260200180614da9602e913960400191505060405180910390fd5b600054610100900460ff161580156147a4576000805460ff1961ff0019909116610100171660011790555b82516147b7906036906020860190614c18565b5081516147cb906037906020850190614c18565b506038805460ff19166012179055801561240d576000805461ff0019169055505050565b600054610100900460ff16806148085750614808613ff9565b80614816575060005460ff16155b6148515760405162461bcd60e51b815260040180806020018281038252602e815260200180614da9602e913960400191505060405180910390fd5b600054610100900460ff1615801561487c576000805460ff1961ff0019909116610100171660011790555b609a805460ff1916905580156111ea576000805461ff001916905550565b600054610100900460ff16806148b357506148b3613ff9565b806148c1575060005460ff16155b6148fc5760405162461bcd60e51b815260040180806020018281038252602e815260200180614da9602e913960400191505060405180910390fd5b600054610100900460ff16158015614927576000805460ff1961ff0019909116610100171660011790555b600160cc5580156111ea576000805461ff001916905550565b6001600160a01b03821661499b576040805162461bcd60e51b815260206004820152601f60248201527f45524332303a206d696e7420746f20746865207a65726f206164647265737300604482015290519081900360640190fd5b6149a76000838361240d565b6035546149b49082613b42565b6035556001600160a01b0382166000908152603360205260409020546149da9082613b42565b6001600160a01b03831660008181526033602090815260408083209490945583518581529351929391927fddf252ad1be2c89b69c2b068fc378daa952ba7f163c4a11628f55a4df523b3ef9281900390910190a35050565b604080516001600160a01b0380861660248301528416604482015260648082018490528251808303909101815260849091019091526020810180516001600160e01b03166323b872dd60e01b179052611b7d908590614591565b6060613d6c848460008585614aa085614671565b614af1576040805162461bcd60e51b815260206004820152601d60248201527f416464726573733a2063616c6c20746f206e6f6e2d636f6e7472616374000000604482015290519081900360640190fd5b60006060866001600160a01b031685876040518082805190602001908083835b60208310614b305780518252601f199092019160209182019101614b11565b6001836020036101000a03801982511681845116808217855250505050505090500191505060006040518083038185875af1925050503d8060008114614b92576040519150601f19603f3d011682016040523d82523d6000602084013e614b97565b606091505b5091509150614ba7828286614bb2565b979650505050505050565b60608315614bc157508161118a565b825115614bd15782518084602001fd5b60405162461bcd60e51b81526020600482018181528451602484015284518593919283926044019190850190808383600083156137175781810151838201526020016136ff565b828054600181600116156101000203166002900490600052602060002090601f016020900481019282601f10614c5957805160ff1916838001178555614c86565b82800160010185558215614c86579182015b82811115614c86578251825591602001919060010190614c6b565b50614c92929150614c96565b5090565b5b80821115614c925760008155600101614c9756fe45524332303a207472616e7366657220746f20746865207a65726f20616464726573735265656e7472616e637947756172643a207265656e7472616e742063616c6c00506c65617365207769746864726177546f5661756c74206265666f7265206368616e67696e6720737472617445524332303a206275726e20616d6f756e7420657863656564732062616c616e636545524332303a20617070726f766520746f20746865207a65726f206164647265737345524332303a207472616e7366657220616d6f756e7420657863656564732062616c616e636545786365737369766520676f7665726e616e636520706572666f726d616e636520666565496e697469616c697a61626c653a20636f6e747261637420697320616c726561647920696e697469616c697a6564536166654d6174683a206d756c7469706c69636174696f6e206f766572666c6f7745524332303a207472616e7366657220616d6f756e74206578636565647320616c6c6f77616e6365706572666f726d616e63654665655374726174656769737420746f6f206869676845524332303a206275726e2066726f6d20746865207a65726f206164647265737345524332303a207472616e736665722066726f6d20746865207a65726f20616464726573735061757361626c653a2070617573656400000000000000000000000000000000706572666f726d616e6365466565476f7665726e616e636520746f6f206869676845524332303a20617070726f76652066726f6d20746865207a65726f20616464726573735361666545524332303a204552433230206f7065726174696f6e20646964206e6f742073756363656564457863657373697665207374726174656769737420706572666f726d616e63652066656545524332303a2064656372656173656420616c6c6f77616e63652062656c6f77207a65726fa26469706673582212200d16b3831acf563779a9b5abf5c5fbe4ce55c615d447210e616420509dc247f464736f6c634300060c0033",
  "linkReferences": {},
  "deployedLinkReferences": {}
}